:020000040800F2
:10000000A810002009280008D1270008D3270008DD
:1000100025280008292800082D28000800000000D5
:10002000000000000000000000000000D5270008CC
:10003000D727000800000000D9270008DB270008A8
:100040003128000835280008392800083D28000814
:100050004128000845280008492800084D280008C4
:100060005128000855280008592800085D28000874
:100070006128000865280008692800086D28000824
:100080007128000875280008792800087D280008D4
:10009000812800088528000889280008DF27000833
:1000A0008D28000891280008952800089928000844
:1000B0009D280008A1280008A5280008A9280008F4
:1000C000AD280008B1280008B5280008B9280008A4
:1000D000BD280008C1280008C5280008C928000854
:1000E000CD280008D1280008D5280008D928000804
:1000F000DD280008E1280008E5280008E9280008B4
:10010000ED280008F1280008F5280008F928000863
:10011000FD28000801290008052900080929000810
:100120000D290008112900081529000819290008BF
:100130001D2900082129000825290008292900086F
:100140002D2900083129000835290008392900081F
:100150003D290008412900084529000849290008CF
:100160004D2900085129000855290008592900087F
:100170005D290008612900086529000800000000C9
:10018000692900086D2900082DE9F8430546DFF8C4
:100190006C662878DFF85876C10626D5B86810F066
:1001A0000C0F3BD13968880702D5A869002833D0E5
:1001B000396808074EBF396871680909286A01F073
:1001C000F001814206D200F0D9FA002824D100F0D3
:1001D000C5F905E000F0C2F9286A00F0CFFAD8B9F5
:1001E00000F079FABA6800F0CBF92878C10764D535
:1001F00000F0D2F9082808D000F0CEF90C2802BF90
:10020000F86800F0030003282CD13968880354D51E
:100210006868002840F0F28001209DE1A86988B15B
:10022000396841F00101396000F0FAFA0446386893
:10023000810700F1E08000F0F3FA001B0328F6D3F9
:10024000032089E1386840084000386000F0E8FA8F
:10025000044639688807C8D500F0E2FA001B032875
:10026000F7D3EDE76868B0F5803F06D0B0F5A02F72
:10027000396807D141F480213960386840F4803012
:10028000386006E021F4803139603A6822F4802237
:100290003A60686860B100F0C3FA044639688803C0
:1002A00000F1AC8000F0BCFA001B6528F6D3C7E76C
:1002B00000F0B6FA04463868810340F19F8000F0F0
:1002C000AFFA001B6528F6D3BAE700F0A9FA001BC5
:1002D0000328C0F0BF80B3E7E86880B1396841F413
:1002E0008071396000F09CFA04463868410500F1DD
:1002F000E08000F095FA001B0328F6D3A0E73868E9
:1003000020F48070386000F08BFA044639684805A4
:1003100076D500F085FA001B0328F7D390E77068C4
:1003200040084000706000F07BFA04467068810766
:1003300040F1948000F074FA001B0328F6D37FE7A5
:100340000528306806D140F004003060316841F083
:10035000010105E0400840003060316821F00401EF
:100360003160A86841F2893868B100F059FA8146D5
:100370003168880700F1AE8000F052FAA0EB090066
:100380004045F5D35CE700F04BFA814630688107C1
:1003900040F1A08000F044FAA0EB09004045F5D3FD
:1003A0004EE700F03DFA001B0328C0F0AA8047E7A3
:1003B00000F036FA001B0328C0F0C98040E7396816
:1003C000080106D43868810003D4F86880088000EA
:1003D000F860F968DFF828040140F96000F020FABD
:1003E00004463868810140F1B68000F019FA001B1C
:1003F0000328F6D324E700F0B1F8F6E62878810761
:100400001AD500F0C9F8042809D000F0C5F80C2866
:1004100002BFF86800F0030002287FF45DAF39687E
:10042000480502D5E86800285FD07968286921F07E
:10043000F85141EA00617960297808070ED56869AA
:1004400000283FF46CAF716841F00101716000F069
:10045000E7F90446706881077FF537AF29784807C8
:100460003DD5B86D0024C10009D4B86D40F080506E
:10047000B8650124B86D00F0805000900098DFF856
:100480008483D8F80010C8051BD4D8F8000040F4C5
:100490008070C8F8000000F0C3F98146D8F8001059
:1004A000C8050ED400F0BCF9A0EB09000328F5D371
:1004B000C6E67868296920F0F85040EA0160786063
:1004C000BAE7A86801287FF43BAF306840F001002C
:1004D000306046E71CB1B86D20F08050B865A86A5E
:1004E000C8B3B96801F00C010C293FF495AE02289D
:1004F000386820F0807038607FF461AF00F090F9C8
:100500000446396888013FF54CAF286B696B401E83
:10051000090241EA0011A86B000941EA4041E86A7A
:100520000143E86B4008401E41EA4051286C4008F6
:10053000401E41EA4061F960386840F080703860E0
:10054000F96841F08071F96000F06AF90446386892
:1005500081017FF52DAF0020BDE8F283386840F0BF
:10056000080038603968286A21F0F00101433960D9
:100570007868E96920F47F4040EA0120786070479C
:10058000DFF88412C2F30312895CDFF86822C840E6
:1005900010600F2000F04AB9B86800F00C007047F6
:1005A0002DE9F843DFF8647205463868894600F0A3
:1005B0000700484502D200F084F875D12978DFF8A9
:1005C0003042C8075FD56868032802D121688A01D4
:1005D00007E0022802D121688A0302E018B92168E5
:1005E0008A0703D460E0226851055DD5A1688908B7
:1005F00040EA8100A06041F2893800F011F9064616
:10060000686803280BD1A06800F00C000C283AD0D1
:1006100000F006F9801B4045F5D3032031E00228A5
:100620000AD1A06800F00C0008282CD000F0F8F8DF
:10063000801B4045F5D3F0E7002837D1A06810F0C3
:100640000C0F20D000F0ECF8801B4045F6D3E4E717
:100650002878410705D5A168E86821F4E0610143E5
:10066000A1602878010706D5A068296920F46050A8
:1006700040EAC100A06000F02EF8A268FFF780FFFA
:100680000020BDE8F2832878810705D5A168A86815
:1006900021F0F0010143A160386800F007008145B6
:1006A000D6D200F00EF8D3D00120EAE7A06800F01F
:1006B0000C000428E7D000F0B3F8801B4045F5D3C8
:1006C000ABE73968C90849EAC1013960386800F008
:1006D00007004845704746498B680022002013F008
:1006E0000C0F09D08B6803F00C030C2B02BFCB68F6
:1006F00003F00303012B13D10A68130704D43E4A05
:100700001368C3F3032202E00A68C2F30312404BEA
:1007100053F822208B6813F00C0F0ED110460CE01A
:100720008B6803F00C03042B08BF3A4805D08B6894
:1007300003F00C03082B08BF37488B6803F00C0349
:100740000C2B1AD1CB68C868C0F30210401C03F010
:100750000303022B03D0032B08BF2F4A00E02D4ACE
:10076000B2FBF0F2C868C0F306204243C868C0F389
:100770004160401C4000B2FBF0F070477CB5274E52
:10078000054630680024C10002D500F063F80EE091
:10079000306840F080503060316801F08051009145
:1007A000009800F057F8316821F080513160B0F5C1
:1007B000007F04D1802D0CD9A12D09D304E0802D18
:1007C00088BF032405D801D1022402E0702D00D196
:1007D00001240E480168C90844EAC10101600068AB
:1007E00000F00700A04201D0012076BD002076BDB8
:1007F00000100240080000209410024090100240B7
:10080000FFFFEEFE007000406C2600080020024052
:100810007C2600080024F40000127A0058100240E0
:1008200001480068704700BFA00C002010B50849BF
:100830000A6804464FF47A70B2FBF0F000F055F805
:10084000002221464FF0FF3000F028F8002010BDB4
:1008500008000020DFF80800006800F4C06070475E
:10086000007000400901002881B006D5294A00F037
:100870000F00104400F8041C01E0274A115401B095
:100880007047264A13684FF6FF0100020B4000F440
:10089000E0601843224908431060704738B51F4B89
:1008A0001C68C4F30223C3F10704052C28BF0424E9
:1008B0001D1D072D34BF0023DB1E012505FA04F49E
:1008C000641E2140994005FA03F35B1E1A40114350
:1008D000BDE83440C6E7012200F01F01114BFFE7DD
:1008E0008A40400943F82020704710B5401EB0F1FF
:1008F000807F01D3012010BD0B4C60600F214FF0B1
:10090000FF30FFF7AFFF0022A26007202060002029
:1009100010BD000018ED00E000E400E00CED00E088
:100920000000FA0500E100E010E000E038B5040046
:1009300001D1012032BD04F14005687820B90021C1
:100940002970204600F0F0FA00F054F86068216841
:1009500020F0706008612068816821F400418160A6
:10096000E068A168012820680CBF41F4004141F40F
:1009700004418160E168022903D122684FF40060DC
:1009800050602068416841F0007141F400414160CD
:100990002068C16821F40041C16060692169226852
:1009A0000143A06941EA0021D160206AE169014365
:1009B000206801602068016841F0010101600020A9
:1009C00068602020687000202063A87032BD38B5B0
:1009D000040001D1012032BD04F1400500F00AF805
:1009E000204600F0DDFA0020686068702063A8707F
:1009F000287032BD242068702068016849084900C9
:100A0000016070472DE9FC4700F0CBF842D1217816
:100A100001293FD001202070FFF702FF00F0B8F855
:100A2000002832D1DDF82880212000F0C3F8DFF85B
:100A3000FC01B1F5807F28BF358506D2728D3285E5
:100A400000F09DF803E03585002000F093F800F0F9
:100A50009BF800F089F820D000F0A1F918B1606887
:100A6000042812D120E000F0B5F8F2D1708D0028F2
:100A7000EFD00097434600F01CF830B900F0A6F81C
:100A8000E1D2728D32850020DAE7032003E000F026
:100A9000B0F800E00220BDE8F68700F099F90028E0
:100AA000F5D060680428F0D10120F4E7CDF800907B
:100AB0003B4600228021304600F04CB92DE9FC472E
:100AC00000F06FF844D12178012941D00120207035
:100AD000FFF7A6FE00F05CF8002834D1DDF828808E
:100AE000222000F067F8DFF84801B1F5807F28BFC9
:100AF000358506D2728D328500F041F803E03585E8
:100B0000002000F037F800F03FF800F02DF822D078
:100B100000F07FF918B16068042814D122E000F0D9
:100B200077F800287285F0D1708D0028EDD00097FD
:100B30004346FFF7BEFF30B900F048F8DFD2728DB0
:100B400032850020D8E7032003E000F052F800E0EF
:100B50000220BDE8F68700F03BF90028F5D0606878
:100B60000428F0D10120F4E7708D00283A46414670
:100B70003046704700904FF08073FF22704700901E
:100B80004FF00073D2B270474946304600F0ADB91D
:100B900007460097192301224FF40041304600F028
:100BA000D9B8064606F140048946607820281546E3
:100BB0009A46704760701020A070002060607562D7
:100BC000A6F82AA07063FF25718D7047708DB0F56F
:100BD000807F7047706A411C71623168007888625A
:100BE000708D411E7185308D401E308580B2002889
:100BF000704731682020C8613168DFF834014A68E5
:100C000002404A60202060700020A0702070704771
:100C1000706A411C716231684A6A0270308D401EF0
:100C2000308580B2718D4A1E704700000020008020
:100C3000002400802DE9FC4705460020019005F1C5
:100C400040067078202841D12C68A06904043DD466
:100C50003478012C3AD001203070C1F309012420EE
:100C6000707041F42058002041F000711C469246FB
:100C7000706041F40059E868296801280CBF4846B3
:100C800040464860FFF7CCFD0746286881698A0620
:100C90001FD48169CA061CD47178A02919D014F117
:100CA000010FF2D0002C39D0FFF7BAFDC01B8442EF
:100CB000EBD233E000F037F830B929682020C86162
:100CC00070700020307002E0032000E00220BDE8D8
:100CD000F68780690097C1062346EBD500F023F81C
:100CE0000028F1D129681020C86120202A68D0612D
:100CF0000198411C504501910DD12868416841F48B
:100D0000804141600097234600F00DF80028DBD1B8
:100D100029682020C86101985045ACD3202070700C
:100D200000203070D0E700222021284600F012B8C1
:100D300000E800FE81B0006881698A0744BF002294
:100D400082628169CA0703D4816941F0010181612E
:100D500001B070472DE9F041069F05460E469046CA
:100D60001C46286881693140B1420CBF0120002037
:100D7000404511D114F1010FF3D024B1FFF750FD1C
:100D8000C01B8442EDD205F14000202141700021BA
:100D900081700170032000E00020BDE8F08170B593
:100DA00005460C4616462868816988070ED400F06F
:100DB00025F808B1012070BD14F1010FF3D024B162
:100DC000FFF72EFD801B8442EDD21BE0002070BD9A
:100DD00070B505460C4616462868816988060BD40E
:100DE00000F00CF830B924B1FFF71AFD801B8442E3
:100DF000F2D207E0012070BD002070BD32462146CE
:100E0000284638E000F02EF80021817001700320A0
:100E100070BD70B505460C461646286881694807BE
:100E20001ED4FFF7EBFFC8B929688869820609D488
:100E300024B1FFF7F5FC801B8442EED200F012F8DB
:100E40000021E3E78869420701D5288D40B92022B7
:100E5000CA6100F03BF8002100F040F8012070BDAD
:100E6000002070BD05F140002022416841F02001C2
:100E700041604270704770B505460C46286881692C
:100E8000C806164611D5286881698A060FD414F160
:100E9000010FF8D024B1FFF7C3FC801B8442F2D2CB
:100EA00005F1400020214170AEE7002070BD102107
:100EB000C16120202968C8612846FFF73BFF00F088
:100EC00005F8042100F00AF8012070BD29680F48D8
:100ED0004A6802404A6005F14000704741602021A5
:100EE0004170002181700170704770B50068049CEA
:100EF0004568074E46EA5456B543C1F309012943F4
:100F000041EA024119432143416070BD00E800FEFF
:100F1000FF63FF03402802BF2D480178042902D156
:100F20002C4801220270704710B52B482B4C86B01C
:100F300000F02DF8059900F02AF812220599C168F1
:100F400041F40011C1604FF48071C06800F40010DA
:100F5000059005980091002000F013F80192694671
:100F6000204600F06FF84FF400700090122100202E
:100F7000019100F006F86946204600F063F806B0DB
:100F800010BD029003210420039104907047016872
:100F900041F002010160026802F00202059270470E
:100FA00010B50F480D4C016841F4001101604FF479
:100FB0008071026822F400120260204600F020F9DD
:100FC0002046BDE810404FF4007100F019B9000050
:100FD0000E0000200F0000204C10024000040048CA
:100FE0003810024080B596B06846142100F0B2F97E
:100FF00005A8442100F0AEF901210B9110200590C5
:1010000000210C9160200D9001211091119102207E
:101010000F9028211590129104200721149013910C
:1010200005A8FFF7B1F80F200090032100200191DF
:1010300002900390049004216846FFF7B1FA17B0BC
:1010400000BD00002DE9F84F4FF00008B74BDFF866
:10105000E092DFF8E0A24FF00F0B07468E462BE040
:10106000B54CA74214BF072406248C402C4349F8F2
:101070002240C1431A68DEF804400A40E40348BF36
:1010800002431A605A68DEF804400A40A40348BFCD
:1010900002435A609A68DEF804400A40E40248BFFE
:1010A00002439A60DA680A40DEF80410890248BFF9
:1010B0000243DA6008F10108DEF8001031FA08F0A6
:1010C00000F09C80012202FA08F212EA0100F1D03D
:1010D000DEF80440022C18BF122C4FEA880111D10F
:1010E0004FEAD80407EB840C01F01C04DCF8205014
:1010F0000BFA04F6B543DEF8106006FA04F42C434C
:10110000CCF820404FEA480C03243D689EF8046068
:1011100004FA0CF4E44306F00306254006FA0CF644
:1011200035433D60D243DEF80450012D18BF022D37
:1011300003D0112D18BF122D11D1BD68DEF80C603F
:10114000254006FA0CF63543BD607D68DEF8046084
:10115000C6F30016154006FA08F635437D60DEF842
:10116000045005F00306032E07D1FE6AC5F3C0053F
:10117000324005FA08F52A43FA62FA681440DEF8AC
:10118000082002FA0CF22243FA60DEF80420D200B2
:1011900090D5DAF8002042F00102CAF8002001F0F0
:1011A0000C01DAF8002002F0010200920BFA01F5BE
:1011B000009A4FEA980259F8224024EA0505B7F14F
:1011C000904F08BF002418D05C4CA74208BF0124F0
:1011D00013D05B4CA74208BF02240ED0594CA74243
:1011E00008BF032409D0584CA74208BF042404D0E8
:1011F000564CA7427FF434AF052436E7BDE8F18FA3
:101200002DE9F84F89464FF0000A48494B4A484BB0
:101210004FF00F0805461DE0474FBD4214BF07279A
:10122000062707FA0CF7BE4212D153F8246026EACB
:101230000E0643F82460C0430C6804400C604C6800
:1012400004404C608C6804408C60CC682040C860CE
:101250000AF1010A39FA0AF051D0012000FA0AFE17
:101260001EEA0900F4D003264FEA4A0406FA04F401
:101270002E6826432E604FEADA0705EB87064FEA11
:101280008A0C376A0CF01C0B08FA0BFB27EA0B07D9
:101290003762E443AE682640AE606FEA0E076E68C0
:1012A0003E406E600CF00C0CEE683440EC6008FAC6
:1012B0000CFEEC6A3C40EC62B5F1904F4FEA9A04A8
:1012C00053F824600EEA060608BF0027A9D095420D
:1012D00008BF0127A5D01A4FBD4208BF0227A0D0E2
:1012E000184FBD4208BF03279BD0174FBD4208BF10
:1012F000042796D0154FBD428ED1052791E7BDE852
:10130000F18F0069084018BF0120C0B2704781B05A
:10131000002A14BF8161816201B070470C4A1368D2
:1013200003421CBF1060FFF7F5BD70470004014089
:101330000800014060100240001800480004004806
:1013400000080048000C0048001000480014004845
:1013500014040140002200F001B8000000B500BFF5
:10136000130096469446103928BFA0E80C50FAD8CE
:101370005FEA417C28BF0CC048BF40F8042BC90776
:1013800028BF20F8022B48BF00F8012B00BD000049
:101390002DE9F84F8246754E0020307070708346FC
:1013A000504600F0E9F802255FEA000803D000F09B
:1013B000DFF8441C07E0504600F0CEFA044600F087
:1013C000D7F80419641C9AF818010AF58C7950B3FF
:1013D000484600F0C1FA00F1030B0BEB04000830A3
:1013E000B4F5807F28BFC01CBBF5807F28BFC01C20
:1013F000B0F5807F0BD3C121B170F570010E317152
:10140000F071010C71710825010AB17104E0D1215C
:10141000B170F5703071052550A0711902780A700D
:10142000AD1C42784A7081207055B4F5807F3CBF76
:10143000912070559AF8180118B9715D41F040017A
:1014400071556D1C012070556D1C6F1CB4F5807FAB
:101450000AD3200E7055200CF0557F1C200AF05541
:101460007F1CF4557F1C00E074553DA0F1190278F3
:101470000A707F1C06F807807F1CB8F1000F0BD1A3
:10148000504600F069FA02465146F01900F080FA21
:10149000504600F061FAC71900F06AF802460AF1F6
:1014A0005001F01900F074FA00F062F8C7199AF8C8
:1014B0001801002838D0781CBBF5807F10D341215B
:1014C000F15507460120F0557F1C4FEA1B60F0558F
:1014D0007F1C4FEA1B40F0557F1C4FEA1B2003E0A6
:1014E0005121F15507460120F0557F1C1DA006F83B
:1014F00007B07F1CF11902780A707F1C0220F0559A
:101500007F1C19A0F11902780A70BF1C42784A703A
:10151000484600F021FA02464946F01900F038FA30
:10152000484600F019FAC7193246B9B2002000F057
:101530001EFBB0F5104F08D1BF1E380A307077700F
:1015400032460221002000F012FBB0F5104F0CBF14
:1015500001200020BDE8F28F000000005370000061
:101560005500000054000000656E000024000020BB
:101570000AF1500000F0F0B910B504460B220FF24A
:10158000382100F017FB08B9012010BD0C220FF222
:10159000382100F00DF908B9022010BD07220FF222
:1015A000382100F005F908B9032010BD08220FF218
:1015B000342100F0FDF808B9042010BD04220FF218
:1015C000302100F0F5F808B9052010BD07220FF210
:1015D000282100F0EDF808B9062010BD1A220FF2FC
:1015E000242100F0E5F808B9072010BD0A220FF207
:1015F000302100F0DDF808B9082010BD07220FF2F5
:101600002C2100F0D5F808B9092010BD07220FF2EF
:10161000282100F0CDF808B90A2010BD06220FF2EB
:10162000242100F0C5F808B90B2010BD06220FF2E6
:101630001C2100F0BDF808B90C2010BD06220FF2E5
:10164000142100F0B5F808B90D2010BD06220FF2E4
:101650000C2100F0ADF808B90E2010BD05220FF2E4
:10166000042100F0A5F808B90F2010BD09220FF2DF
:10167000FC1100F09DF808B9102010BD05220FF2F2
:10168000F81100F095F808B9112010BD07220FF2EB
:10169000F01100F08DF808B9122010BD04220FF2ED
:1016A000EC1100F085F808B9132010BD04220FF2E8
:1016B000E41100F07DF808B9142010BD04220FF2E7
:1016C000DC1100F075F808B9152010BD05220FF2E5
:1016D000D41100F06DF808B9162010BD05220FF2E4
:1016E000CC1100F065F808B9172010BD08220FF2E0
:1016F000C41100F05DF808B9182010BD0A220FF2DD
:10170000C01100F055F808B9192010BD09220FF2D8
:10171000BC1100F04DF808B91A2010BD0A220FF2D2
:10172000B81100F045F808B91B2010BD0B220FF2CC
:10173000B41100F03DF808B91C2010BD07220FF2CB
:10174000B41100F035F808B91D2010BD0B220FF2BE
:10175000B01100F02DF808B91E2010BD0B220FF2B9
:10176000B01100F025F808B91F2010BD0C220FF2AF
:10177000B01100F01DF808B9202010BD0C220FF2A6
:10178000B01100F015F808B9212010BD08220FF2A1
:10179000B01100F00DF808B9222010BD08220FF298
:1017A000AC1100F005F808B9232010BD002010BDD1
:1017B000204600F0FFB90000687474703A2F2F774C
:1017C00077772E000000000068747470733A2F2F32
:1017D0007777772E00000000687474703A2F2F001E
:1017E0000000000068747470733A2F2F000000002E
:1017F00074656C3A000000006D61696C746F3A00AA
:10180000000000006674703A2F2F616E6F6E796D64
:101810006F75733A616E6F6E796D6F75734000000E
:101820006674703A2F2F6674702E000066747073A1
:101830003A2F2F0000000000736674703A2F2F00BB
:1018400000000000736D623A2F2F00006E66733A3D
:101850002F2F00006674703A2F2F00006461763AD3
:101860002F2F00006E6577733A00000074656C6E70
:1018700065743A2F2F000000696D61703A00000016
:10188000727473703A2F2F000000000075726E3A68
:1018900000000000706F703A000000007369703A39
:1018A00000000000736970733A0000007466747081
:1018B0003A00000062747370703A2F2F000000002D
:1018C00062746C326361703A2F2F00006274676F2C
:1018D00065703A2F2F0000007463706F6265783A6C
:1018E0002F2F0000697264616F6265783A2F2F00B4
:1018F0000000000066696C653A2F2F0000000000B0
:1019000075726E3A6570633A69643A0000000000CF
:1019100075726E3A6570633A74616700000000008A
:1019200075726E3A6570633A7061743A0000000037
:1019300075726E3A6570633A7261773A0000000022
:1019400075726E3A6570633A0000000075726E3A07
:101950006E66633A0000000000F10103810704D0C5
:1019600010F8011B89B18107FAD10268B2F1013187
:10197000914311F0803F04BF50F8042FF6E710F8B0
:10198000011B11B110F8011BFBE7C01A70470000E2
:1019900062B38B0708D0521E11F8013B00F8013BDF
:1019A00000F024808B07F6D1830740F0208000BF31
:1019B000103A07D330B4B1E83810103AA0E8381024
:1019C000F9D230BC530724BFB1E80810A0E80810D2
:1019D00044BF51F8043B40F8043BD20724BF31F820
:1019E000022B20F8022B44BF0B7803707047121FA4
:1019F00017D35B0009D151F8043B20F8023B1B0CC4
:101A0000121F20F8023BF6D20BE051F8043B00F81D
:101A1000013B1B0A20F8023B1B0C121F00F8013B84
:101A2000F3D238BF121D521E24BF11F8013B00F83B
:101A3000013BF8D87047000038B5054600F087F93B
:101A4000052400F09FF9641EB0F5104F06D0002C5D
:101A5000F7D101E000F0B9F9002032BD00F0BCF987
:101A6000B0F5104FF8D100F0EDF9B0F5104FF3D10B
:101A70002A460F21002000F053F8B0F5104FE9D1AD
:101A8000687AA97A41EA00214748018000F09DF96F
:101A9000B0F5104FE0D1012032BDF8B5434F444AB4
:101AA00004463868052590420ED14FF6FF76B142C4
:101AB00010D100F076F901E0A9B259B9B0F5104F94
:101AC0000ED000F044F903E0A04201D10120F2BDA4
:101AD0000020F2BD00F056F9B0F5104F3544EBD1BF
:101AE00000F07AF9B0F5104FF2D1204600F0E5F998
:101AF000B0F5104FECD13C60E8E738B52B4C2C4DDD
:101B00002168814206D100F060F9B0F5104F05D18F
:101B1000256001E0A94201D1012032BD002032BD83
:101B200070B500F019F80FDD3246F621A0B200F0D2
:101B3000E0F900F016F802DDB0F5104FF4D0B0F582
:101B4000104F08D1290006D03246E9B2A0B2BDE854
:101B5000704000F0CEB970BD0D46F62D0446164615
:101B60007047F63DF634F636ADB2F62D704770B5D7
:101B7000FFF7F2FF0FDD3246F621A0B200F0EEF9DA
:101B8000FFF7EFFF02DDB0F5104FF4D0B0F5104FC6
:101B900008D1290006D03246E9B2A0B2BDE87040B3
:101BA00000F0DCB970BD00000C0000200000002037
:101BB000EFBEADDE0300002013F0030F09D0521E6C
:101BC00022BF13F8010B11F801CBB0EB0C00F3D0DE
:101BD000704711F0030F14D1121F22BF53F8040BEA
:101BE00051F804CB6045F7D0121D0AD200BA9CFA16
:101BF0008CFCB0EB0C0038BF6FF0000088BF0120F8
:101C00007047521E22BF13F8010B11F801CBB0EB45
:101C10000C00F6D0521C08BF1046704710B50246A3
:101C200046F2633012F8013B434083EA0313DBB210
:101C30001C0284EA102080EAC30080EA1310491EC7
:101C4000CBB2002BEED180B210BD38B50D000446EA
:101C500002D0FFF7E3FF20B9601910F8041D4078A7
:101C600008E005212046FFF7D9FF08B1122032BD58
:101C70006178A07840EA012032BD0EB4F0B5099C2D
:101C80000A9D064600202080F107DFF86C040AD583
:101C90000178491E8941C90F017001212180017815
:101CA00041F0020129700078010703D500F04BF8DC
:101CB00000212954B00704D500F045F89DF8141010
:101CC0002954700704D500F03EF89DF815102954EA
:101CD000300704D500F037F89DF816102954F006A7
:101CE00004D500F030F89DF817102954B00604D53B
:101CF00000F029F89DF81810295470060AD59DF8AF
:101D00001870208807993A462844FFF741FE20883A
:101D1000C0192080300604D500F015F89DF8201079
:101D20002954F0050CD52188C9B22846FFF776FF63
:101D300021886854491C4A1C89B22280000A6854D0
:101D4000F0BC5DF810FB2088411C2180704780B5F5
:101D500000F07DFA00F095FADFF8A00300210160A1
:101D60000171017300F11001816000F01AF8B0F503
:101D7000104F06D1032000F0D4F9BDE8014000F077
:101D8000FCBA01BD80B526218DF8001001206946FE
:101D900000F033FB18B900F0D0FA00B912E01120BE
:101DA00002BD80B50FF2F03000788DF80000694672
:101DB000012000F022FB18B900F0BFFA00B901E0E1
:101DC000112002BD4FF4104002BD80B500F0D5FADD
:101DD00000B9F7E7112002BD38B50FF2C031DFF8C6
:101DE0001C5386B0D1E9002304A80024C0E90023D5
:101DF000A42068702C700420A870EC700720287153
:101E00000722A86804A9FFF7C3FD2C7303A8DFF815
:101E1000F0420294019083B000F034F940F2FF10D8
:101E20000EBCFFF72AFF00F049F940B900F006FBAD
:101E300028B900F03FF910B900F04BF900E011208B
:101E400007B030BD1FB500F026F8032203E01FB530
:101E500000F021F801224A7000F05DF983B000F033
:101E600051F90EBCFFF709FFBDF80C002146C0B2C6
:101E700000F0C3FA60B900F0E1FA48B92146052044
:101E800000F0C8FA20B905212046FFF7DEFE00E089
:101E9000112004B010BDDFF86402DFF864420021B5
:101EA0000170E122A4214170002181700C21C170D8
:101EB0000221017181680A7070471FB5DFF83C127A
:101EC000DFF83C4200220A70030AA4224A70002272
:101ED0008A700C22CA7002220A718A6813705070CC
:101EE000029400F004F983B040F27F1000F0F6F89D
:101EF000B7E7F8B50E46154600F0E6F8FFE70A70BA
:101F000084B0B0224A70029400F0EFF883B00E73F0
:101F1000CDE9002340F29F10D1E90223CDE902234D
:101F20000EBCFFF7AAFE00F0C9F8A0B900F086FACF
:101F300088B9771D2146F8B200F06CFA58B9F9B2A9
:101F40002046FFF782FE07463246611C2846FFF70F
:101F50001FFD384600E0112005B0F0BD38B513462E
:101F600000F0A2F82971D6226A7084B0020AAA7021
:101F70000A46A8681946FFF70BFD00F091F883B0F8
:101F800000F086F80EBCFFF778FE00F097F8002806
:101F90003BD100F053FA002837D100F08BF805460A
:101FA00080B290BB207800F0C000C02826D1042168
:101FB0002046FFF74AFE122825D0F2208DF80000B7
:101FC000022160788DF801006846FFF727FE8DF842
:101FD00002006946000A8DF80300042000F00DFAA3
:101FE00080B900F02BFA68B96946052000F012FAB2
:101FF00040B905216846FFF728FE01E000F069F8C6
:10200000054600E01125A8B200E0112005B030BD62
:1020100038B5032884B0134603DC0A0018BF102A21
:1020200001D014202CE0354D00242C70E8702024C1
:102030006C702971040AAC70102A314C09D1A8685F
:102040001946FFF7A5FC00F02BF883B000F020F84C
:1020500006E000F025F883B000F014F840F23F10DD
:102060000EBCFFF70AFE00F029F840B900F0E6F9CF
:1020700028B900F01FF810B900F02BF800E011208B
:1020800005B030BD0ECD68460EC0296801607047AE
:102090000ECD68460EC02968016040F27F1070477F
:1020A00003A8029401907047144D154CE87000226B
:1020B0002A7070472146052000F0ACB9BDF80C002D
:1020C0002146C0B200F099B90C490D4CC8700022ED
:1020D000704705212046B8E540F21F10CDE90023E6
:1020E000D1E90223CDE902237047020A8A7003A8CE
:1020F0000190D1E90023704710000020440A00201D
:10210000540B0020CDE90023D0E90223CDE90223BE
:1021100040F27F10704703A902940191D0E9002397
:10212000704730B585B000F032F82546062DA8BFBF
:1021300014201EDA012000F0FDF8FFF74DFEFFF736
:1021400086FE00F020F89DF8000000F0F000044347
:102150008DF80040FFF77BFE00F00DF800F00FF85F
:102160000446032D02BFB4F5104F042000F0E2F83E
:10217000204605B030BD01AA1021032048E76A4679
:1021800001210420EAE66A4601210420B1E6044662
:1021900001A81021FFF7DEB852000000D27600003F
:1021A0008501010010B5FEB000F086F9FEF71AFFB8
:1021B000002000F08DF94848484C016841F00101C9
:1021C0000160026802F00102009201220099016898
:1021D00041F0020101603021006800F0020000902F
:1021E000009801910220002104900391029201A91C
:1021F0002046FEF727FF4FF48060019000F078F84A
:1022000000F0A8F90128FBD1012220212046FFF788
:102210007EF80FF2081090E81C0006A91AA881E8C1
:102220001C0007220FF20411FFF7C2FB29A04CA9E2
:1022300002780A7006A800F0C9F90128FAD1012233
:102240004FF480614FF09040FFF761F8FEE738B53A
:10225000234D244C2868A04204BF2846FEF7B7FB54
:102260000120E8602C600020A86068611E4868605A
:102270002846FEF75BFB18B1002000F049F9FEE7A5
:1022800031BD80B51448194A86B0016841F001019A
:1022900001604021006800F0010000900098019169
:1022A0000020032103900491029200F021F8002203
:1022B00003211720FEF7F2FA1720FEF70CFB80200F
:1022C0000190012100200291039000F011F807B065
:1022D00000BD0000000000004C1002400004004857
:1022E000540C0020005400408B29B0000000211045
:1022F00001A94FF09040FEF7A5BE00F081B910B5DE
:102300000446FEF78DFA206010BD10B5044640214A
:102310004FF09040FEF7F5FF207010BD68747470A8
:102320003A2F2F7777772E000000000073742E630A
:102330006F6D00005A49087070473EB5002001904B
:10234000009001A8FFF7DBFF564D01230122AC21CD
:102350002846FEF76FFC04466846FFF7D0FF00985A
:102360000199401AC82804D2002CEED103E01120B4
:102370003EBD002CFBD100203EBD70B5494D05F19E
:1023800040042078012801D1022070BD0121217074
:1023900021206070002060602A68434953684348E8
:1023A0000B40034353602820FFF7A7FF28684168CC
:1023B00041F480414160FEF733FA0646286881699E
:1023C0008A060ED4FEF72CFA801B0228F6D360682A
:1023D00040F02000606020216170002020701120FA
:1023E00070BD2021C161324829684A6802404A60B4
:1023F000202060700020207070BD38B504460D4666
:10240000FFF79BFF20B900F012F8FEF7FBFA00B1CE
:10241000112032BD38B504460D46FFF78EFF20B9B6
:1024200000F005F8FEF74AFB00B1112032BD012093
:10243000009023462A46AC211A4870477CB5184EB6
:102440001C4C30780025401E032806D8DFE800F039
:1024500002070D1CFFF771FFA0B1102076BD5020C0
:10246000FFF74BFF0EE0002CF7D06846FFF74DFF5B
:102470009DF8000000B96D1C641EEDB2052DF2DB65
:10248000002CEAD0002076BD6846FFF73EFF9DF89D
:102490000010012902D170780028FCD07570F1E796
:1024A0000E000020540C0020009800FCAC2000809E
:1024B00000E800FEFFFF0F0080B50320FEF7E1F902
:1024C0000F20FEF7B3F900F002F8002002BD7047BC
:1024D00010B586B0044600F02CF8200007D1DFF8D4
:1024E0006800016841F00101016000F026F80FF278
:1024F000600030F814000190012100200291039047
:102500000221DFF84800049100F00EF806B010BD7B
:102510000FF23C01DFF8343031F8101053F820008E
:102520000122FEF7F4BE049201A950F82400FEF740
:1025300089BD01A81421FEF70DBF006800F001005D
:1025400000900098704700004C10024004000020EA
:10255000200000001FB50F216846FFF76DFA012823
:1025600032D19DF800309DF8014024499DF80E209D
:10257000CA7344EA03249DF802300C808B709DF8E6
:1025800004409DF8033044EA03248C809DF8053014
:102590009DF8064044EA03249DF807300B72CC8076
:1025A0009DF808309DF80A404B729DF8093044EAC6
:1025B00003244C819DF80B309DF80C4044EA032421
:1025C0009DF80D308C818B7304B010BD70B500F098
:1025D0000EF80025012804D12046FEF7D9FE00F0B0
:1025E00002F8284670BD05467089FFF786BA034E8B
:1025F000044670890021FFF750BA00001400002043
:1026000038B50446FEF70CF914F1010F054618BF62
:10261000641CFEF705F9401BA042FAD331BD00004F
:102620000E48016841F47001016000220C490868FD
:1026300040F0010008608A600A480A6802400A60A7
:102640004FF48050C8600022086820F480200860A1
:102650008A614FF0006004490860704788ED00E02F
:1026600000100240FFFFF6EA08ED00E00000000065
:10267000000000000102030406070809A08601000B
:10268000400D0300801A060000350C0040420F0088
:1026900080841E0000093D0000127A000024F4002E
:1026A00000366E010048E801006CDC0219E050F8C9
:1026B000042BD30744BFA9F101039A18091F002373
:1026C000042942F8043BF9D25FEA817C134604D521
:1026D0004FF0000CA2F800C09B1CC90744BF0021AA
:1026E000197050F8041B0029E1D1704710B450F85C
:1026F000041B79B10268436802440830DC0744BF18
:10270000A9F10104E31852F8044B43F8044B091FE4
:10271000F9D1ECE710BC704710B50749794418317E
:10272000064C7C44163404E00A68081D11448847AE
:102730000146A142F8D110BD2C0000004C00000061
:102740004EF68851CEF20001086840F4700008602F
:10275000BFF34F8FBFF36F8F4FF00070E1EE100AA1
:102760007047000049FFFFFF900C0000140000209C
:102770000000000079FFFFFF140000007800000057
:10278000000000200000000000F00DF8002801D03B
:10279000FFF7C2FFAFF300800020AFF30080FFF728
:1027A00001FD00F002F80120704700F001B80000C0
:1027B0000746384600F002F8FBE7000080B5AFF3AB
:1027C0000080024A11001820ABBEFBE72600020081
:1027D0007047FEE770477047704700F003B840202D
:1027E000FEF79CBD02480168491C0160704700BFAC
:1027F000A00C0020EFBEADDE0000004800093D0047
:10280000ADDE01000100000001488047014800479B
:102810002126000819280008AFF30080FFF790FF79
:10282000FFF7B2FFFFF7FEBFFFF7FEBFFFF7FEBFE8
:10283000FFF7FEBFFFF7FEBFFFF7FEBFFFF7FEBFCC
:10284000FFF7FEBFFFF7FEBFFFF7FEBFFFF7FEBFBC
:10285000FFF7FEBFFFF7FEBFFFF7FEBFFFF7FEBFAC
:10286000FFF7FEBFFFF7FEBFFFF7FEBFFFF7FEBF9C
:10287000FFF7FEBFFFF7FEBFFFF7FEBFFFF7FEBF8C
:10288000FFF7FEBFFFF7FEBFFFF7FEBFFFF7FEBF7C
:10289000FFF7FEBFFFF7FEBFFFF7FEBFFFF7FEBF6C
:1028A000FFF7FEBFFFF7FEBFFFF7FEBFFFF7FEBF5C
:1028B000FFF7FEBFFFF7FEBFFFF7FEBFFFF7FEBF4C
:1028C000FFF7FEBFFFF7FEBFFFF7FEBFFFF7FEBF3C
:1028D000FFF7FEBFFFF7FEBFFFF7FEBFFFF7FEBF2C
:1028E000FFF7FEBFFFF7FEBFFFF7FEBFFFF7FEBF1C
:1028F000FFF7FEBFFFF7FEBFFFF7FEBFFFF7FEBF0C
:10290000FFF7FEBFFFF7FEBFFFF7FEBFFFF7FEBFFB
:10291000FFF7FEBFFFF7FEBFFFF7FEBFFFF7FEBFEB
:10292000FFF7FEBFFFF7FEBFFFF7FEBFFFF7FEBFDB
:10293000FFF7FEBFFFF7FEBFFFF7FEBFFFF7FEBFCB
:10294000FFF7FEBFFFF7FEBFFFF7FEBFFFF7FEBFBB
:10295000FFF7FEBFFFF7FEBFFFF7FEBFFFF7FEBFAB
:10296000FFF7FEBFFFF7FEBFFFF7FEBFFFF7FEBF9B
:0400000508002819AE
:00000001FF
