:020000040800F2
:10000000A8100020B52900087129000873290008EC
:1000100000000000000000000000000000000000E0
:10002000000000000000000000000000752900082A
:100030007729000800000000792900087B290008C2
:100040006B080008F3080008632600084F29000821
:100050005B290008B1290008D1290008832900087C
:10006000D3290008D5290008D7290008D929000874
:10007000DB290008DD29000800000000DF29000856
:1000800000000000E129000800000000000000005E
:10009000E329000800000000E5290008E72900081E
:1000A000E9290008EB290008ED290008EF290008DC
:1000B000F1290008F3290008F5290008F7290008AC
:1000C000F1B582B0A34C0078C00700D465E10C21E3
:1000D0008025AD02E0680840082807D06808E2687B
:1000E00011400C290BD1E168014008D0206805407F
:1000F00037D002984068002825D10120FEBD029922
:100100004968814207D0A022D2029142216806D1DB
:1001100082000A4322602168084320600AE08E4A78
:100120000A402260216808400090009820688B49AE
:10013000014021600298406800280DD000F060FB6B
:1001400006002068284000D027E100F059FB801B02
:100150006528F6D30320FEBD00F052FB06002068A0
:10016000284000D119E100F04BFB801B6528F6D335
:10017000F0E70298C068002811D021680922914355
:100180000843206000F03CFB06002068384000D0A7
:100190001EE100F035FB801B0228F6D9DAE7206863
:1001A00001218843206000F02BFB050020683840C7
:1001B00000D114E100F024FB401B0228F6D9C9E766
:1001C00061680D4028436060606807400298006ADB
:1001D0000006384360600298406A00F0D3FA0028B5
:1001E0008BD101200299496A490B491C8840C00300
:1001F000A449E2681206120F895CC840A24908604F
:10020000032000F003FB02980078000700D414E1FB
:10021000029840690028206D35D0012101432165F5
:1002200000F0EEFA06000225206D284000D004E11F
:1002300000F0E6FA801B0228F6D98BE70298C06925
:10024000002820680FD0A10D0143216000F0D8FAEA
:1002500006002068800500D518E100F0D1FA801B67
:100260000228F6D976E7BF490140216000F0C8FABC
:100270000600650D20682840C5D000F0C1FA801B3B
:100280000228F7D966E701218843206500F0B8FA13
:1002900006000225206D284000D1CEE000F0B0FA23
:1002A000801B0228F6D955E7AF4800290BD0A022C1
:1002B000D200914207D1206D210D01432165206DAF
:1002C0000543256506E0216DA64A0A402265216D99
:1002D0000840206502988068002810D000F090FA4D
:1002E000A2490091660D0500206D304000D0E1E08C
:1002F00000F086FA401B00998842F5D32AE700F007
:100300007FFA9A4E0500206D800500D4D2E000F0FF
:1003100077FA401BB042F6D31CE700F071FA801B5D
:10032000022800D8E5E015E7A16801229143A16009
:1003300001688F4A0A40026000F062FA0600022556
:10034000A068284000D1D8E000F05AFA801B0228AB
:10035000F6D9FFE600100240FFFFFEFFFFFFFBFFA4
:1003600000F04EFA801B022800D8DCE0F2E600F034
:1003700047FA801B022800D8EDE0EBE6014021603F
:1003800000F03EFA06002068284000D1E7E000F0C7
:1003900037FA801B0228F6D9DCE60298007880073D
:1003A0001DD5744D0C200427E1680140042908D0B4
:1003B000E16808400C2800D0DBE6E068C00300D507
:1003C000D7E62068074003D00298C068012824D1EE
:1003D0006068054002980069000228436060029846
:1003E0000078C0065FD5644F644DE0680C21014081
:1003F00000D023E72068800504D50298C069002852
:1004000000D17AE60298406A6168EA430A40824273
:1004100000D3D5E600F0B6F9002800D06DE660689C
:1004200005400298406A284360606068074002986F
:10043000006A000638436060D3E6029800784007FF
:100440003ED5002780204005A16B014003D1A16B60
:100450000843A0630127A50DA4480068284023D1C4
:10046000A24801682943016000F0CAF906009F48CC
:100470000068284018D100F0C3F9801B6528F6D326
:1004800068E600BF502800080800002060680540AA
:100490000298406A28436060606807400298006ADA
:1004A000000638436060AEE602988168A94200D039
:1004B000FAE604E7002F03D0A06B8D490140A16349
:1004C00002980078800618D58A480299896900291F
:1004D00000D129E70121A2680A43A260626B11439F
:1004E00061630168420C0A43026000F089F906006A
:1004F0000225A068284000D10FE70298806A0028F2
:100500002DD0E1680C220A400C2A00D1F5E58025A7
:10051000AD0494490228206800D02FE701402160F3
:1005200000F06EF906002068284000D018E7E06867
:100530008D4901400298C06A08430299096B014342
:100540000298406B0843E06020686908014321601D
:1005500000F056F906002068284000D107E7002087
:10056000FEBD0000FFFEFFFFFFFBFFFF8913000041
:10057000FFDFFFFFFFE0FFFFFFFFFF00FF1FFFFFA9
:10058000F2B582B00127FF43012478490968214070
:10059000029A91420AD275490A683A40029B134373
:1005A0000B6009682140029A914220D10090704D61
:1005B0000078800706D5E868F021884300998968AB
:1005C0000143E96000980068204071D000984068BD
:1005D000022802D12968890308E0032802D129688A
:1005E000890103E00128296802D1490702D46FE09C
:1005F00089056DD5E968032291430843E86000F05E
:10060000FFF80600009840685A49019102280CD171
:10061000E8680C21014008294AD000F0F1F8801B5D
:1006200001998842F4D30320FEBD03280BD1E8686A
:100630000C2101400C293BD000F0E2F8801B01990D
:100640008842F4D3EFE70191012843D1E8680C21F7
:10065000014004292CD000F0D3F8801B0199884276
:10066000F4D3E0E700980078400706D5E8684249EF
:1006700001400098C0680843E860009800780007CF
:1006800007D5E8683D49014000980069C00008436B
:10069000E86000F031F83A49EA681206120F895C06
:1006A000C84050490860032000F0B0F80020FEBDAB
:1006B0002E480299026822409142D3D201680F402D
:1006C0000299394301600068044002988442C9D00D
:1006D0000120FEBDE8680C210140E9D000F090F84F
:1006E000801B01998842F5D39DE70000007000400F
:1006F000FFFFFFEF20000140F0B51D4DE9683B4AC8
:100700009308102654080C200840042804D0082818
:1007100009D00C2809D01DE02868064001D0180037
:10072000F0BD1000F0BD2000F0BD31488F023F0F3A
:10073000C05D0902890F491CEF68FF0301D56043C2
:1007400005E02C68264001D0584300E0504300F0FB
:1007500071F8F0BD686801210004400F401C814021
:10076000C803F0BDFFFFFFFEFFFF02FF00200240B5
:100770000010024089130000FFF8FFFFFFC7FFFFD2
:1007800050280008F0B500210122174B1C68F02505
:10079000254018D1C0246401174D1607DF6A374081
:1007A00002D02D68254008E0DF6A3E43DE622D68F6
:1007B0002540DE6A114F3740DF62A54203D1E300D6
:1007C000984200D101210B4803680124A3430B4345
:1007D0000360006802408A4201D00120F0BD002081
:1007E000F0BD0000080000200C1002400024F400BE
:1007F000602800080020024000700040FFFFFFEF6B
:1008000001480068704700BFA00C002010B504002C
:1008100007480068FA21890000F00CF800F04BF856
:10082000002221000020C04300F03AF8002010BD53
:1008300008000020094214D088420FD30122030C83
:1008400001D100041204002300185B418B4200D345
:100850005B1A5241F8D319001000704701000020C4
:10086000704708B500F044F808BDFEE718B5C200AF
:1008700018231340FF249C40E2438907090E994046
:10088000002804D5164B0007000F083800E0154B70
:1008900080088000181803681A401143016011BDD8
:1008A00080B5FFF7E3FF01BD0121C006C00E814006
:1008B0000D480160704710B5401E802149048842F0
:1008C00001D3012010BD094C606003210020C0430A
:1008D000FFF7CCFF0020A0600721216010BD0000C1
:1008E0001CED00E000E400E000E100E010E000E0CA
:1008F0007047FEE770B5040001D1012070BD2500EE
:10090000403500266878002803D12E70200000F0C2
:1009100049FB24206870206801680122914301602E
:100920006068C5490140206801612168C3488A6840
:1009300002408A60E1680129A16801D1C24301E057
:10094000842212020A4321688A60E168022903D1E5
:10095000802109012268516021684A68B84B13431D
:100960004B602168CA681040C86020696169014312
:10097000A069000208432168C860E069216A014358
:10098000206801602068016801220A4302606E60ED
:10099000202068702663AE70002070BD38B504005A
:1009A00001D1012032BD2500403524206870206827
:1009B0000168012291430160200000F024FB002027
:1009C000686068702063A870287032BDFEB50400AE
:1009D0000F0016001D0040304078202879D14020BB
:1009E000205C012875D0012040216054FFF708FFEA
:1009F0000190009019230122D103200000F0D0F9CA
:100A0000002863D1210040312120487010208870D7
:100A1000002048606662658560638A48618DFF29B1
:100A20000CD9FF212185009080235B04FF2239002F
:100A3000200000F098FA089E019D11E0628D228549
:100A4000009080239B04D2B2F1E7FF202085002094
:100A5000009080235B04FF223900200000F083FA1D
:100A6000608D002837D02A003100200000F0C2F944
:100A7000002805D0200040304068042826D136E008
:100A8000606A411C61620078216888626E48618DED
:100A900009186185218D081820850004E0D1608D3A
:100AA0000028DDD00095330000228021200000F0D6
:100AB00077F900280AD1608DFF28C6D8628D22857B
:100AC0000020009080239B04D2B2C5E70320FEBD26
:100AD000A2E00220FEBD31002A00200000F0B1F9A2
:100AE0000028F5D02000403040680428EED10120D5
:100AF000FEBDFEB504000F0016001D00403040781A
:100B0000202879D14020205C012875D00120402187
:100B10006054FFF775FE0190009019230122D10364
:100B2000200000F03DF9002863D12100403122204F
:100B30004870102088700020486066626585606398
:100B40004248618DFF290CD9FF2121850090802327
:100B50005B04FF223900200000F005FA089E019D89
:100B600011E0628D2285009080239B04D2B2F1E7D0
:100B7000FF2020850020009080235B04FF223900A5
:100B8000200000F0F0F9608D002837D02A003100F5
:100B9000200000F07DF9002805D02000403040689A
:100BA000042826D136E0606A411C61622168496AE6
:100BB00001702548218D09182185628D10186085E6
:100BC0000904E0D1608D0028DDD0009533000022BB
:100BD0008021200000F0E4F800280AD1608DFF2871
:100BE000C6D8628D22850020009080239B04D2B25B
:100BF000C5E70320FEBD0FE00220FEBD31002A0044
:100C0000200000F01EF90028F5D020004030406898
:100C10000428EED10120FEBD20202168C861216892
:100C20004A680B4B13404B60210040314870002054
:100C300088700870FEBD0000FFFFFFF0FF7FFFFF20
:100C40000080000200200080FFFF000000240080E0
:100C500000E800FEF0B587B00400002003902000FB
:100C600040304078202851D12068806900044DD45C
:100C70004020205C012849D001930492200040309C
:100C80000122027024224270002242608805800DF9
:100C9000A02189010143069138490143059120278C
:100CA000E068012801D1059800E00698019D2168BF
:100CB0004860FFF7A5FD060020688169394028D10A
:100CC0008169C90625D4210040314978A02920D066
:100CD0000020C0438542EFD0002D48D0FFF790FDA3
:100CE000801B8542E8D242E000222021200000F053
:100CF00057F8002808D12068C761200040304770AD
:100D000000210170002002E0032000E0022007B073
:100D1000F0BD019502961025806928400096019B40
:100D2000E2D000222021200000F03AF80028EBD188
:100D30002068C5612068C7610398411C039104992C
:100D4000884210D120684168AA020A434260029892
:100D50000090019B00222021200000F021F80028B3
:100D6000D2D12068C76103980499884298D32000A3
:100D70004030477000210170C6E7000000200002EB
:100D800081B000688169890701D500218162012154
:100D900082690A4002D182691143816101B07047C2
:100DA000F8B51400069A0094002405000F001E00F8
:100DB0000692286880693840B84201D1012000E0DD
:100DC00000200099884213D10020C0438642F0D011
:100DD000002E05D0FFF714FD0699401A8642E8D28E
:100DE0002800403020214170847004700320F2BD3F
:100DF0000020F2BDF8B5022704000D00160020689F
:100E0000806938401BD132002900200000F075F8BD
:100E1000002801D00120F2BD0020C0438542EED061
:100E2000002D04D0FFF7ECFC801B8542E7D22000A8
:100E30004030202142680A434260417023E0002094
:100E4000F2BDF8B5202504000E0017002068806967
:100E5000284016D13A003100200000F04EF800285A
:100E60000DD1002E04D0FFF7CBFCC01B8642EDD283
:100E700020004030416829434160457003E0012073
:100E8000F2BD0020F2BD0021817001700320F2BD8F
:100E9000F8B5202504000E0017002068806940077F
:100EA00028D43A003100200000F027F800281FD194
:100EB0002068816929400ED1002E04D0FFF7A0FCE4
:100EC000C01B8642E9D2200040304168294341607E
:100ED00045700021D9E7C561206841682A4A0A4067
:100EE00042602000403000214160457081700170F7
:100EF0000120F2BD0020F2BD0000F8B51024036807
:100F00009B69234017D005000F0000922026286817
:100F10008169314011D10020C0438742F7D0002FB2
:100F200005D0FFF76DFC0099401A8742EFD22800E8
:100F300040304670A7E70020F2BDC4612868C66152
:100F40002800FFF71DFF286841680F4A0A404260E9
:100F500028004030042141604670002181700170FA
:100F60000120F2BD0000F0B5059C00684568660DE3
:100F7000064F3743BD438905890D294312040A43AF
:100F800013431C434460F0BD00E800FEFF63FF0311
:100F9000402806D141480078042802D10120404968
:100FA00008707047F8B586B002213E4802680A43CF
:100FB000026002680A400592059A02680A430260CC
:100FC0000268114005910599C168802292030A4385
:100FD000C260800D0090122701970026029603241C
:100FE00003940425049569462F4800F069F8E80148
:100FF0000090019702960394049569462A4800F0F0
:101000005FF807B0F0BD10B5284801688022920350
:101010000A4302600168264A0A400260224C810DA0
:10102000200000F018F980218900200000F013F959
:1010300010BD10B59CB01F480168802252050A43BC
:1010400002601D4801681D4A0A40C10C114301603D
:101050000220059000240694012108910F9010941D
:1010600040041190000112901020099005A8FFF78C
:1010700027F80F2000900320019002940394049419
:1010800001216846FFF77CFA08201390400219906E
:1010900013A800F08DF91CB010BD00000E00002058
:1010A0000F0000202C1002400004005028100240C5
:1010B000FFFFDFFF3810024000700040FFE7FFFF36
:1010C000F0B585B000220F23049332E0062303E03D
:1010D000A24B9842FAD105233C46A3402B43029CE5
:1010E0002360AC4B1D68019EF44325404E68F60317
:1010F00002D52E00019D35431D605D6825404E6878
:10110000B60302D52E00019D35435D609D682540E4
:101110004E68F60202D52E00019D35439D60DD68C4
:101120002C404D68AD0202D52500019C2C43DC60AB
:10113000521C0C682300D34000D18AE00123012512
:101140009540039525400195019C002CF0D06C46FC
:10115000950065704C68022C01D0122C13D1D40874
:10116000A4000419256A6E4677781C263E406F4617
:101170003E70049E3F78BE40B5430E696F463F788F
:10118000BE402E4326626C465500257003246D46F2
:101190002D780326AE40F54302954D68012D05D00C
:1011A000022D03D0112D01D0122D11D18668029D80
:1011B0003540CE686F463F78BE402E438660456816
:1011C000039EB5434E6836091E4096402E43466046
:1011D0000668029D35404E6826406F463F78BE4007
:1011E0002E430660C668029D35408E686F463F7884
:1011F000BE402E43C6604D68ED0099D5664D2E6801
:101200001E432E60654D9608B600AD1902952D68F7
:1012100003956D466E4676780C2737402F70039DF8
:10122000049E6F463F78BE40B543A026F605B04207
:1012300001D1002350E75A4EB042FBD0594B98429F
:1012400001D1022348E7584B984200D040E70323DE
:1012500042E705B0F0BDF0B587B04E4B01930F23C8
:1012600005930691002124E0062203E03B4A9042C8
:10127000FAD105226B461B789A40954218D1226814
:10128000B2432260049BDA43019B1B681340019C1C
:101290002360019B5B681340019C6360019B9B681A
:1012A0001340019CA360019BDB681A40019BDA603C
:1012B000491C069ACA404FD0012201238B40039358
:1012C000069B039C1C400494049B002BF0D04C0014
:1012D0000325A5400295046825430560CC08A400B9
:1012E00004196D468E002E70266A059FBC462F7825
:1012F0001C253D406746AF40BE432662029DEC433D
:101300008568254085604568039EB5434560C5688E
:101310002C40C460214C8D08AD00641925686E46D0
:1013200037780C263E406F463E70059E3F78BE40A3
:101330003540A027FF05B84201D100229AE7184F97
:10134000B84297D0174A904201D1022292E7164A3A
:1013500090428BD103228DE707B0F0BD001C0050F6
:101360000069084000D00120C0B2704781B0002A57
:1013700001D0816100E0816201B070470B4A1368BF
:10138000034000D1704780B51060FFF701FE01BD3A
:101390000000000000040140341002400800014039
:1013A0000004005000080050000C005014040140DC
:1013B000FEB504005D4D20688221090101407DD009
:1013C0000020009080204005A96B014004D1A96B4A
:1013D0000843A86301200090554F3868C0053ED4EB
:1013E0003868A90D01433960FFF70AFA060038682A
:1013F000C00534D4FFF704FA801B6528F7D3032017
:10140000FEBD296D394041D03840814202D020785C
:10141000800606D4A0683840814237D02068000595
:1014200034D5296D43480840296D802212030A43B0
:101430002A65296D404A0A402A652865C00525D5D8
:10144000FFF7DEF93D4901910600286D80051DD4A6
:10145000FFF7D6F9801B01998842F6D3CFE7C02168
:1014600089032A680A4060680F0901408A4204D152
:10147000A1683B010B409A42C3D039000140B942F8
:10148000BFD129688903BCD50120FEBD6068390041
:101490000140B94206D12968294A0A403901014070
:1014A00011432960286D61680F4007432F6500983C
:1014B000002803D0A86B23490140A9632078C00706
:1014C00005D5E86C03218843E1680143E96420788D
:1014D000800705D5E86C0C21884321690143E96444
:1014E0002078400705D5E86C17490140606908433A
:1014F000E8642078000705D5E86C14490140A0692C
:101500000843E8642078400605D5E86C104901409E
:10151000206A0843E8642078000605D5E86C0D4988
:101520000140E0690843E8640020FEBD001002406D
:1015300000700040FFFFFCFFFFFFF7FF8913000072
:10154000FFFFCFFFFFFFFFEFFFF3FFFFFFCFFFFF27
:10155000FFFFFFFBFFFFF3FFF1B582B00027704CE8
:10156000277067700225029800F0E4F801900028C7
:10157000029804D0503000F0D7FA461C08E000F082
:10158000D3FA06000298503000F0CEFA3618761CD6
:1015900002988C214900401800900078002826D03D
:1015A000009800F0C1FAC71CF0190830E9018E421A
:1015B00000D3C01C8F4200D3C01C88420BD3C12172
:1015C000A170E570010E2171010C6171010AA17118
:1015D000E071082504E0D121A170E5702071052596
:1015E00050A0611902780A7042784A70AD1C6019E7
:1015F00081210170FF2E01D8912101700099097895
:10160000002903D1017840220A4302706D1C012099
:1016100060556D1C60196D1CFF2E0AD9310E0170CA
:10162000300C60556D1C300A60556D1C66556D1C84
:1016300000E006703CA0611902780A706D1C0198E8
:1016400060556D1C019800280BD1029800F06CFACF
:1016500002000299601900F06FFA029800F064FA33
:101660002D180298503000F05FFA020002995031B4
:10167000601900F061FA0298503000F055FA2D1808
:1016800000980078002832D060196D1CFF2F0CD90B
:1016900041210170012060556D1C380E60556D1C94
:1016A000380C60556D1C380A02E051210170012090
:1016B00060556D1C67556D1C1CA0611902780A707D
:1016C0006D1C022060556D1C19A0611902780A700A
:1016D00042784A70AD1C009800F026FA020000998A
:1016E000601900F029FA009800F01EFA2D18220067
:1016F000A9B2002000F0DEFA90263602B04208D1EE
:10170000AD1E280A2070657022000221002000F022
:10171000D1FAB04201D10120FEBD0020FEBD000083
:101720002400002053700000550000005400000009
:10173000656E000010B504000B22AA4900F0E2FA21
:10174000002801D1012010BD0C22A749200000F083
:10175000D9FA002801D1022010BD0722A349200098
:1017600000F0D0FA002801D1032010BD0822A049C2
:10177000200000F0C7FA002801D1042010BD042287
:101780009C49200000F0BEFA002801D1052010BDC0
:1017900007229949200000F0B5FA002801D106205F
:1017A00010BD1A229549200000F0ACFA002801D1A2
:1017B000072010BD0A229249200000F0A3FA002859
:1017C00001D1082010BD07228E49200000F09AFAAE
:1017D000002801D1092010BD072200BF8AA12000E6
:1017E00000F090FA002801D10A2010BD062200BFA7
:1017F00088A1200000F086FA002801D10B2010BD3E
:10180000062200BF85A1200000F07CFA002801D14B
:101810000C2010BD062200BF82A1200000F072FA49
:10182000002801D10D2010BD062200BF7FA120009D
:1018300000F068FA002801D10E2010BD052200BF7B
:101840007CA1200000F05EFA002801D10F2010BD1D
:10185000092200BF79A1200000F054FA002801D12C
:10186000102010BD052200BF77A1200000F04AFA29
:10187000002801D1112010BD072200BF74A1200053
:1018800000F040FA002801D1122010BD042200BF50
:1018900072A1200000F036FA002801D1132010BDFB
:1018A000042200BF6FA1200000F02CFA002801D113
:1018B000142010BD042200BF6CA1200000F022FA09
:1018C000002801D1152010BD052200BF69A120000C
:1018D00000F018FA002801D1162010BD052200BF23
:1018E00066A1200000F00EFA002801D1172010BDDB
:1018F000082200BF63A1200000F004FA002801D1F3
:10190000182010BD0A2200BF61A1200000F0FAF9E2
:10191000002801D1192010BD092200BF5FA12000BD
:1019200000F0F0F9002801D11A2010BD0A2200BFF2
:101930005DA1200000F0E6F9002801D11B2010BDB8
:101940000B2200BF5BA1200000F0DCF9002801D1D0
:101950001C2010BD072200BF5AA1200000F0D2F9C0
:10196000002801D11D2010BD0B2200BF58A120006E
:1019700000F0C8F9002801D11E2010BD0B2200BFC5
:1019800057A1200000F0BEF9002801D11F2010BD92
:101990000C2200BF56A1200000F0B4F9002801D1AC
:1019A000202010BD0C2200BF55A1200000F0AAF994
:1019B000002801D1212010BD082200BF54A1200021
:1019C00000F0A0F9002801D1222010BD082200BF9C
:1019D00052A1200000F096F9002801D1232010BD6B
:1019E000002010BD782700088827000898270008E5
:1019F000A4270008B0270008B8270008C42700085B
:101A0000E0270008EC270008736674703A2F2F0057
:101A100000000000736D623A2F2F00006E66733A6B
:101A20002F2F00006674703A2F2F00006461763A01
:101A30002F2F00006E6577733A00000074656C6E9E
:101A400065743A2F2F000000696D61703A00000044
:101A5000727473703A2F2F000000000075726E3A96
:101A600000000000706F703A000000007369703A67
:101A700000000000736970733A00000074667470AF
:101A80003A00000062747370703A2F2F000000005B
:101A900062746C326361703A2F2F00006274676F5A
:101AA00065703A2F2F0000007463706F6265783A9A
:101AB0002F2F0000697264616F6265783A2F2F00E2
:101AC0000000000066696C653A2F2F0000000000DE
:101AD00075726E3A6570633A69643A0000000000FE
:101AE00075726E3A6570633A7461670000000000B9
:101AF00075726E3A6570633A7061743A0000000066
:101B000075726E3A6570633A7261773A0000000050
:101B100075726E3A6570633A0000000075726E3A35
:101B20006E66633A00000000010000E0491C0A787C
:101B3000002AFBD1081A7047124207D08B0706D043
:101B40000B78491C0370401C521EF7D8704783075E
:101B500006D00B78491C0370401C521EF9D1704707
:101B600070B4103A03D378C9103A78C0FBD2530747
:101B700001D318C918C001D508C908C0D20704D3B9
:101B80000B880380891C801C002A01D50B78037008
:101B900070BC704770B5050000F067F90526902409
:101BA000240200F07BF9761EA04206D0002EF8D168
:101BB00001E000F09AF9002070BD00F0A1F9A04208
:101BC000F9D100F0E1F9A042F5D12A000F2100205F
:101BD00000F050F8A042ECD1687A0002A97A0843DC
:101BE0004449088000F081F9A042E4D1012070BD91
:101BF000F8B50400052640480268404882420ED1EC
:101C000090252D023E4FB9420FD100F059F901E065
:101C100031040AD1A8420DD000F027F903E0A24216
:101C200001D10120F2BD0020F2BD00F037F9F61914
:101C3000A842EDD100F064F9A842F4D1200000F0F0
:101C4000ECF9A842EFD12C480460EAE738B52A4CF9
:101C500021682A4D814207D100F047F990210902FD
:101C6000884205D1256001E0A94201D1012032BDA1
:101C7000002032BD70B506001400F62914DD0D00F9
:101C80002200F621B0B200F0E2F9F636F634F63D65
:101C900090231B02ADB2F62D01DD9842F0D0290051
:101CA000984206D10A0004D02200C9B2B0B200F0B6
:101CB000CEF970BD70B506001400F62914DD0D00D4
:101CC0002200F621B0B200F005FAF636F634F63D01
:101CD00090231B02ADB2F62D01DD9842F0D0290011
:101CE000984206D10A0004D02200C9B2B0B200F076
:101CF000F1F970BD0C00002000000020EFBEADDE49
:101D0000FFFF000010B402E0401C491C521E002AD4
:101D100009D00B7804789C42F6D002D20020C04350
:101D200002E0012000E0002010BC704710B5020066
:101D3000CA481378521C04005C4023016340DBB2A4
:101D4000000A1C024440D80060401B095840491E4C
:101D50000B06EED180B210BD38B505000C0003D0E3
:101D6000FFF7E4FF002805D12919091F08780002B0
:101D700049780AE005212800FFF7D8FF002801D0A4
:101D8000122032BD68780002A978084332BD0EB433
:101D9000F0B50600099C0A9D002020800221B04B6E
:101DA000F2070AD51A78521E9241D20F1A700122F8
:101DB00022801A78022717432F7008221F781742B3
:101DC00003D023885F1C2780E8540E4205D020886A
:101DD000411C21806946097D2954700705D520885A
:101DE000411C218005A949782954164205D0208834
:101DF000411C218005A989782954F00605D5208841
:101E0000411C218005A9C9782954B00605D5208830
:101E1000411C218005A90979295470060AD505A815
:101E200007793A00079920882818FFF785FE20884F
:101E3000C0192080300605D52088411C218005A9C5
:101E4000097B2954F0050CD52188C9B22800FFF779
:101E50006DFF21886854491C4A1C2280000A89B2FF
:101E600068540498F0BC04B0004780B500F084FAD0
:101E700000F09DFACD48002101600171017301005D
:101E80001031816000F01CF890210902884204D1D1
:101E9000032000F0E5F900F006FB01BD80B5262027
:101EA00069460870012000F046FB002806D100F0CA
:101EB000DAFA002802D19020000202BD112002BDF2
:101EC00080B5684608A10A7802706946012000F0D2
:101ED00032FB002806D100F0C6FA002802D190207B
:101EE000000202BD112002BD520080B500F0DBFAF5
:101EF000002802D19020000202BD112002BD000086
:101F000038B586B004A800BF1DA10CC90CC00024C0
:101F1000A64D2C70A42068700420A870EC700720D7
:101F20002871072204A9A868FFF706FE2C73A04CAD
:101F3000029403A8019083B068460ECD0EC02968B4
:101F400001600EBCC348FFF722FF2100684680896C
:101F5000C0B200F0F0FA00280ED100F012FB002809
:101F60000AD12100052000F0F9FA002804D105214A
:101F70002000FFF7F1FE00E0112007B030BD0000A7
:101F8000D2760000850101001FB50021874801704D
:101F9000A422427081700C21C170022101718168FC
:101FA000E1220A7003220EE01FB500217F48017074
:101FB000A422427081700C21C170022101718168DC
:101FC000E1220A7001224A70794C029403A901911E
:101FD00083B069460CC80CC10CC80CC10EBCFF20F4
:101FE0008030FFF7D4FE210068468089C0B200F03F
:101FF000A2FA00280ED100F0C4FA00280AD121006C
:10200000052000F0ABFA002804D105212000FFF7DD
:10201000A3FE00E0112004B010BD1FB500226349EB
:102020000A70A4234B708A700C22CA7002220A71B3
:102030008A68030A137050705D4C029403A80190E3
:1020400083B068460CC90CC00CC90CC0C6E7F8B513
:1020500084B00D0016005549002203E063630000C0
:10206000100000200A70B0224A70020A8A70C870FC
:102070000D734F4C029403A8019083B068460CC9BD
:102080000CC00CC90CC00EBCFF20A030FFF77FFEB7
:10209000210068468089C0B200F04DFA002816D1B0
:1020A00000F06FFA002812D16F1D2100F8B200F085
:1020B00055FA00280BD1F9B22000FFF74DFE0700BA
:1020C0002A00611C3000FFF737FD380000E01120C6
:1020D00005B0F0BD38B584B01300344D00222A702D
:1020E000D6226A70020AAA70E87029710A001900E3
:1020F000A868FFF721FD2E4C029403A8019083B03D
:1021000068460ECD0EC0296801600EBCFF208030ED
:10211000FFF73DFE210068468089C0B200F00BFA4F
:1021200000283FD100F02DFA00283BD121000520E6
:1021300000F014FA0500000434D12078C0210140D9
:10214000C02926D104212000FFF706FE122827D03F
:102150006D46F22028706078687002216846FFF7AB
:10216000E5FDA870000AE8706946042000F0E3F974
:10217000002814D100F005FA002810D16946052086
:1021800000F0ECF900280AD105216846FFF7E4FDCC
:1021900003E005212000FFF7DFFD050000E0112529
:1021A000A8B200E0112005B030BD0000440A0020B4
:1021B000540B002038B584B00B001100032803DC59
:1021C0001A0003D0102A01D0142041E0224D00242F
:1021D0002C7020246C70040AAC70E8702B711F4CBA
:1021E000102A0FD1A868FFF7A7FC029403A801905A
:1021F00083B068460ECD0EC0296801600EBCFF207A
:1022000080300BE0029403A8019083B068460ECDA5
:102210000EC0296801600EBCFF204030FFF7B7FDFB
:10222000210068468089C0B200F085F900280ED1EF
:1022300000F0A7F900280AD12100052000F08EF94E
:10224000002804D105212000FFF786FD00E01120C1
:1022500005B030BDFF010000440A0020540B0020EF
:1022600030B585B0040001A8102100F0E7F9250081
:10227000062D01DB142029E0012000F0F1F8FFF722
:102280003FFEFFF791FE6A4601210420FFF7DFFEC3
:1022900068460078F02101400C4368460470FFF75F
:1022A00083FE01AA10210320FFF784FF6A46012163
:1022B0000420FFF70FFF0400032D06D19020000239
:1022C000844202D1042000F0CBF8200005B030BDDC
:1022D00070B5FEB000F0B4F9FEF7ABFE002000F0E0
:1022E000C1F9012047490A6802430A600A680240AE
:1022F0000092009A02220B6813430B6009680A409F
:102300000092009930210191029003200490002056
:1023100003903D4C01A92000FEF7D2FE8026F60076
:102320000196A025ED0501A92800FEF7C9FE00F0E1
:10233000D3F90128FBD1012220212000FFF716F854
:1023400041A006A91CC81CC106AC072242A120005E
:102350005030FFF705FC2DA08C2149006118027850
:102360000A7006A800F0E6F90128FAD1012231002E
:102370002800FEF7FBFFFEE738B5254D254C206809
:10238000A84202D12000FEF709FB25600120E06091
:102390000020A0606061204860602000FEF7AAFA7B
:1023A000002803D0002000F083F9FEE731BD70B5AE
:1023B00086B0012413480168214301600068204071
:1023C0000090009840200190144802900025039549
:1023D00003200490A026F60501A93000FEF770FE48
:1023E000002203210720FEF75BFA0720FEF75CFAC4
:1023F000802001900294039501A93000FEF760FE51
:1024000006B070BD2C100240000400500000000017
:1024100000540040540C0020380F30000000211000
:1024200080B500F09DF901BD10B50400FEF7E8F994
:10243000206010BD10B504004021A020C005FEF7AB
:102440008FFF207010BD0000687474703A2F2F77D2
:1024500077772E000000000073742E636F6D00000C
:102460006449087070473EB500200190009001A8B3
:10247000FFF7DAFF604C01230122AC212000FEF7B8
:10248000E9FB05006846FFF7CFFF00980199401A65
:10249000C82804D2002DEED103E011203EBD002D4E
:1024A000FBD100203EBDF8B5534F4020385C0128D9
:1024B00001D10220F2BD3800403000900120009987
:1024C0000870212000994870002500984560386800
:1024D00041684A4A0A404A49114341602820FFF7AF
:1024E0009FFF386841688022D2010A434260FEF7AC
:1024F00087F9202604003868816931400FD1FEF742
:102500007FF9001B0228F6D30098406830430099F9
:10251000486000984670009805701120F2BDC661B1
:1025200038684168374A0A4042600098467000980F
:1025300005700020F2BD38B504000D00FFF793FFD1
:10254000002809D12A00012000902300AC212A484C
:10255000FEF73CFA002800D0112032BD38B5040047
:102560000D00FFF780FF002809D12A00012000900C
:102570002300AC212048FEF7BCFA002800D011202F
:1025800032BD7CB52048002500241A4E317801293F
:1025900006D009D303292BD008D304291CD003E08B
:1025A000FFF761FF002815D0102076BD5020FFF7FF
:1025B00037FF0FE0002DF7D06846FFF73BFF684676
:1025C0000078002800D1641C6D1EE4B2052CF1DBFC
:1025D000002DE9D0002076BD6846FFF72BFF684646
:1025E0000078012802D170780028FCD07570F1E7DE
:1025F0000500E1E70E000020540C0020009800FCCC
:10260000AC20008000E800FEFFFF0F00130030B494
:1026100014001500103902D310393CC0FCD2490710
:1026200000D30CC000D504C0890002D30280801CF6
:10263000002900D5027030BC704700000022E5E799
:1026400080B50648016802220A4302600320FEF7B3
:10265000DDF800F005F8002002BD00000020024077
:102660007047FEE738B586B00121020007D1184A4D
:1026700013680B43136012680A400092009A00BF6F
:1026800012A24300D55A0195029100210391032122
:102690000491104980000C1801A92068FEF710FD74
:1026A000002229002068FEF761FE07B030BD00005F
:1026B00080B5012200E0000004A14300C95A054B87
:1026C00080001858FEF752FE01BD000020000000F7
:1026D0002C100240040000201FB50F216846FFF7B0
:1026E00059FA012824D11D496A4613781B025478EF
:1026F00023430B8093788B70D3781B021479234388
:102700008B8053791B0294792343CB80D3790B724E
:10271000137A4B72537A1B02947A23434B81D37AF8
:102720001B02147B23438B81537B8B73927BCA7375
:1027300004B010BD70B506000024084D0021688962
:10274000FFF756FA012806D13000FEF705FF040016
:102750006889FFF77BFA200070BD0000140000209C
:1027600011B581B0FEF74CF80400FEF749F8001BE4
:1027700001998842F9D313BD687474703A2F2F778A
:1027800077772E000000000068747470733A2F2F62
:102790007777772E00000000687474703A2F2F004E
:1027A0000000000068747470733A2F2F000000005E
:1027B00074656C3A000000006D61696C746F3A00DA
:1027C000000000006674703A2F2F616E6F6E796D95
:1027D0006F75733A616E6F6E796D6F75734000003F
:1027E0006674703A2F2F6674702E000066747073D2
:1027F0003A2F2F00000000000F480168820D0A43A5
:102800000260C1680D4A0A40C26001680C4A0A4071
:10281000026081680122914381600168094A0A408F
:102820000260C168084A0A40C2600021016180203C
:102830000005064908607047001002400C40FF8800
:10284000F6FFF6FEFFFFFBFFFFFF02FF08ED00E0D3
:102850000000000000000000010203040607080950
:10286000030406080C1018203000000070B4012387
:10287000002413E00168001D194202D04D466D1E70
:1028800049190C60091D121F042AFAD20D0096077F
:1028900001D50C80AD1C1A4000D02C700268001DC0
:1028A000002AE7D170BC704730B401220168001DD6
:1028B00000290FD00368C31844680830144202D0BE
:1028C0004D466D1E64191D6825601B1D241D091FC2
:1028D000ECD0F8E730BC704710B50749794418319F
:1028E000064C7C44163404E0081D0A6889188847A1
:1028F0000100A142F8D110BD08000000280000002E
:102900006DFFFFFF900C000014000020000000008D
:1029100099FFFFFF14000000840000000000002069
:102920000000000000F00DF8002801D0FFF7D4FFF0
:1029300000BF00BF002000BF00BFFFF7C9FC00F0D0
:1029400002F80120704780B500F002F801BDFEE7F3
:102950000746384600F002F8FBE7FEE780B500BF07
:1029600000BF024A11001820ABBEFBE726000200A0
:102970007047FEE770477047704780B500F006F873
:1029800001BD80B54020FEF7F9FC01BD0248016899
:10299000491C0160704700BFA00C0020EFBEADDEF7
:1029A0000000005080841E00ADDE01000100000028
:1029B000FEE700000148804701480047F92700086A
:1029C000C529000800BF00BF00BF00BFFFF7AAFF76
:1029D000FEE7FEE7FEE7FEE7FEE7FEE7FEE7FEE7CF
:1029E000FEE7FEE7FEE7FEE7FEE7FEE7FEE7FEE7BF
:0829F000FEE7FEE7FEE7FEE74B
:04000005080029C501
:00000001FF
