:020000040800F2
:10000000A81400204D28000865270008672700086D
:1000100000000000000000000000000000000000E0
:100020000000000000000000000000006927000838
:1000300000000000000000006B2700086D2700088A
:1000400047130008DF130008F724000813280008EE
:100050001F2800084928000869280008752700089B
:100060006B2800086D2800086F2800087128000818
:1000700073280008752800087728000879280008E8
:100080007B2800087D2800087F28000881280008B8
:100090008328000885280008872800088928000888
:1000A0008B2800088D2800088F2800089128000858
:1000B0009328000895280008972800089928000828
:1000C00070B5040001D1012070BD25004035002627
:1000D0006878002803D12E70200000F043FB242014
:1000E0006870206801680122914301606068C54919
:1000F0000140206801612168C3488A6802408A6023
:10010000E1680129A16801D1C24301E08422120201
:100110000A4321688A60E168022903D1802109012C
:100120002268516021684A68B84B13434B602168CC
:10013000CA681040C860206961690143A069000273
:1001400008432168C860E069216A014320680160B2
:100150002068016801220A4302606E6020206870F6
:100160002663AE70002070BD38B5040001D10120B7
:1001700032BD2500403524206870206801680122C6
:1001800091430160200000F02BFB00206860687044
:100190002063A870287032BDFEB504000F00160061
:1001A0001D0040304078202878D14020205C012874
:1001B00074D001204021605400F056FB0190009063
:1001C00019230122D103200000F0CCF9002862D1CC
:1001D00021004031212048701020887000204860A4
:1001E00066626585606380208001618DFF290BD97F
:1001F000FF2121850090C302FF223900200000F07A
:1002000093FA089E019D10E0628D22850090030301
:10021000D2B2F2E7FF2020850020009080235B040B
:10022000FF223900200000F07FFA608D002837D0CF
:100230002A003100200000F0BFF9002805D020007E
:1002400040304068042826D136E0606A411C616273
:100250000078216888626E48618D09186185218D5A
:10026000081820850004E0D1608D0028DDD00095BD
:10027000330000228021200000F074F900280AD108
:10028000608DFF28C6D8628D2285002000908023D3
:100290009B04D2B2C5E70320FEBDA3E00220FEBD51
:1002A00031002A00200000F0AEF90028F5D020002F
:1002B000403040680428EED10120FEBDFEB50400A8
:1002C0000F0016001D004030407820287AD14020D1
:1002D000205C012876D001204021605400F0C4FA4F
:1002E0000190009019230122D103200000F03AF977
:1002F000002864D1210040312220487010208870ED
:100300000020486066626585606390208001618D91
:10031000FF290CD9FF212185009080235B04FF2257
:100320003900200000F000FA089E019D11E0628D66
:100330002285009080239B04D2B2F1E7FF20208524
:100340000020009080235B04FF223900200000F091
:10035000EBF9608D002837D02A003100200000F032
:1003600079F9002805D0200040304068042826D1C3
:1003700036E0606A411C61622168496A0170244864
:10038000218D09182185628D101860850904E0D13E
:10039000608D0028DDD000953300002280212000F0
:1003A00000F0E0F800280AD1608DFF28C6D8628DE1
:1003B00022850020009080239B04D2B2C5E7032051
:1003C000FEBD0FE00220FEBD31002A00200000F03B
:1003D0001AF90028F5D02000403040680428EED1FA
:1003E0000120FEBD20202168C86121684A68094BB0
:1003F00013404B6021004031487000208870087025
:10040000FEBD0000FFFFFFF0FF7FFFFF0080000246
:10041000FFFF000000E800FEF0B587B004000020F8
:100420000390200040304078202851D12068806916
:1004300000044DD44020205C012849D0019304924F
:1004400020004030012202702422427000224260CB
:100450008805800DA0218901014306913849014397
:1004600005912027E068012801D1059800E0069851
:10047000019D2168486000F0F7F906002068816955
:10048000394028D18169C90625D4210040314978F5
:10049000A02920D00020C0438542EFD0002D48D0B5
:1004A00000F0E2F9801B8542E8D242E000222021E0
:1004B000200000F057F8002808D12068C76120000C
:1004C0004030477000210170002002E0032000E06E
:1004D000022007B0F0BD01950296102580692840E2
:1004E0000096019BE2D000222021200000F03AF883
:1004F0000028EBD12068C5612068C7610398411CC2
:1005000003910499884210D120684168AA020A43E5
:10051000426002980090019B00222021200000F000
:1005200021F80028D2D12068C76103980499884235
:1005300098D320004030477000210170C6E70000CA
:100540000020000281B000688169890701D500217F
:100550008162012182690A4002D18269114381616D
:1005600001B07047F8B51400069A00940024050005
:100570000F001E000692286880693840B84201D1F9
:10058000012000E000200099884213D10020C043E0
:100590008642F0D0002E05D000F066F90699401A88
:1005A0008642E8D2280040302021417084700470D7
:1005B0000320F2BD0020F2BDF8B5022704000D00B3
:1005C00016002068806938401BD1320029002000C5
:1005D00000F075F8002801D00120F2BD0020C043D2
:1005E0008542EED0002D04D000F03EF9801B8542FC
:1005F000E7D220004030202142680A434260417027
:1006000023E00020F2BDF8B5202504000E001700FD
:1006100020688069284016D13A003100200000F09F
:100620004EF800280DD1002E04D000F01DF9C01B9B
:100630008642EDD220004030416829434160457038
:1006400003E00120F2BD0020F2BD002181700170A5
:100650000320F2BDF8B5202504000E001700206825
:100660008069400728D43A003100200000F027F8C4
:1006700000281FD12068816929400ED1002E04D0A6
:1006800000F0F2F8C01B8642E9D2200040304168F9
:100690002943416045700021D9E7C5612068416860
:1006A000294A0A40426020004030002141604570E4
:1006B000817001700120F2BD0020F2BD0000F8B58C
:1006C000102403689B69234017D005000F00009297
:1006D000202628688169314011D10020C04387421B
:1006E000F7D0002F05D000F0BFF80099401A8742DC
:1006F000EFD2280040304670A7E70020F2BDC46169
:100700002868C6612800FFF71DFF286841680E4A67
:100710000A404260280040300421416046700021B8
:10072000817001700120F2BD70B5049C00684568BD
:10073000064E2E408905890D314312040A431343A6
:100740001C43446070BD000000E800FE009800FCFF
:10075000402806D12D480078042802D101202C49D8
:1007600008707047F0B58DB02020069010200A90D8
:1007700006A800F07FF88021C902264802680A43D3
:10078000026002680A400592059A02680A43026004
:1007900002681140059105998021890382680A4306
:1007A000826080680140059105988020400000909B
:1007B000122701970026029603240394012504952D
:1007C0006946154800F0F4F8680200900197029617
:1007D000039404956946104800F0EAF80DB0F0BDA6
:1007E00010B50E480168802292030A430260016836
:1007F0000B4A0A400260084C810D200000F0A0F96D
:1008000080218900200000F09BF910BD0E0000201F
:100810000F00002014100240000400481010024095
:10082000FFFFDFFF70B598B020240B9401201390D8
:1008300002251495C021490215911790002616969D
:100840000BA800F02BFA0720009001950296039662
:100850000121684600F048FC04941020089004A888
:1008600000F008F818B070BD01480068704700BF7C
:10087000A00C0020FEB50700464C3868C00359D5CF
:1008800000200090802040052168014008D12168A7
:1008900001432160216808400090009801200090E9
:1008A0003D4E3068C00517D43068A10D014331605A
:1008B000FFF7DAFF05003068C0050DD4FFF7D4FF5D
:1008C000401B6528F7D30320FEBDFFF7CDFF401B7B
:1008D000019988421FD3F6E7C0208000616801407B
:1008E0002E4A1600002919D07A681040814215D08E
:1008F000606830406168802252020A436260616829
:10090000274A0A4062606060C00707D5FFF7ACFF66
:1009100024490191050060688007D6D560680640CB
:100920007868304360600098002803D020681E4932
:10093000014021603878C00705D5606903218843EC
:10094000B968014361613878800705D56069174946
:100950000140F868084360613878800605D5606911
:10096000102188433969014361613868800305D5E6
:10097000606980218843B969014361613868400535
:1009800005D5606940218843796901436161002090
:10099000FEBD00001C10024000700040FFFCFFFF85
:1009A000FFFFFEFF89130000FFFFFFEFFFFFFCFFCB
:1009B000F0B585B00A0000230F210491010031E059
:1009C000052403E0AD488142FAD10424AC4034430D
:1009D00002980460AA480568019EF44325405668C1
:1009E000F60302D52E00019D35430560456825407C
:1009F0005668B60302D52E00019D354345608568D3
:100A000025405668F60202D52E00019D35438560CB
:100A1000C5682C405568AD0202D52500019C2C43C9
:100A2000C4605B1C10680400DC4000D186E0012437
:100A300001259D4003950540019501980028F0D0BF
:100A400068469D0045705068022801D0122811D1D7
:100A5000D80880000D18286A6E4677781C263E401C
:100A6000049FB740B8431769BC4637006646BE408E
:100A700006432E620D6868465E00067003206E46CF
:100A800037780326BE40F74302973E462E4055680E
:100A900005406F463F78BD4035430D605568012DD8
:100AA00005D0022D03D0112D01D0122D11D18E6849
:100AB000029D3540D6686F463F78BE402E438E601B
:100AC0004D68039EB5435668360926409E402E4326
:100AD0004E60CE68029D354096686F463F78BE40B6
:100AE0002E43CE605568ED009BD5664D2E6826439B
:100AF0002E602D6825400295029D634D9E08B6002C
:100B0000AD1902952E686D466F780C253D40049F07
:100B1000AF40BE439027FF05B94201D1002455E7FD
:100B20005A4FB942FBD05A4CA14201D102244DE7A1
:100B3000584CA14200D045E7032447E705B0F0BD7B
:100B4000F0B587B04E4B01930F230593069100211A
:100B500024E0052203E0494A9042FAD104226B4680
:100B60001B789A40954218D12268B2432260049BB8
:100B7000DA43019B1B681340019C2360019B5B6867
:100B80001340019C6360019B9B681340019CA36020
:100B9000019BDB681A40019BDA60491C069ACA4037
:100BA00051D0012201238B400393069B039C1C40E0
:100BB0000494049B002BF0D04C000325A540EC438B
:100BC00002940468029D25400560CC08A400041925
:100BD0006D468E002E70266A059FBC462F781C2518
:100BE0003D406746AF40BE4326628468029D254073
:100BF00085604468039DAC434460C468029D254001
:100C0000C560214C8D08AD00641925686E463778A3
:100C10000C263E406F463E70059E3F78BE403540F4
:100C20009027FF05B84201D1002298E7174FB8423C
:100C300095D0174A904201D1022290E7154A90427E
:100C400089D103228BE707B0F0BD0069084000D0CE
:100C50000120C0B2704781B0002A01D0816100E05C
:100C6000816201B070470C4A1368034000D170479D
:100C700080B51060FFF76CFD01BD0000001000485A
:100C80000004014018100240080001400004004820
:100C900000080048000C004814040140F1B582B07F
:100CA000914C0078C00700D435E10C218025AD02BD
:100CB0006068084004280AD0680862681140082962
:100CC0000ED16168C02252020A40824208D12068D7
:100CD000054034D002984068002822D10120FEBD92
:100CE00002994A68012A09D08049814B002A09D01B
:100CF000052A07D1216882000A432260216808433F
:100D0000206005E0206803402360206801402160E6
:100D10000298406800280DD0FFF7A6FD0600206865
:100D2000284000D0F7E0FFF79FFD801B6528F6D331
:100D30000320FEBDFFF798FD06002068284000D183
:100D4000E9E0FFF791FD801B6528F6D3F0E7FFF798
:100D50008BFD801B022800D813E1E9E70298C068E8
:100D6000002820680FD0012101432160FFF77CFD9E
:100D700006002068800700D5EBE0FFF775FD801BBB
:100D80000228F6D9D4E7012188432060FFF76CFDE3
:100D9000022706002068384000D1E1E0FFF764FD3B
:100DA000801B0228F6D9C3E7012188436062FFF760
:100DB0005BFD02270600606A384000D1E5E0FFF7DE
:100DC00053FD801B0228F6D9B2E70420C04301225C
:100DD000D24300290AD0052908D1206A0421014301
:100DE0002162206A01210143216205E0216A0A4053
:100DF0002262216A084020620298806800280FD091
:100E0000FFF732FDB74900910600206A800700D540
:100E1000EAE0FFF729FD801B00998842F5D387E7B8
:100E2000FFF722FDAF4900910600206A800700D439
:100E3000DAE0FFF719FD801B00998842F5D377E7C8
:100E4000FFF712FD801B022800D8E9E070E7FFF7EA
:100E50000BFD801B022800D81AE169E70421C94371
:100E60008842606B02D101406163DDE004210143EF
:100E70006163606B012188436063FFF7F5FC022723
:100E80000600606B384000D1D5E0FFF7EDFC801B19
:100E90000228F6D94CE70298006A002811D0802772
:100EA0007F02606B38436063FFF7DEFC0600606B17
:100EB000384000D0D9E0FFF7D7FC801B0228F6D9D4
:100EC00036E7606B0A4901406163FFF7CDFC80277C
:100ED0007F020600606B384000D1C6E0FFF7C4FC1B
:100EE000801B0228F6D923E700100240FFFFFBFF1A
:100EF000FFFFFEFF01402160FFF7B6FC8027BF0423
:100F000006002068384000D1EAE0FFF7ADFC801B06
:100F10000228F6D90CE70C25022002990968014045
:100F20001ED0F827FF43616829400AD06168294034
:100F3000082904D161686A030A4081038A4200D00B
:100F40000CE72168084004D00298C068012800D04E
:100F5000C4E62068074002980069C000384320605A
:100F600002980078000710D50298C0690028606ACE
:100F700000D119E7012101436162FFF775FC0227E7
:100F80000600606A384000D1E1E602980078400728
:100F900030D5002780204005E169014007D1E16993
:100FA0000143E161E1690840009000980127A448ED
:100FB0000068C00511D4A2480168820D0A4302608E
:100FC000FFF752FC06009E480068C00505D4FFF7F5
:100FD0004BFC801B6528F6D3AAE60298816801299C
:100FE00000D0F2E6206AFEE6002F03D0E0699549C2
:100FF0000140E16102980078C0061CD50298406962
:10100000F827FF43012800D028E7606B0421014343
:101010006163606B012101436163FFF725FC0600FA
:10102000606B800700D40BE7606B07400298806913
:10103000C0003843606302980078800615D5606868
:1010400028400C2809D060682840082803D168038C
:1010500061680140814200D01DE7606BC00304D588
:101060000298006A012800D038E60298406A0028F9
:1010700036D061680D40082D00D12FE6884902283E
:10108000206800D036E701402160FFF7EDFB060045
:101090002068800100D5DAE6E06A0F2188430299D2
:1010A000096B0143E16260687E4901400298C06AB1
:1010B00008430299896A01436160206880214904DC
:1010C00001432160FFF7D0FB06008025AD042068B6
:1010D000284005D1FFF7C8FB801B0228F7D927E677
:1010E0000020FEBD89130000F2B582B00127FF4346
:1010F00001246E4909682140029A91420AD26B4943
:101100000A683A40029B13430B6009682140029A27
:10111000914222D10090644D02200099096801405B
:1011200006D06968F0229143009A92680A436A6087
:1011300000990968214066D000994968012902D1C7
:101140002868800308E0022902D12868800103E0B2
:10115000032903D1686BC00303D464E02A681040FC
:1011600061D068680322904301436960FFF77CFB0C
:101170000600009840684E49019101280CD168682A
:101180000C21014004293ED0FFF76EFB801B019922
:101190008842F4D30320FEBD02280BD168680C21DD
:1011A000014008292FD0FFF75FFB801B019988427F
:1011B000F4D3EFE70191032837D168680C2101408F
:1011C0000C2920D0FFF750FB801B01998842F4D3F3
:1011D000E0E700980078400706D568683549014087
:1011E0000098C0680843686000F02EF832496A68C9
:1011F0001206120F895CC84030490860032000F0D5
:1012000075F80020FEBD29480299026822409142EB
:10121000DFD201680F400299394301600068044041
:1012200002988442D5D00120FEBD68680C2101409F
:10123000E9D0FFF719FB801B01998842F5D3A9E794
:1012400000700040FFFFFFEFF0B51D490B681D481F
:101250001D4A0C241C40082C02D00C2C1AD0F0BDC6
:101260000F2500BF19A49E0C2E40A45D1BA6896A01
:101270000D40715DC0256D022E001E4080277F024B
:10128000BE4203D02B40AB4200D1100000F040F82A
:101290006043F0BD1000F0BD0848006870470000D2
:1012A000FFFFFFFEFF7FC2FF001002400020024050
:1012B00089130000FFF8FFFFE8260008080000205F
:1012C0000410024000127A00006CDC0202030405E4
:1012D000060708090A0B0C0D0E0F1010010203047B
:1012E00005060708090A0B0C0D0E0F1010B50400B7
:1012F000FFF7D2FFFA21890000F00AF800F049F860
:10130000002221000020C04300F038F8002010BD6A
:10131000094214D088420FD30122030C01D10004EA
:101320001204002300185B418B4200D35B1A524128
:10133000F8D319001000704701000020704708B56D
:1013400000F04CF808BDFEE718B5C20018231340A2
:10135000FF249C40E2438907090E9940002804D5E8
:10136000194B0007000F083800E0184B8008800078
:10137000181803681A401143016011BD80B5FFF7CA
:10138000E3FF01BD0121C006C00E8140104801608D
:10139000704710B5401E80214904884201D30120C6
:1013A00010BD0C4C606003210020C043FFF7CCFF50
:1013B0000020A0600721216010BD0121C006C00EE1
:1013C00081400548016070471CED00E000E400E04A
:1013D00000E100E010E000E080E200E07047FEE79E
:1013E000F1B582B00027704C277067700225029813
:1013F00000F0E4F801900028029804D0503000F08A
:10140000D7FA461C08E000F0D3FA060002985030E4
:1014100000F0CEFA3618761C02988C21490040184C
:1014200000900078002826D0009800F0C1FAC71C70
:10143000F0190830E9018E4200D3C01C8F4200D35E
:10144000C01C88420BD3C121A170E570010E21712F
:10145000010C6171010AA171E071082504E0D1213C
:10146000A170E5702071052550A0611902780A70FD
:1014700042784A70AD1C601981210170FF2E01D89D
:101480009121017000990978002903D10178402247
:101490000A4302706D1C012060556D1C60196D1CA3
:1014A000FF2E0AD9310E0170300C60556D1C300AC8
:1014B00060556D1C66556D1C00E006703CA06119FE
:1014C00002780A706D1C019860556D1C0198002807
:1014D0000BD1029800F06CFA02000299601900F03A
:1014E0006FFA029800F064FA2D180298503000F05C
:1014F0005FFA020002995031601900F061FA029817
:10150000503000F055FA2D1800980078002832D09D
:1015100060196D1CFF2F0CD941210170012060550D
:101520006D1C380E60556D1C380C60556D1C380AEA
:1015300002E051210170012060556D1C67556D1C42
:101540001CA0611902780A706D1C022060556D1C88
:1015500019A0611902780A7042784A70AD1C00988F
:1015600000F026FA02000099601900F029FA0098AC
:1015700000F01EFA2D182200A9B2002000F0DEFAB9
:1015800090263602B04208D1AD1E280A2070657040
:1015900022000221002000F0D1FAB04201D1012046
:1015A000FEBD0020FEBD000024000020537000009E
:1015B0005500000054000000656E000010B50400E6
:1015C0000B22AA4900F0E2FA002801D1012010BD47
:1015D0000C22A749200000F0D9FA002801D10220EE
:1015E00010BD0722A349200000F0D0FA002801D145
:1015F000032010BD0822A049200000F0C7FA0028EF
:1016000001D1042010BD04229C49200000F0BEFA44
:10161000002801D1052010BD07229949200000F0C3
:10162000B5FA002801D1062010BD1A2295492000E4
:1016300000F0ACFA002801D1072010BD0A2292491F
:10164000200000F0A3FA002801D1082010BD0722D5
:101650008E49200000F09AFA002801D1092010BD1F
:10166000072200BF8AA1200000F090FA002801D1D3
:101670000A2010BD062200BF88A1200000F086FAD3
:10168000002801D10B2010BD062200BF85A120003B
:1016900000F07CFA002801D10C2010BD062200BF0A
:1016A00082A1200000F072FA002801D10D2010BDA7
:1016B000062200BF7FA1200000F068FA002801D1B7
:1016C0000E2010BD052200BF7CA1200000F05EFAB4
:1016D000002801D10F2010BD092200BF79A12000F0
:1016E00000F054FA002801D1102010BD052200BFDF
:1016F00077A1200000F04AFA002801D1112010BD86
:10170000072200BF74A1200000F040FA002801D198
:10171000122010BD042200BF72A1200000F036FA92
:10172000002801D1132010BD042200BF6FA12000AA
:1017300000F02CFA002801D1142010BD042200BFB3
:101740006CA1200000F022FA002801D1152010BD64
:10175000052200BF69A1200000F018FA002801D17D
:10176000162010BD052200BF66A1200000F00EFA71
:10177000002801D1172010BD082200BF63A120005E
:1017800000F004FA002801D1182010BD0A2200BF81
:1017900061A1200000F0FAF9002801D1192010BD44
:1017A000092200BF5FA1200000F0F0F9002801D15C
:1017B0001A2010BD0A2200BF5DA1200000F0E6F94A
:1017C000002801D11B2010BD0B2200BF5BA120000F
:1017D00000F0DCF9002801D11C2010BD072200BF59
:1017E0005AA1200000F0D2F9002801D11D2010BD1F
:1017F0000B2200BF58A1200000F0C8F9002801D139
:101800001E2010BD0B2200BF57A1200000F0BEF922
:10181000002801D11F2010BD0C2200BF56A12000BE
:1018200000F0B4F9002801D1202010BD0C2200BF27
:1018300055A1200000F0AAF9002801D1212010BDF7
:10184000082200BF54A1200000F0A0F9002801D117
:10185000222010BD082200BF52A1200000F096F9FE
:10186000002801D1232010BD002010BD082600084B
:1018700018260008282600083426000840260008FC
:101880004826000854260008702600087C26000818
:10189000736674703A2F2F0000000000736D623A77
:1018A0002F2F00006E66733A2F2F00006674703A77
:1018B0002F2F00006461763A2F2F00006E6577733A
:1018C0003A00000074656C6E65743A2F2F000000BA
:1018D000696D61703A000000727473703A2F2F00C6
:1018E0000000000075726E3A00000000706F703AE0
:1018F000000000007369703A0000000073697073A3
:101900003A000000746674703A00000062747370EC
:10191000703A2F2F0000000062746C326361703ADD
:101920002F2F00006274676F65703A2F2F00000040
:101930007463706F6265783A2F2F0000697264617A
:101940006F6265783A2F2F000000000066696C65B1
:101950003A2F2F000000000075726E3A6570633AEE
:1019600069643A000000000075726E3A6570633A6F
:10197000746167000000000075726E3A6570633A2A
:101980007061743A0000000075726E3A6570633AD7
:101990007261773A0000000075726E3A6570633AC2
:1019A0000000000075726E3A6E66633A0000000037
:1019B000010000E0491C0A78002AFBD1081A704790
:1019C000124207D08B0706D00B78491C0370401CCD
:1019D000521EF7D87047830706D00B78491C037056
:1019E000401C521EF9D1704770B4103A03D378C925
:1019F000103A78C0FBD2530701D318C918C001D5DB
:101A000008C908C0D20704D30B880380891C801C36
:101A1000002A01D50B78037070BC704770B50500C3
:101A200000F067F905269024240200F07BF9761E69
:101A3000A04206D0002EF8D101E000F09AF9002073
:101A400070BD00F0A1F9A042F9D100F0E1F9A04287
:101A5000F5D12A000F21002000F050F8A042ECD16F
:101A6000687A0002A97A08434449088000F081F9A5
:101A7000A042E4D1012070BDF8B50400052640481D
:101A80000268404882420ED190252D023E4FB94255
:101A90000FD100F059F901E031040AD1A8420DD06C
:101AA00000F027F903E0A24201D10120F2BD00209D
:101AB000F2BD00F037F9F619A842EDD100F064F953
:101AC000A842F4D1200000F0ECF9A842EFD12C4854
:101AD0000460EAE738B52A4C21682A4D814207D1D3
:101AE00000F047F990210902884205D1256001E004
:101AF000A94201D1012032BD002032BD70B50600DF
:101B00001400F62914DD0D002200F621B0B200F019
:101B1000E2F9F636F634F63D90231B02ADB2F62D0F
:101B200001DD9842F0D02900984206D10A0004D085
:101B30002200C9B2B0B200F0CEF970BD70B5060097
:101B40001400F62914DD0D002200F621B0B200F0D9
:101B500005FAF636F634F63D90231B02ADB2F62DAB
:101B600001DD9842F0D02900984206D10A0004D045
:101B70002200C9B2B0B200F0F1F970BD0C00002033
:101B800000000020EFBEADDEFFFF000010B402E059
:101B9000401C491C521E002A09D00B7804789C4234
:101BA000F6D002D20020C04302E0012000E0002075
:101BB00010BC704710B50200CA481378521C0400CC
:101BC0005C4023016340DBB2000A1C024440D800A1
:101BD00060401B095840491E0B06EED180B210BD73
:101BE00038B505000C0003D0FFF7E4FF002805D14D
:101BF0002919091F0878000249780AE00521280000
:101C0000FFF7D8FF002801D0122032BD687800020B
:101C1000A978084332BD0EB4F0B50600099C0A9DB0
:101C2000002020800221B04BF2070AD51A78521EFC
:101C30009241D20F1A70012222801A78022717438C
:101C40002F7008221F78174203D023885F1C27803B
:101C5000E8540E4205D02088411C21806946097D48
:101C60002954700705D52088411C218005A9497891
:101C70002954164205D02088411C218005A9897865
:101C80002954F00605D52088411C218005A9C97872
:101C90002954B00605D52088411C218005A9097961
:101CA000295470060AD505A807793A0007992088B3
:101CB0002818FFF785FE2088C0192080300605D53A
:101CC0002088411C218005A9097B2954F0050CD5E9
:101CD0002188C9B22800FFF76DFF21886854491C8C
:101CE0004A1C2280000A89B268540498F0BC04B0EF
:101CF000004780B500F088FA00F0A1FACD48002135
:101D000001600171017301001031816000F01CF865
:101D100090210902884204D1032000F0E5F900F087
:101D20000CFB01BD80B5262069460870012000F03B
:101D30004CFB002806D100F0E0FA002802D19020E8
:101D4000000202BD112002BD80B5684608A10A78D4
:101D500002706946012000F038FB002806D100F02F
:101D6000CCFA002802D19020000202BD112002BD51
:101D7000520080B500F0E1FA002802D19020000264
:101D800002BD112002BD000038B586B004A800BF16
:101D90001DA10CC90CC00024A64D2C70A420687095
:101DA0000420A870EC7007202871072204A9A868F5
:101DB000FFF706FE2C73A04C029403A8019083B099
:101DC00068460ECD0EC0296801600EBCC348FFF7FF
:101DD00022FF210068468089C0B200F0F6FA002890
:101DE0000ED100F018FB00280AD12100052000F0D8
:101DF000FFFA002804D105212000FFF7F1FE00E0E2
:101E0000112007B030BD0000D2760000850101002E
:101E10001FB5002187480170A422427081700C21F7
:101E2000C170022101718168E1220A7003220EE073
:101E30001FB500217F480170A422427081700C21DF
:101E4000C170022101718168E1220A7001224A7089
:101E5000794C029403A9019183B069460CC80CC166
:101E60000CC80CC10EBCFF208030FFF7D4FE21004F
:101E700068468089C0B200F0A8FA00280ED100F0B0
:101E8000CAFA00280AD12100052000F0B1FA002882
:101E900004D105212000FFF7A3FE00E0112004B0CB
:101EA00010BD1FB5002263490A70A4234B708A70CD
:101EB0000C22CA7002220A718A68030A13705070D9
:101EC0005D4C029403A8019083B068460CC90CC015
:101ED0000CC90CC0C6E7F8B584B00D001600554912
:101EE000002203E063630000100000200A70B022AB
:101EF0004A70020A8A70C8700D734F4C029403A88E
:101F0000019083B068460CC90CC00CC90CC00EBC53
:101F1000FF20A030FFF77FFE210068468089C0B215
:101F200000F053FA002816D100F075FA002812D1FB
:101F30006F1D2100F8B200F05BFA00280BD1F9B256
:101F40002000FFF74DFE07002A00611C3000FFF75C
:101F500037FD380000E0112005B0F0BD38B584B081
:101F60001300344D00222A70D6226A70020AAA7029
:101F7000E87029710A001900A868FFF721FD2E4CAE
:101F8000029403A8019083B068460ECD0EC0296864
:101F900001600EBCFF208030FFF73DFE2100684647
:101FA0008089C0B200F011FA00283FD100F033FA66
:101FB00000283BD12100052000F01AFA050000049A
:101FC00034D12078C0210140C02926D1042120002D
:101FD000FFF706FE122827D06D46F22028706078A1
:101FE000687002216846FFF7E5FDA870000AE870F6
:101FF0006946042000F0E9F9002814D100F00BFA3A
:10200000002810D16946052000F0F2F900280AD115
:1020100005216846FFF7E4FD03E005212000FFF7F6
:10202000DFFD050000E01125A8B200E0112005B099
:1020300030BD0000440A0020540B002038B584B0A5
:102040000B001100032803DC1A0003D0102A01D072
:10205000142041E0224D00242C7020246C70040ACE
:10206000AC70E8702B711F4C102A0FD1A868FFF7D5
:10207000A7FC029403A8019083B068460ECD0EC061
:10208000296801600EBCFF2080300BE0029403A899
:10209000019083B068460ECD0EC0296801600EBC69
:1020A000FF204030FFF7B7FD210068468089C0B2AD
:1020B00000F08BF900280ED100F0ADF900280AD10C
:1020C0002100052000F094F9002804D1052120000A
:1020D000FFF786FD00E0112005B030BDFF010000D4
:1020E000440A0020540B002030B585B0040001A83C
:1020F000102100F0EDF92500062D01DB142029E068
:10210000012000F0F7F8FFF73FFEFFF791FE6A4667
:1021100001210420FFF7DFFE68460078F02101402E
:102120000C4368460470FFF783FE01AA10210320C8
:10213000FFF784FF6A4601210420FFF70FFF040028
:10214000032D06D190200002844202D1042000F029
:10215000D1F8200005B030BD70B5FEB000F0BAF97E
:10216000FEF760FB002000F0C7F9802080024A499A
:102170000A6802430A600A681040009000988020B4
:10218000C0020A6802430A6009680840009000988B
:102190003020019001200290032004900020039041
:1021A0003E4C01A92000FEF703FC8026F6000196B4
:1021B0009025ED0501A92800FEF7FAFB00F0D0F903
:1021C0000128FBD1012220212000FEF744FD00BFA1
:1021D00042A006A91CC81CC106AC072243A12000CE
:1021E0005030FFF701FC2EA08C21490061180278C5
:1021F0000A7006A800F0E2F90128FAD101223100A4
:102200002800FEF728FDFEE738B5264D264C20684D
:10221000A84202D12000FDF7A7FF25600120E06061
:102220000020A0606061214860602000FDF748FF49
:10223000002803D0002000F07FF9FEE731BD38B55B
:1022400086B08020800214490A6802430A60096847
:10225000084000900098402001901548029000240A
:102260000394032004909025ED0501A92800FEF7B2
:102270009FFB002203210720FFF780F80720FFF7CC
:1022800081F88020019001200290039401A9280088
:10229000FEF78EFB07B030BD14100240000400486A
:1022A0000000000000540040540C00201A091020C7
:1022B0000000211080B500F097F901BD10B50400B1
:1022C000FEF7D2FA206010BD10B504004021902026
:1022D000C005FEF7BAFC207010BD00006874747071
:1022E0003A2F2F7777772E000000000073742E634B
:1022F0006F6D00006449087070473EB50020019082
:10230000009001A8FFF7DAFF604C01230122AC2105
:102310002000FEF781F805006846FFF7CFFF009820
:102320000199401AC82804D2002DEED103E01120F3
:102330003EBD002DFBD100203EBDF8B5534F4020DF
:10234000385C012801D10220F2BD380040300090F5
:1023500001200099087021200099487000250098FC
:102360004560386841684A4A0A404A491143416019
:102370002820FFF79FFF386841688022D2010A4376
:102380004260FEF771FA2026040038688169314006
:102390000FD1FEF769FA001B0228F6D300984068B7
:1023A00030430099486000984670009805701120ED
:1023B000F2BDC66138684168374A0A4042600098F9
:1023C0004670009805700020F2BD38B504000D007D
:1023D000FFF793FF002809D12A0001200090230075
:1023E000AC212A48FDF7D8FE002800D0112032BDCC
:1023F00038B504000D00FFF780FF002809D12A003E
:10240000012000902300AC212048FDF757FF002851
:1024100000D0112032BD7CB52048002500241A4E82
:102420003178012906D009D303292BD008D30429F8
:102430001CD003E0FFF761FF002815D0102076BD07
:102440005020FFF737FF0FE0002DF7D06846FFF769
:102450003BFF68460078002800D1641C6D1EE4B282
:10246000052CF1DB002DE9D0002076BD6846FFF792
:102470002BFF68460078012802D170780028FCD034
:102480007570F1E70500E1E70E000020540C002014
:10249000009800FCAC20000000E800FEFFFF0F00E9
:1024A000130030B414001500103902D310393CC0A9
:1024B000FCD2490700D30CC000D504C0890002D368
:1024C0000280801C002900D5027030BC70470000DB
:1024D0000022E5E780B50648016810220A43026041
:1024E0000320FEF703FF00F005F8002002BD000006
:1024F000002002407047FEE780B586B0010009D198
:1025000080218902134A13680B431360126811403B
:102510000091009911A14200895A01910121029173
:10252000002103910321049101A90B4A8000105856
:10253000FEF73EFA07B000BD80B5012200E00000C2
:1025400006A14300C95A044B80001858FEF783FBCC
:1025500001BD000014100240040000202000000013
:102560001FB50F216846FFF759FA012824D11D49EC
:102570006A4613781B02547823430B8093788B7040
:10258000D3781B02147923438B8053791B029479EF
:102590002343CB80D3790B72137A4B72537A1B028D
:1025A000947A23434B81D37A1B02147B23438B8180
:1025B000537B8B73927BCA7304B010BD70B5060059
:1025C0000024084D00216889FFF756FA012806D13A
:1025D0003000FEF705FF04006889FFF77BFA200052
:1025E00070BD00001400002031B5FEF73DF9040075
:1025F000009D0020C043854200D06D1CFEF734F9D9
:10260000001BA842FAD331BD687474703A2F2F773B
:1026100077772E000000000068747470733A2F2FD3
:102620007777772E00000000687474703A2F2F00BF
:102630000000000068747470733A2F2F00000000CF
:1026400074656C3A000000006D61696C746F3A004B
:10265000000000006674703A2F2F616E6F6E796D06
:102660006F75733A616E6F6E796D6F7573400000B0
:102670006674703A2F2F6674702E00006674707343
:102680003A2F2F00000000001148016801220A4380
:10269000026041680F4A0A40426001680E4A0A40DF
:1026A000026001680D4A0A40026041680C4A0A4013
:1026B0004260C16A0F229143C162016B094A0A401C
:1026C0000263416B012291434163002181607047A5
:1026D000001002400CB8FF08FFFFF6FEFFFFFBFFF3
:1026E000FFFFC0FF2CFEFCFF000000000000000008
:1026F000010203040607080970B40123002413E053
:102700000168001D194202D04D466D1E49190C602A
:10271000091D121F042AFAD20D00960701D50C805C
:10272000AD1C1A4000D02C700268001D002AE7D1B1
:1027300070BC704730B401220168001D00290FD021
:102740000368C31844680830144202D04D466D1E19
:1027500064191D6825601B1D241D091FECD0F8E7B6
:1027600030BC70477047FEE77047704780B500F097
:102770000DF801BD80B50720FEF71FFE4020FEF7D3
:1027800072FA80208001FEF76EFA01BD02480168EE
:10279000491C0160704700BFA00C002010B507491C
:1027A00079441831064C7C44163404E0081D0A684C
:1027B000891888470100A142F8D110BD0800000027
:1027C0002800000035FFFFFF900C000014000020DF
:1027D0000000000061FFFFFF14000000580000002F
:1027E000000000200000000000F00DF8002801D0DB
:1027F000FFF7D4FF00BF00BF002000BF00BFFFF7FE
:10280000ABFC00F002F80120704780B500F002F840
:1028100001BDFEE70746384600F002F8FBE7FEE799
:1028200080B500BF00BF024A11001820ABBEFBE715
:1028300026000200EFBEADDE0000004800127A0064
:10284000ADDE010001000000FEE700000148804706
:1028500001480047892600085D28000800BF00BF26
:1028600000BF00BFFFF7C0FFFEE7FEE7FEE7FEE7A1
:10287000FEE7FEE7FEE7FEE7FEE7FEE7FEE7FEE730
:10288000FEE7FEE7FEE7FEE7FEE7FEE7FEE7FEE720
:0A289000FEE7FEE7FEE7FEE7FEE7C5
:040000050800285D6A
:00000001FF
