:020000040800F2
:10000000B0100020F9280008B9280008BB28000813
:10001000BD280008BF280008C12800080000000013
:10002000000000000000000000000000C3280008DD
:10003000C528000800000000C7280008C9280008DB
:100040001D29000821290008252900082929000860
:100050002D29000831290008352900083929000810
:100060003D290008412900084529000849290008C0
:100070004D29000851290008552900085929000870
:100080005D29000861290008652900086929000820
:100090006D2900087129000875290008CD2800087D
:1000A000792900087D290008812900088529000890
:1000B000892900088D290008912900089529000840
:1000C000992900089D290008A1290008A5290008F0
:1000D000A9290008AD290008B1290008B5290008A0
:1000E000B9290008BD290008C1290008F8B5040095
:1000F00001D10120F2BD04F13C05687820B900214E
:100100002970204600F0ADFC00F067F800F07FFF9A
:100110000146DFF8E002DFF8E032B1FBF0F22068E0
:1001200042606068984206D34FF4967042434FF4A1
:100130007A76B2FBF6F22768521C3A6266689E42F3
:1001400008D27600B1FBF6F0C0F30B01042913D2FC
:10015000042011E0A06820B906EB4606B1FBF6F0DA
:1001600005E019225643B1FBF6F040F4804001054A
:100170000CBF012040F400402168C861E269206A98
:100180000243206802602169E068014320688160C1
:100190006169A06901432068C1602068016841F07D
:1001A0000101016000206860202068700020206349
:1001B000A870F2BD38B5040001D1012032BD04F1B0
:1001C0003C0500F00AF8204600F090FC0020686032
:1001D00068702063A870287032BD24206870206881
:1001E000016849084900016070472DE9FC4700F0AB
:1001F00025F900F0F3F843D100F018F900283FD1B9
:10020000387801283CD000F0CFF8212000F0BAF86F
:1002100000F064FA40B17868042802D100213970F6
:100220002AE00020387029E000F0D0F8308D002856
:1002300029D000F0E8F8C8B900F0EAF800F0F2F8C8
:10024000308D401E308531684A69530706D580B22B
:1002500020B1706A421C726200F018F800F0CEF80B
:100260000028E3D07868042808D102E078680428E0
:1002700004D1306800F087F9012002E0032000E09B
:100280000220BDE8F68700F0DFF8FAE700780861A1
:10029000708D411E7185308D411E318570472DE96D
:1002A000FC4700F0CBF800F099F860D100F0BEF800
:1002B00000285CD13878012859D000F075F8222048
:1002C00000F060F800F04EFA40B17868042802D1DE
:1002D0000021397043E0002038703EE0308D10B9C5
:1002E00000F04AF914E03168012802D100F02AF93F
:1002F00004E00228086804D100F014F9016062B635
:1003000006E000F003F903E000F0B8F800F087F829
:10031000308D00282ED0042819D2012804D100F0F5
:10032000C4F80028F0D015E000F09FF807D100F0E5
:1003300024F8002811D172B600F0BCF8E4E700F010
:100340001CF8002809D100F0C8F830B9F4E700F033
:10035000ACF830B17868202801D1032008E00120F2
:1003600006E000F092F8D3D500F079F8CEE702204D
:10037000BDE8F68700F038F8FAE70022414630463B
:1003800000F068BA78702A461020B8704146002004
:100390007860C6F82490A6F82AA0DFF8DC00F062A6
:1003A000708D3085304670470121397030680168A2
:1003B000CA0703D4026842F0010202602346306893
:1003C0000A9D016821F40061016070470090306867
:1003D00041690091806900900099704706F13C07DF
:1003E0000446787820287047202078700020B87064
:1003F0003870704740420F00A1860100224629460E
:10040000304600F0B8BA22462946304600F099BA84
:10041000706A411C71623168007808617047308DE4
:10042000411E3185708D411E7185704700941923DE
:100430000122DFF89012304600F00CBA06468846DA
:1004400091469A4600F00EBE3068016841F4007192
:100450000160202078700020B87038707047716A91
:100460004A1C72620069087070470228DFF85882DF
:1004700000942B46704700000000FFFF706A411C8B
:10048000716231680A6902707047706A411C71625A
:1004900031680A690270308D411E3185708D411EB0
:1004A0007185306841694A077047224629463046BF
:1004B00000F088BA3068016841F400710160706A28
:1004C000411C716231680A690270308D411E3185AC
:1004D000708D411E718562B670473068016821F4E5
:1004E0008061016072B62B46706A411C716231688E
:1004F0000A6902700022308D411E3185708D411EC7
:10050000718500944146304600F0A4B940F4806003
:100510000860002100913068416900918069009075
:100520000099704740F40060086072B600210091A5
:10053000306841690091826900920099016821F454
:1005400080617047086820F48060086072B60021FE
:1005500000913068416900918269009200990168B8
:1005600041F40071704700902068416900918269F0
:100570000092002200997047009030684169009114
:10058000826900920099016841F40071016070472E
:100590002DE9FE4F04468B4691469A4600F062FDD7
:1005A00004F13C0705467878012620285DD1DFF864
:1005B0001481009519230122414600F0D1F800284A
:1005C00053D13878012850D03E7020680168CA079E
:1005D00003D4026842F001020260CDF804900BF0EF
:1005E000FE0B00F075F8242078706FF4806900200D
:1005F000786000F05DF800F05FF8009500F0ACF86E
:10060000002830D12068C0F810B000F02BFD05465E
:100610002168486949694008890A00F0010001F031
:1006200001017A78084323D1A02A21D0BAF1000F22
:1006300004D000F017FD401B8245E9D2A02078705D
:10064000E6E71923FFF79FFF00200090012200F04A
:10065000EDF80095414600F0FDF820B920207870B3
:100660000020387002E0032000E00220BDE8FE8F89
:1006700020207870206841698A07E2D4026842F439
:100680000072026019232068C0F8149000950122BE
:10069000414600F065F80028E5D130460199461C36
:1006A0008842A8D320207870002038700120DDE730
:1006B000DFF81800E06270472068016841F480713B
:1006C0000160704702001000040001000000FFFFFD
:1006D0002068016821F4006101607047F8B50446A4
:1006E0000D46E06A04281EBF012859498842164673
:1006F0001F4602D1FFF7E0FF03E0206B122800F055
:100700008AF80097334600F028F810BB2069B0F54E
:10071000804F04D1216805F0FE050D610EE0E80967
:10072000216800F0060040F0F00008613B463246C8
:10073000464900F086F838B900F074F83B46324676
:10074000414900F07EF828B1206C042801D1012035
:10075000F2BD0320F2BD0096534600224FF0011176
:10076000204677E02DE9F84304460D46E06A21680B
:1007700091460A6842F480620A6004281EBF01287C
:10078000334988421E4602D1FFF796FF03E0206BF3
:10079000112800F040F800964B46FFF7DEFF0028D6
:1007A00036D12069DFF8A080B0F5804F05D12168EF
:1007B00045F00105EDB20D6122E0EF09216807F077
:1007C000060747F0F000086133464A461F4900F02B
:1007D00038F8002817D100F025F800F02FF890B96C
:1007E00000904B46FFF7C0FE016841F48071016044
:1007F0000096FFF7B3FF58B9206847F0F10707618B
:1008000000F01CF828B1206C042808BF012000D09B
:100810000320BDE8F28304D12068036843F48073A9
:10082000036070472068EDB2056170472068416938
:1008300000918069009020460099704733464A46EF
:10084000414620463CE00000020001000800010093
:100850000000FFFF2DE9F8430F46089C3D020646C5
:10086000904699462D0E3068012D1ED140693840C2
:1008700080B2B9B288421ED0002040451DD119F186
:10088000010FF0D0B9F1000F04D000F0EBFB001B1A
:100890008145E8D200203063202106F13C00417000
:1008A000002181700170032008E08069384080B227
:1008B000B9B28842E0D10120DFE70020BDE8F28331
:1008C0002DE9FC410F463E02054614469846360E79
:1008D0002868012E18D14169394089B2BAB29142D3
:1008E00018D041694A0517D5026842F400720260C7
:1008F0006FF480602968486105F13C000422426081
:10090000002100F088F81AE08169394089B2BAB252
:100910009142E6D1002012E014F1010FD8D02CB1A1
:1009200000F0A0FBA0EB08008442D1D20020286395
:10093000202105F13C004170002101700320BDE839
:10094000F68170B505460C461646286841690806CA
:100950000FD4284600F066F808B1012070BD14F1EC
:10096000010FF2D024B100F07DFB801B8442ECD259
:100970001BE0002070BD70B505460C461646286881
:10098000416948070FD4284600F04CF808B101200F
:1009900070BD14F1010FF2D024B100F063FB801B95
:1009A0008442ECD201E0002070BD05F13C00002241
:1009B000416841F0200141602A63202141700270AA
:1009C000032070BD70B505460C461646286841697F
:1009D0004A061ED44169CA0611D424B100F042FB74
:1009E000801B8442F2D205F13C002022416841F094
:1009F00020014160427000210170032070BD6FF042
:100A00001001416105F13C000021416000F003F854
:100A100070BD002070BD296320214170002101704C
:100A20000120704701684A6953050DD56FF4806352
:100A30004B6100F13C0104224A6000220263202045
:100A400048700A700120704700207047402802BF9C
:100A500034480178042902D13348012202707047DA
:100A6000704718B53148324C85B000F035F800F0C9
:100A700033F8016841F001010160026802F00102EF
:100A8000049212220499416841F4001141604FF42C
:100A90008071406800F400100490049800910120D7
:100AA00003210290039101926946204600F0E0FA8A
:100AB0004FF4007012210090019101200321029057
:100AC00003912046694600F0D3FA1A48016841F0C4
:100AD0000201016006B010BD016841F0080101602B
:100AE000026802F0080204920499704710B5124897
:100AF0000F4C016841F4001101604FF480710268ED
:100B000022F400120260204600F073FB4FF40071E3
:100B1000204600F06EFB0748016821F002010160E9
:100B200010BD00000E0000200F0000201810024031
:100B3000000C0140040001401010024000B58FB0CD
:100B40000AA8142100F0EEFB6846282100F0EAFB19
:100B500002200090002110200590019103910220B5
:100B60000121079004914FF4601000210990029137
:100B70000891684600F010F80F200A90022100202A
:100B80000C900E900B914FF480600D900AA800F02D
:100B900091F90FB000BD00002DE9F8430646DFF8DB
:100BA00084543078C1074AD5686800F00C000428E6
:100BB00007D0686800F00C0008280BD16868C103F2
:100BC00008D5296888033AD57068002840F0C080AD
:100BD000012069E17068B0F5803F0FD038B929680D
:100BE00021F480312960286820F4802009E0B0F5E4
:100BF000A02F296807D141F480212960286840F49A
:100C00008030286006E021F4803129602A6822F4CF
:100C100080222A60706868B100F024FA04462968CE
:100C2000880300F1958000F01DFA001B6528F6D3BB
:100C3000032039E100F016FA04462868810340F1E8
:100C4000878000F00FFA001B6528F6D3F0E700F06C
:100C500009FA001B022840F2AA80E9E7306970B166
:100C60000121396000F0FEF904462868810700F18F
:100C7000DC8000F0F7F9001B0228F6D9D8E73860CD
:100C800000F0F0F904462868810765D500F0EAF91C
:100C9000001B0228F7D9CBE7086000F0E3F904460F
:100CA000686A810777D500F0DDF9001B0228F7D9C3
:100CB000BEE708B9286A09E00528286A06D140F08D
:100CC00004002862286A40F0010005E04008400066
:100CD0002862286A20F00400286241F28938F0680E
:100CE00068B100F0BFF98146286A810700F1AA8047
:100CF00000F0B8F9A0EB09004045F5D398E700F003
:100D0000B1F98146286A810740F19C8000F0AAF978
:100D1000A0EB09004045F5D38AE700F0A3F9001BDA
:100D2000022840F2A28083E700F09CF9001B022811
:100D300040F2B5807CE700F0B9F8044628688101EC
:100D400040F1B18000F08EF9001B0228F6D96FE760
:100D50003078DFF8DC7281071BD5686810F00C0F63
:100D600009D0686800F00C0008287FF477AF686845
:100D7000C1033FF573AF2968880703D5306901289F
:100D80007FF426AF2968706921F0F80141EAC001BB
:100D90002960317808071DD5B069DFF8981200285E
:100DA0003FF47AAF01220A6000F05CF90446686AF9
:100DB00081077FF54CAFDFF870120868C0084FF468
:100DC0007A72B0FBF2F2009200BF0098411E002838
:100DD0000091F9D13078410739D5E8690024C10084
:100DE00009D4E86940F08050E8610124E86900F026
:100DF000805000900098DFF84082D8F80010C805B5
:100E00001BD4D8F8000040F48070C8F8000000F04F
:100E100029F98146D8F80010C8050ED400F022F94F
:100E2000A0EB09006528F5D302E72868716920F076
:100E3000F80040EAC1002860ABE7F06801287FF4C1
:100E400038AF3FE71CB1E86920F08050E861F069F5
:100E500048B3696801F00C0108293FF4B9AE0228D3
:100E60007FF469AF00F022F80446286881013FF55D
:100E700054AF306AB0F5803F05D16968B06821F49D
:100E80000031014369606968306A21F474110143DB
:100E9000706A01436960012000F009F8044628687F
:100EA00081017FF541AF0020BDE8F2830020386664
:100EB00000F0D8B82DE9F843604F054638688946F8
:100EC00000F00700484502D200F07AF86CD129788A
:100ED000544C880705D56168A86821F0F0010143EA
:100EE00061602878C10757D56868012802D1216858
:100EF0008A0303E0022803D121688A0103D453E066
:100F00002268910750D56168890840EA81006060D5
:100F100041F2893800F0A6F80646686801280BD12E
:100F2000606800F00C00042836D000F09BF8801BAD
:100F30004045F5D303202DE0022837D1606800F04A
:100F40000C00082828D000F08DF8801B4045F5D310
:100F5000F0E72878410705D56168E86821F4E06189
:100F6000014361602878010706D56068296920F48B
:100F7000605040EAC100606000F02CF862683049BF
:100F8000C2F30312895C284AC84010600F2000F0A9
:100F9000CDF90020BDE8F283386800F007008145F4
:100FA000D7D200F00DF8D4D00120F3E7606810F03C
:100FB0000C0FF1D000F056F8801B4045F6D3B9E78E
:100FC0003968C90849EAC1013960386800F007008A
:100FD000484570471B490A6802F00C00082814D1E4
:100FE0000FF26C03C2F38340D203185C0AD5096880
:100FF0000FF26C030D4AC1F34041595CB2FBF1F1B1
:1010000048437047104948437047084870470648AE
:101010000C4A006813680D49C3F30222FFE7895C9C
:10102000C8407047001002400800002000127A00FB
:101030000000424280044242007000400020024012
:10104000A82700080410024000093D0014290008E8
:1010500002030405060708090A0B0C0D0E0F1010F9
:101060000102000001480068704700BFA80C002082
:101070002DE9F84F83460F46002080469B499C4A45
:101080009C4B4FF00F094FF0010A3C680AFA08F632
:1010900006EA040EB64540F0A4807C683CB3012CFF
:1010A0001AD0022C1DD0032C2ED0112C16D0122CAD
:1010B0001AD0914DAC421CBF904DAC4217D0904D10
:1010C000AC421CBF8F4DAC4211D08F4DAC421CBF07
:1010D0008E4DAC420BD018E0F86816E0F868001DA1
:1010E00013E0F868083010E0F8680C300DE0B868DC
:1010F00008B9042009E0012819BF0820CBF81460C2
:101100000820CBF8106000E00020BEF5807F03D2FD
:10111000DC464FEA880404E0A8F108040BF1040C53
:10112000A400DCF8005009FA04F6B54300FA04F410
:101130002C43CCF800407C68E40052D51C6844F095
:1011400001041C604FEA980C1D6805F0010500952C
:10115000009C52F82C604FEA880404F00C0409FA51
:1011600004F526EA05056A4EB34508BF00260ED0F1
:10117000684EB34508BF012609D0674EB34508BF86
:10118000022604D0654EB3450CBF0326042606FA9A
:1011900004F42C4342F82C406FEA0E067C68E50309
:1011A00004D50D684EEA05050D6002E00C68344078
:1011B0000C607C68A5034C684CBF4EEA04043440C4
:1011C0004C607C68E5028C684CBF4EEA04043440F5
:1011D0008C607C68A502CC684CBF4EEA04043440A5
:1011E000CC6008F10108B8F10F0F7FF64EAFBDE8F3
:1011F000F18F2DE9F84F00223C4BDFF81481DFF826
:10120000F0900F264FF0010B82461BE0434FBA458A
:1012100014BF0427032707FA0CF7BD4211D159F870
:10122000245025EA0E0549F824501C6804401C602F
:101230005C6804405C609C6804409C60DC68204002
:10124000D860521C31FA02F039D00BFA02F0084093
:10125000F7D0B0F5807F03D2D4464FEA820E05E086
:10126000A2F108040AF1040C4FEA840EDCF80040F5
:1012700006FA0EF5AC43042505FA0EF52C43CCF81E
:101280000040C043DAF80C400440CAF80C40970014
:10129000940859F8245007F00C0C06FA0CFEC245CD
:1012A0000EEA050508BF0027B5D01A4FBA4508BF9A
:1012B0000127B0D0184FBA45A8D10227ABE7BDE847
:1012C000F18F8068084018BF0120C0B2704781B01C
:1012D00002B90904016101B07047114A1368034261
:1012E0001CBF1060FFF7B2BB704700000004014054
:1012F00008000140181002400000111000001210F8
:1013000000002110000022100000311000003210F7
:1013100000080140000C0140001001400014014091
:1013200014040140002200F015B8000010B508496F
:101330000A6804464FF47A70B2FBF0F000F067F8E8
:10134000002221464FF0FF3000F03AF8002010BD97
:101350000800002000B500BF1300964694461039DF
:1013600028BFA0E80C50FAD85FEA417C28BF0CC027
:1013700048BF40F8042BC90728BF20F8022B48BFFC
:1013800000F8012B00BD00000901002881B006D53E
:10139000294A00F00F00104400F8041C01E0274A1D
:1013A000115401B07047264A13684FF6FF0100023E
:1013B0000B4000F4E0601843224908431060704776
:1013C00038B51F4B1C68C4F30223C3F10704052C76
:1013D00028BF04241D1D072D34BF0023DB1E01255B
:1013E00005FA04F4641E2140994005FA03F35B1EDC
:1013F0001A401143BDE83440C6E7012200F01F0146
:10140000114BFFE78A40400943F82020704710B590
:10141000401EB0F1807F01D3012010BD0B4C6060F5
:101420000F214FF0FF30FFF7AFFF0022A26007202F
:101430002060002010BD000018ED00E000E400E096
:101440000CED00E00000FA0500E100E010E000E033
:101450002DE9F84F8246754E00203070707083463B
:10146000504600F0E9F802255FEA000803D000F0DA
:10147000DFF8441C07E0504600F0CEFA044600F0C6
:10148000D7F80419641C9AF818010AF58C7950B33E
:10149000484600F0C1FA00F1030B0BEB04000830E2
:1014A000B4F5807F28BFC01CBBF5807F28BFC01C5F
:1014B000B0F5807F0BD3C121B170F570010E317191
:1014C000F071010C71710825010AB17104E0D1219C
:1014D000B170F5703071052550A0711902780A704D
:1014E000AD1C42784A7081207055B4F5807F3CBFB6
:1014F000912070559AF8180118B9715D41F04001BA
:1015000071556D1C012070556D1C6F1CB4F5807FEA
:101510000AD3200E7055200CF0557F1C200AF05580
:101520007F1CF4557F1C00E074553DA0F119027832
:101530000A707F1C06F807807F1CB8F1000F0BD1E2
:10154000504600F069FA02465146F01900F080FA60
:10155000504600F061FAC71900F06AF802460AF135
:101560005001F01900F074FA00F062F8C7199AF807
:101570001801002838D0781CBBF5807F10D341219A
:10158000F15507460120F0557F1C4FEA1B60F055CE
:101590007F1C4FEA1B40F0557F1C4FEA1B2003E0E5
:1015A0005121F15507460120F0557F1C1DA006F87A
:1015B00007B07F1CF11902780A707F1C0220F055D9
:1015C0007F1C19A0F11902780A70BF1C42784A707A
:1015D000484600F021FA02464946F01900F038FA70
:1015E000484600F019FAC7193246B9B2002000F097
:1015F0001EFBB0F5104F08D1BF1E380A307077704F
:1016000032460221002000F012FBB0F5104F0CBF53
:1016100001200020BDE8F28F0000000053700000A0
:101620005500000054000000656E000024000020FA
:101630000AF1500000F0F0B910B504460B220FF289
:10164000382100F017FB08B9012010BD0C220FF261
:10165000382100F00DF908B9022010BD07220FF261
:10166000382100F005F908B9032010BD08220FF257
:10167000342100F0FDF808B9042010BD04220FF257
:10168000302100F0F5F808B9052010BD07220FF24F
:10169000282100F0EDF808B9062010BD1A220FF23B
:1016A000242100F0E5F808B9072010BD0A220FF246
:1016B000302100F0DDF808B9082010BD07220FF234
:1016C0002C2100F0D5F808B9092010BD07220FF22F
:1016D000282100F0CDF808B90A2010BD06220FF22B
:1016E000242100F0C5F808B90B2010BD06220FF226
:1016F0001C2100F0BDF808B90C2010BD06220FF225
:10170000142100F0B5F808B90D2010BD06220FF223
:101710000C2100F0ADF808B90E2010BD05220FF223
:10172000042100F0A5F808B90F2010BD09220FF21E
:10173000FC1100F09DF808B9102010BD05220FF231
:10174000F81100F095F808B9112010BD07220FF22A
:10175000F01100F08DF808B9122010BD04220FF22C
:10176000EC1100F085F808B9132010BD04220FF227
:10177000E41100F07DF808B9142010BD04220FF226
:10178000DC1100F075F808B9152010BD05220FF224
:10179000D41100F06DF808B9162010BD05220FF223
:1017A000CC1100F065F808B9172010BD08220FF21F
:1017B000C41100F05DF808B9182010BD0A220FF21C
:1017C000C01100F055F808B9192010BD09220FF218
:1017D000BC1100F04DF808B91A2010BD0A220FF212
:1017E000B81100F045F808B91B2010BD0B220FF20C
:1017F000B41100F03DF808B91C2010BD07220FF20B
:10180000B41100F035F808B91D2010BD0B220FF2FD
:10181000B01100F02DF808B91E2010BD0B220FF2F8
:10182000B01100F025F808B91F2010BD0C220FF2EE
:10183000B01100F01DF808B9202010BD0C220FF2E5
:10184000B01100F015F808B9212010BD08220FF2E0
:10185000B01100F00DF808B9222010BD08220FF2D7
:10186000AC1100F005F808B9232010BD002010BD10
:10187000204600F0FFB90000687474703A2F2F778B
:1018800077772E000000000068747470733A2F2F71
:101890007777772E00000000687474703A2F2F005D
:1018A0000000000068747470733A2F2F000000006D
:1018B00074656C3A000000006D61696C746F3A00E9
:1018C000000000006674703A2F2F616E6F6E796DA4
:1018D0006F75733A616E6F6E796D6F75734000004E
:1018E0006674703A2F2F6674702E000066747073E1
:1018F0003A2F2F0000000000736674703A2F2F00FB
:1019000000000000736D623A2F2F00006E66733A7C
:101910002F2F00006674703A2F2F00006461763A12
:101920002F2F00006E6577733A00000074656C6EAF
:1019300065743A2F2F000000696D61703A00000055
:10194000727473703A2F2F000000000075726E3AA7
:1019500000000000706F703A000000007369703A78
:1019600000000000736970733A00000074667470C0
:101970003A00000062747370703A2F2F000000006C
:1019800062746C326361703A2F2F00006274676F6B
:1019900065703A2F2F0000007463706F6265783AAB
:1019A0002F2F0000697264616F6265783A2F2F00F3
:1019B0000000000066696C653A2F2F0000000000EF
:1019C00075726E3A6570633A69643A00000000000F
:1019D00075726E3A6570633A7461670000000000CA
:1019E00075726E3A6570633A7061743A0000000077
:1019F00075726E3A6570633A7261773A0000000062
:101A000075726E3A6570633A0000000075726E3A46
:101A10006E66633A0000000000F10103810704D004
:101A200010F8011B89B18107FAD10268B2F10131C6
:101A3000914311F0803F04BF50F8042FF6E710F8EF
:101A4000011B11B110F8011BFBE7C01A7047000021
:101A500062B38B0708D0521E11F8013B00F8013B1E
:101A600000F024808B07F6D1830740F0208000BF70
:101A7000103A07D330B4B1E83810103AA0E8381063
:101A8000F9D230BC530724BFB1E80810A0E8081011
:101A900044BF51F8043B40F8043BD20724BF31F85F
:101AA000022B20F8022B44BF0B7803707047121FE3
:101AB00017D35B0009D151F8043B20F8023B1B0C03
:101AC000121F20F8023BF6D20BE051F8043B00F85D
:101AD000013B1B0A20F8023B1B0C121F00F8013BC4
:101AE000F3D238BF121D521E24BF11F8013B00F87B
:101AF000013BF8D87047000038B5054600F087F97B
:101B0000052400F09FF9641EB0F5104F06D0002C9C
:101B1000F7D101E000F0B9F9002032BD00F0BCF9C6
:101B2000B0F5104FF8D100F0EDF9B0F5104FF3D14A
:101B30002A460F21002000F053F8B0F5104FE9D1EC
:101B4000687AA97A41EA00214748018000F09DF9AE
:101B5000B0F5104FE0D1012032BDF8B5434F444AF3
:101B600004463868052590420ED14FF6FF76B14203
:101B700010D100F076F901E0A9B259B9B0F5104FD3
:101B80000ED000F044F903E0A04201D10120F2BDE3
:101B90000020F2BD00F056F9B0F5104F3544EBD1FE
:101BA00000F07AF9B0F5104FF2D1204600F0E5F9D7
:101BB000B0F5104FECD13C60E8E738B52B4C2C4D1C
:101BC0002168814206D100F060F9B0F5104F05D1CF
:101BD000256001E0A94201D1012032BD002032BDC3
:101BE00070B500F019F80FDD3246F621A0B200F012
:101BF000E0F900F016F802DDB0F5104FF4D0B0F5C2
:101C0000104F08D1290006D03246E9B2A0B2BDE893
:101C1000704000F0CEB970BD0D46F62D0446164654
:101C20007047F63DF634F636ADB2F62D704770B516
:101C3000FFF7F2FF0FDD3246F621A0B200F0EEF919
:101C4000FFF7EFFF02DDB0F5104FF4D0B0F5104F05
:101C500008D1290006D03246E9B2A0B2BDE87040F2
:101C600000F0DCB970BD00000C0000200000002076
:101C7000EFBEADDE0300002013F0030F09D0521EAB
:101C800022BF13F8010B11F801CBB0EB0C00F3D01D
:101C9000704711F0030F14D1121F22BF53F8040B29
:101CA00051F804CB6045F7D0121D0AD200BA9CFA55
:101CB0008CFCB0EB0C0038BF6FF0000088BF012037
:101CC0007047521E22BF13F8010B11F801CBB0EB85
:101CD0000C00F6D0521C08BF1046704710B50246E3
:101CE00046F2633012F8013B434083EA0313DBB250
:101CF0001C0284EA102080EAC30080EA1310491E07
:101D0000CBB2002BEED180B210BD38B50D00044629
:101D100002D0FFF7E3FF20B9601910F8041D4078E6
:101D200008E005212046FFF7D9FF08B1122032BD97
:101D30006178A07840EA012032BD0EB4F0B5099C6C
:101D40000A9D064600202080F107DFF86C040AD5C2
:101D50000178491E8941C90F017001212180017854
:101D600041F0020129700078010703D500F04BF81B
:101D700000212954B00704D500F045F89DF814104F
:101D80002954700704D500F03EF89DF81510295429
:101D9000300704D500F037F89DF816102954F006E6
:101DA00004D500F030F89DF817102954B00604D57A
:101DB00000F029F89DF81810295470060AD59DF8EE
:101DC0001870208807993A462844FFF741FE20887A
:101DD0003F182780300604D500F015F89DF8201034
:101DE0002954F0050CD52188C9B22846FFF776FFA3
:101DF00021886854491C4A1C89B22280000A685410
:101E0000F0BC5DF810FB2088411C2180704780B534
:101E100000F07EFA00F099FADFF8A00300210160DB
:101E20000171017300F11001816000F01AF8B0F542
:101E3000104F06D1032000F0D4F9BDE8014000F0B6
:101E400000BB01BD80B526218DF800100120694638
:101E500000F073FB18B900F0D4FA00B912E01120B9
:101E600002BD80B50FF2F03000788DF800006946B1
:101E7000012000F062FB18B900F0C3FA00B901E0DC
:101E8000112002BD4FF4104002BD80B500F0D9FA18
:101E900000B9F7E7112002BD38B50FF2C031DFF805
:101EA0001C5386B0D1E9002304A80024C0E9002314
:101EB000A42068702C700420A870EC700720287192
:101EC0000722A86804A9FFF7C3FD2C7303A8DFF855
:101ED000F0420294019083B000F034F940F2FF1018
:101EE0000EBCFFF72AFF00F049F940B900F046FBAD
:101EF00028B900F03FF910B900F04BF900E01120CB
:101F000007B030BD1FB500F026F8032203E01FB56F
:101F100000F021F801224A7000F05DF983B000F072
:101F200051F90EBCFFF709FFBDF80C002146C0B205
:101F300000F003FB60B900F021FB48B92146052001
:101F400000F008FB20B905212046FFF7DEFE00E087
:101F5000112004B010BDDFF86402DFF864420021F4
:101F60000170E122A4214170002181700C21C17017
:101F70000221017181680A7070471FB5DFF83C12B9
:101F8000DFF83C4200220A70030AA4224A700022B1
:101F90008A700C22CA7002220A718A68137050700B
:101FA000029400F004F983B040F27F1000F0F6F8DC
:101FB000B7E7F8B50E46154600F0E6F8FFE70A70F9
:101FC00084B0B0224A70029400F0EFF883B00E7330
:101FD000CDE9002340F29F10D1E90223CDE902238D
:101FE0000EBCFFF7AAFE00F0C9F8A0B900F0C6FACF
:101FF00088B9771D2146F8B200F0ACFA58B9F9B2A9
:102000002046FFF782FE07463246611C2846FFF74E
:102010001FFD384600E0112005B0F0BD38B513466D
:1020200000F0A2F82971D6226A7084B0020AAA7060
:102030000A46A8681946FFF70BFD00F091F883B037
:1020400000F086F80EBCFFF778FE00F097F8002845
:102050003BD100F093FA002837D100F08BF8054609
:1020600080B290BB207800F0C000C02826D10421A7
:102070002046FFF74AFE122825D0F2208DF80000F6
:10208000022160788DF801006846FFF727FE8DF881
:1020900002006946000A8DF80300042000F04DFAA2
:1020A00080B900F06BFA68B96946052000F052FA71
:1020B00040B905216846FFF728FE01E000F069F805
:1020C000054600E01125A8B200E0112005B030BDA2
:1020D00038B5032884B0134603DC0A0018BF102A61
:1020E00001D014202CE0354D00242C70E870202401
:1020F0006C702971040AAC70102A314C09D1A8689F
:102100001946FFF7A5FC00F02BF883B000F020F88B
:1021100006E000F025F883B000F014F840F23F101C
:102120000EBCFFF70AFE00F029F840B900F026FACD
:1021300028B900F01FF810B900F02BF800E01120CA
:1021400005B030BD0ECD68460EC0296801607047ED
:102150000ECD68460EC02968016040F27F107047BE
:1021600003A8029401907047144D154CE8700022AA
:102170002A7070472146052000F0ECB9BDF80C002C
:102180002146C0B200F0D9B90C490D4CC8700022EC
:10219000704705212046B8E540F21F10CDE9002325
:1021A000D1E90223CDE902237047020A8A7003A80D
:1021B0000190D1E90023704710000020440A00205C
:1021C000540B0020CDE90023D0E90223CDE90223FE
:1021D00040F27F10704703A902940191D0E90023D7
:1021E000704730B585B000F032F82546062DA8BFFF
:1021F00014201EDA012000F001F9FFF74DFEFFF771
:1022000086FE00F020F89DF8000000F0F000044386
:102210008DF80040FFF77BFE00F00DF800F00FF89E
:102220000446032D02BFB4F5104F042000F0E6F879
:10223000204605B030BD01AA1021032048E76A46B8
:1022400001210420EAE66A4601210420B1E60446A1
:1022500001A81021FFF766B852000000D2760000F6
:102260008501010030B5FDB000F0C0F9FEF766FC55
:10227000002000F0CDF95448544D0168544C41F011
:1022800004010160026802F0040200920122009938
:10229000016841F0080101603021006800F0080089
:1022A0000090009801910320002104900391029274
:1022B00001A92846FEF7DCFE4FF48060019001A9D9
:1022C00000F06DF800F0E4F90128FBD10122202193
:1022D0002846FEF7FCFF0FF20C1090E82C0005A931
:1022E00019A881E82C0007220FF20811FFF7C0FBA4
:1022F00034A04BA902780A7005A800F005FA01285D
:10230000FAD101224FF480612046FEF7E0FFFEE79C
:1023100038B5304D304C2868A04204BF2846FDF740
:1023200049FF4FF4804028612C600020E860A861DC
:102330002A4868600020A8602846FDF7D7FE18B13B
:10234000002000F08EF9FEE731BD18B51E48244A82
:102350001F4C85B0016841F0040101604021006814
:1023600000F00400049004980091002003210290E2
:102370000391019200F012F8002203211720FFF7C9
:102380001FF81720FFF739F8802000900121002066
:102390000191029000F002F806B010BD6946204697
:1023A000FEF766BE00F0CAB910B50446FEF75AFE45
:1023B000206010BD10B5044640210548FEF781FF9E
:1023C000207010BD0000000018100240000C0140F9
:1023D00000080140540C002000540040801A060000
:1023E00000002110687474703A2F2F7777772E00D1
:1023F0000000000073742E636F6D00007849087050
:1024000070473EB500200190009001A8FFF7CCFF77
:10241000744D01230122AC212846FEF7B9F8044689
:102420006846FFF7C1FF00980199401AC82804D2F6
:10243000002CEED103E011203EBD002CFBD100208A
:102440003EBD38B5674D05F13C04607820283FD18A
:10245000FEF708FE2178012901D1022032BD0122B8
:102460002968227001230A6822F400620A6021218F
:1024700061701021A1700021616069626985298500
:1024800029680A6842F480720A60009000224FF0C6
:102490000111284600F01EF808B1032032BD29685A
:1024A000AC2008612820FFF77DFF002000902868FD
:1024B00041690091826900920099016841F40071BC
:1024C000016000206060202060700020A0702070FB
:1024D000002032BD2DE9F8430F46089E3D0281469B
:1024E00090461C462D0ED9F80000012D1AD14069E6
:1024F000384080B2B9B288421AD00020404519D184
:1025000014F1010FEFD024B1FEF7ACFD801B844223
:10251000E9D209F13C002021417000218170017055
:10252000032008E08069384080B2B9B28842E4D123
:102530000120E3E70020BDE8F28338B504460D46EC
:10254000FFF75FFF20B900F012F8FDF74EFE00B173
:10255000112032BD38B504460D46FFF752FF20B9B1
:1025600000F005F8FDF79BFE00B1112032BD0120FF
:10257000009023462A46AC211A4870477CB5184E75
:10258000194C30780025401E032806D8DFE800F0FB
:1025900002070D1CFFF735FFA0B1102076BD5020BB
:1025A000FFF700FF0EE0002CF7D06846FFF702FFB0
:1025B0009DF8000000B96D1C641EEDB2052DF2DB24
:1025C000002CEAD0002076BD6846FFF7F3FE9DF8A8
:1025D0000010012902D170780028FCD07570F1E755
:1025E0000E000020540C0020FFFF0F0080B50748AC
:1025F000016841F0100101600320FEF7D4FE0F20B6
:10260000FEF794FEFEF72CFA002002BD00200240E7
:1026100078B5040085B009D11A48016841F0040179
:102620000160006800F004000090009800F00DF8D0
:10263000019501200290002103200490039100F0F5
:102640001BF800F008F806B070BD0FF240000E4E07
:1026500030F81450704756F8240000222946FEF73F
:1026600036BE0FF22801084B31F8101053F8200045
:102670000122FEF72CBE029101A956F82400FEF7B4
:10268000F7BC0000181002400400002020000000E9
:102690001FB50F216846FFF72FFA012832D19DF8A8
:1026A00000309DF8014024499DF80E20CA7344EA89
:1026B00003249DF802300C808B709DF804409DF837
:1026C000033044EA03248C809DF805309DF80640D1
:1026D00044EA03249DF807300B72CC809DF8083043
:1026E0009DF80A404B729DF8093044EA03244C815E
:1026F0009DF80B309DF80C4044EA03249DF80D3002
:102700008C818B7304B010BD70B500F00EF80025FD
:10271000012804D12046FEF79BFE00F002F828466F
:1027200070BD05467089FFF748BA034E04467089AC
:102730000021FFF712BA00001400002031B5FEF7A7
:1027400091FC009D15F1010F044618BF6D1CFEF7AA
:1027500089FC001BA842FAD331BD00000E4908686D
:1027600040F0010008604A680C4802404A600B686B
:102770000B4803400B60086820F4802008604FF489
:102780001F004A6822F4FE024A6088604FF0006031
:102790000449086070470000001002400000FFF884
:1027A000FFFFF6FE08ED00E0000000000000000062
:1027B000010203040607080919E050F8042BD307A7
:1027C00044BFA9F101039A18091F0023042942F804
:1027D000043BF9D25FEA817C134604D54FF0000C2C
:1027E000A2F800C09B1CC90744BF0021197050F813
:1027F000041B0029E1D1704710B450F8041B79B1D3
:102800000268436802440830DC0744BFA9F10104B0
:10281000E31852F8044B43F8044B091FF9D1ECE7D5
:1028200010BC704710B5074979441831064C7C44F8
:10283000163404E00A68081D114488470146A14285
:10284000F8D110BD08000000280000006DFFFFFF58
:10285000980C000014000020000000009DFFFFFF06
:1028600014000000800000000000002000000000B4
:1028700000F00DF8002801D0FFF7D4FFAFF300807F
:102880000020AFF30080FFF7EDFC00F002F801201C
:10289000704700F001B800000746384600F002F823
:1028A000FBE7000080B5AFF30080024A110018205A
:1028B000ABBEFBE7260002007047FEE7FEE7FEE73F
:1028C000FEE770477047704700F004B84020FEF7FD
:1028D00004BD000002480168491C0160704700BF48
:1028E000A80C0020EFBEADDE0008014000A24A04A3
:1028F000ADDE0100010000000148804701480047AB
:102900005D27000809290008AFF30080AFF30080BD
:10291000FFF7AEFF0000000001020304FFF7FEBF57
:10292000FFF7FEBFFFF7FEBFFFF7FEBFFFF7FEBFDB
:10293000FFF7FEBFFFF7FEBFFFF7FEBFFFF7FEBFCB
:10294000FFF7FEBFFFF7FEBFFFF7FEBFFFF7FEBFBB
:10295000FFF7FEBFFFF7FEBFFFF7FEBFFFF7FEBFAB
:10296000FFF7FEBFFFF7FEBFFFF7FEBFFFF7FEBF9B
:10297000FFF7FEBFFFF7FEBFFFF7FEBFFFF7FEBF8B
:10298000FFF7FEBFFFF7FEBFFFF7FEBFFFF7FEBF7B
:10299000FFF7FEBFFFF7FEBFFFF7FEBFFFF7FEBF6B
:1029A000FFF7FEBFFFF7FEBFFFF7FEBFFFF7FEBF5B
:1029B000FFF7FEBFFFF7FEBFFFF7FEBFFFF7FEBF4B
:0429C000FFF7FEBF60
:0400000508002909BD
:00000001FF
