:020000040800F2
:10000000A81000202D270008ED260008EF26000884
:10001000F1260008F3260008F5260008000000007D
:10002000000000000000000000000000F7260008AB
:10003000F926000800000000FB260008FD26000845
:10004000492700084D2700085127000855270008B8
:10005000592700085D270008612700086527000868
:10006000692700086D270008712700087527000818
:10007000792700087D2700088127000885270008C8
:10008000892700088D270008912700089527000878
:10009000992700089D270008A127000801270008CC
:1000A000A5270008A9270008AD270008B1270008E8
:1000B000B52700080000000000000000B927000874
:1000C000BD270008C1270008C52700080000000060
:1000D000C9270008CD270008D1270008D527000828
:1000E000D9270008DD270008E127000800000000EC
:1000F0000000000000000000000000000000000000
:10010000000000000000000000000000E5270008DB
:100110000000000000000000E927000800000000C7
:1001200000000000000000000000000000000000CF
:1001300000000000000000000000000000000000BF
:10014000ED270008F1270008000000000000000073
:10015000000000000000000000000000000000009F
:10016000F5270008F9270008FD27000801280008E6
:10017000052800080000000000000000000000004A
:10018000000000000928000838B5040001D1012052
:1001900032BD04F14005687820B90021297020465D
:1001A00000F0ECFA00F054F86068216820F070600C
:1001B00008612068816821F400418160E068A168DD
:1001C000012820680CBF41F4004141F404418160E2
:1001D000E168022903D122684FF400605060206872
:1001E000416841F0007141F4004141602068C168FC
:1001F00021F40041C1606069216922680143A0695E
:1002000041EA0021D160206AE16901432068016070
:100210002068016841F00101016000206860202031
:10022000687000202063A87032BD38B5040001D189
:10023000012032BD04F1400500F00AF8204600F02C
:10024000D9FA0020686068702063A870287032BDF9
:1002500024206870206801684908490001607047DF
:100260002DE9FC4700F0CAF845D12178012942D098
:100270000120207000F004FB00F0B7F8002835D111
:10028000DDF82880212000F0C2F804D335854FF432
:100290000051009109E0728D32854FF4005000F05A
:1002A00095F805E03585002000904FF08073FF221F
:1002B00000F097F800F08FF820D000F09CF918B10A
:1002C0006068042812D120E000F0B3F8F2D1708DFC
:1002D0000028EFD00097434600F01CF830B900F03A
:1002E000A4F8DFD2728D32850020D8E7032003E026
:1002F00000F0AEF800E00220BDE8F68700F094F9C7
:100300000028F5D060680428F0D10120F4E7CDF88A
:1003100000903B4600228021304600F047B92DE98D
:10032000FC4700F06BF845D12178012942D001202B
:10033000207000F0A5FA00F058F8002835D1DDF85B
:100340002880222000F063F804D335854FF4105143
:10035000009109E0728D32854FF4105000F036F8AC
:1003600005E03585002000904FF08073FF2200F0FB
:1003700038F800F030F820D000F077F918B1606854
:10038000042812D120E000F072F8F2D1708D00281C
:10039000EFD000974346FFF7BDFF30B900F045F8B6
:1003A000DFD2728D32850020D8E7032003E000F011
:1003B0004FF800E00220BDE8F68700F035F900288C
:1003C000F5D060680428F0D10120F4E700904FF0E8
:1003D0000073D2B27047708D00283A4641463046CD
:1003E00070474946304600F0ACB9074600971923DC
:1003F00001224FF40041304600F0D8B8064606F11D
:10040000400489466078202815469A4670476070F7
:100410001020A070002060607562A6F82AA07063AA
:10042000FF25708DB0F5807F7047708DB0F5807FAF
:100430007047706A411C7162316800788862708D03
:10044000411E7185308D401E308580B20028704776
:1004500031682020C8613168DFF82C014A68024009
:100460004A60202060700020A07020707047706A81
:10047000411C716231684A6A0270308D401E3085BD
:1004800080B2718D4A1E0028728570472DE9FC47A5
:1004900005460020019005F140067078202841D1E2
:1004A0002C68A06904043DD43478012C3AD0012092
:1004B0003070C1F309012420707041F420580020ED
:1004C00041F000711C469246706041F40059E868A2
:1004D000296801280CBF48464046486000F0D0F922
:1004E0000746286881698A061FD48169CA061CD418
:1004F0007178A02919D014F1010FF2D0002C39D055
:1005000000F0BEF9C01B8442EBD233E000F037F8B4
:1005100030B929682020C86170700020307002E076
:10052000032000E00220BDE8F68780690097C1063D
:100530002346EBD500F023F80028F1D129681020DC
:10054000C86120202A68D0610198411C5045019162
:100550000DD12868416841F48041416000972346ED
:1005600000F00DF80028DBD129682020C86101982F
:100570005045ACD32020707000203070D0E70022AE
:100580002021284600F012B800E800FE81B0006883
:1005900081698A0744BF002282628169CA0703D445
:1005A000816941F00101816101B070472DE9F0419D
:1005B000069F05460E4690461C46286881693140D4
:1005C000B1420CBF01200020404511D114F1010FB0
:1005D000F3D024B100F054F9C01B8442EDD205F1F0
:1005E000400020214170002181700170032000E053
:1005F0000020BDE8F08170B505460C461646286817
:10060000816988070ED400F025F808B1012070BD7B
:1006100014F1010FF3D024B100F032F9801B8442B1
:10062000EDD21BE0002070BD70B505460C461646A5
:100630002868816988060BD400F00CF830B924B121
:1006400000F01EF9801B8442F2D207E0012070BD49
:10065000002070BD32462146284638E000F02EF8D2
:10066000002181700170032070BD70B505460C46F5
:1006700016462868816948071ED4FFF7EBFFC8B902
:10068000286881698A0609D424B100F0F9F8801B32
:100690008442EED200F012F80021E3E72021C1618C
:1006A0002F4829684A6802404A6005F1400000214D
:1006B00000F040F8012070BD002070BD05F1400041
:1006C0002022416841F0200141604270704770B5BE
:1006D00005460C4628688169C806164611D5286863
:1006E00081698A060FD414F1010FF8D024B100F00B
:1006F000C7F8801B8442F2D205F1400020214170EE
:10070000AEE7002070BD1021C16120202968C861BA
:100710002846FFF73BFF296800F007F805F1400085
:10072000042100F007F8012070BD0D484A6802401E
:100730004A60704741602021417000218170017042
:10074000704770B50568049C6E6806480640C1F3A2
:100750000901314341EA024119432143696070BDF7
:1007600000E800FE009800FC402802BF2D480178F8
:10077000042902D12C4801220270704710B52B4881
:100780002B4C86B000F02DF8059900F02AF81222C3
:100790000599816841F4001181604FF4807180688F
:1007A00000F40010059005980091002000F013F867
:1007B00001926946204600F069F84FF400700090FD
:1007C00012210020019100F006F86946204600F051
:1007D0005DF806B010BD029003210420039104903F
:1007E0007047016841F480210160026802F48022B0
:1007F0000592704710B50F480D4C016841F4001187
:1008000001604FF48071026822F4001202602046F9
:1008100000F007F92046BDE810404FF4007100F0E9
:1008200000B900000E0000200F000020141002404C
:10083000000400481010024080B502219CB0002046
:100840000C9105900D904FF460110E9105A800F0E9
:1008500079F90F2102200091019000214FF480606E
:100860000291039004916846022100F0EAFA2020E8
:100870000F90102112910FA800F0BCFB1DB000BD1D
:1008800001480068704700BFA00C00202DE9F84F18
:100890004FF0000EA44AA54BDFF894824FF00F09E9
:1008A00082460F4633E0A34DAA4514BF0525032514
:1008B0008D40254343F82C50C143146801EA040CD1
:1008C0007C68E50348BF40EA0C0CC2F800C05468DD
:1008D00001EA040C7C68A50348BF40EA0C0CC2F88E
:1008E00004C0946801EA040C7C68E50248BF40EA51
:1008F0000C0CC2F808C0D46801EA040C79688C02B8
:1009000048BF40EA0C0CC2F80CC00EF1010E396869
:1009100031FA0EF000F08380012000FA0EFC1CEA90
:100920000100F2D07C68022C18BF122C4FEA8E0115
:1009300010D14FEADE040AEB840401F01C05266A9C
:1009400009FA05FB26EA0B06D7F810B00BFA05F5F5
:10095000354325624FEA4E040325DAF8006097F824
:1009600004B0A540ED430BF0030B2E400BFA04FB43
:100970004BEA0606CAF800607E68012E18BF022EF8
:1009800003D0112E18BF122E17D1DAF80860D7F84D
:100990000CB02E400BFA04FB4BEA0606CAF80860BE
:1009A000DAF8046026EA0C0C7E68C6F3001606FA34
:1009B0000EF646EA0C06CAF80460DAF80C60354018
:1009C000BE6806FA04F42C43CAF80C407C68E400C4
:1009D0009BD5D8F8004044F00104C8F800404FEA25
:1009E0009E0CD8F8005005F00105009501F00C01AF
:1009F000009C53F82C5009FA01F425EA0404BAF1DA
:100A0000904F08BF002509D04B4DAA4508BF0125CE
:100A100004D04A4DAA457FF446AF022548E7BDE819
:100A2000F18F2DE9F84F89464FF0000A3E49424ABE
:100A30003E4B4FF00F0805461DE03E4FBD4214BF30
:100A40000527032707FA0CF7BE4212D153F824609A
:100A500026EA0E0643F82460C0430C6804400C608C
:100A60004C6804404C608C6804408C60CC6820402A
:100A7000C8600AF1010A39FA0AF03ED0012000FAF2
:100A80000AFE1EEA0900F4D003264FEA4A0406FAD9
:100A900004F42E68E44326402E604FEADA0705EBA3
:100AA00087064FEA8A0C376A0CF01C0B08FA0BFB1E
:100AB00027EA0B0737620CF00C0CAE682640AE60DC
:100AC0006E6826EA0E066E6008FA0CFEEE68344088
:100AD000EC60B5F1904F4FEA9A0453F824600EEAA7
:100AE000060608BF0027ADD0954208BF0127A9D050
:100AF000124FBD42A1D10227A4E7BDE8F18F0069E2
:100B0000084018BF0120C0B2704781B0002A14BF4E
:100B10008161816201B07047094A136803421CBFBA
:100B20001060FFF721BE704700040140080001403B
:100B300018100240000C004800040048000800485B
:100B4000140401402DE9F8430446DFF8605420788E
:100B5000C10740F1D680686800F00C00042807D077
:100B6000686800F00C0008280AD16868C10307D53E
:100B700000F062F938D06068002827D101204BE1ED
:100B80006068B0F5803F09D008B929680AE0B0F57F
:100B9000A02F296806D141F480212960286840F4FB
:100BA000803005E021F480312960286820F480201D
:100BB0002860E96AA068090940EA0111E9626068F1
:100BC00068B1FFF75DFE064600F036F940F0998007
:100BD000FFF756FE801B6528F6D303201CE1FFF7C4
:100BE0004FFE064600F028F900F08B80FFF748FE24
:100BF000801B6528F6D3F0E7FFF742FEC01B0228F2
:100C000040F2AE80E9E7206970B101213160FFF761
:100C100037FE074600F00BF940F08D80FFF730FEFD
:100C2000C01B0228F6D9D8E73060FFF729FE074637
:100C300000F0FDF800F08680FFF722FEC01B0228BE
:100C4000F6D9CAE70860FFF71BFE074600F08BF9EC
:100C500000F08A80FFF714FEC01B0228F6D9BCE71B
:100C600008B9286A09E00528286A06D140F004007E
:100C70002862286A40F0010005E040084000286230
:100C8000286A20F00400286241F28938E06870B1D7
:100C9000FFF7F6FD8146286A00F066F940F094807F
:100CA000FFF7EEFDA0EB09004045F4D395E7FFF711
:100CB000E7FD8146286A00F057F900F08580FFF7CC
:100CC000DFFDA0EB09004045F4D386E7FFF7D8FD30
:100CD000C01B022840F28B807FE7FFF7D1FD001B8D
:100CE000022840F2948078E700F098F8044600F07B
:100CF00099F800F09080FFF7C3FD001B0228F6D999
:100D00006BE72078DFF8B06281071BD5686810F0C8
:100D10000C0F09D0686800F00C0008287FF473AF4E
:100D20006868C1033FF56FAF00F081F81CBF206910
:100D300001287FF423AF2868616920F0F80040EAB9
:100D4000C1002860207801070ED5A069DFF86C1279
:100D500000283FF477AF01220A60FFF791FD0746B4
:100D600000F001F93FF448AF2078410731D5E86938
:100D70000027C10009D4E86940F08050E8610127EC
:100D8000E86900F0805000900098DFF83482D8F8CD
:100D90000010C80513D4D8F8000040F48070C8F8DB
:100DA0000000FFF76DFD8146D8F80010C80506D495
:100DB000FFF766FDA0EB09006528F5D30DE7E068B5
:100DC00001287FF44DAF54E71FB1E86920F080504F
:100DD000E861E069F8B1696801F00C0108293FF4A5
:100DE000CDAE02287FF480AF00F018F8074600F07F
:100DF00019F87FF46BAF6968606A21F474110143DC
:100E0000206A01436960012000F009F8044600F0FF
:100E100009F83FF462AF0020BDE8F283002030669D
:100E2000FFF72EBD2868C0F340600028704728688F
:100E3000C0F34000002870472868C0F340400028F5
:100E400070472DE9F8435F4F05463868894600F042
:100E50000700484502D200F07CF86ED12978534C47
:100E6000880705D56168A86821F0F0010143616039
:100E70002878C10759D56968012903D12068C0F3D2
:100E8000404004E00229206803D1C0F3406018B953
:100E900053E000F069F850D06068800841EA8001B2
:100EA000616041F28938FFF7EBFC0646686801286B
:100EB0000BD1606800F00C00042836D0FFF7E0FC8E
:100EC000801B4045F5D303202DE0022837D1606810
:100ED00000F00C00082828D0FFF7D2FC801B40450A
:100EE000F5D3F0E72878410705D56168E86821F473
:100EF000E061014361602878010706D560682969CF
:100F000020F4605040EAC100606000F031F8616890
:100F10002D4AC1F30311515C254AC84010600F20CF
:100F200000F032F90020BDE8F283386800F00700D5
:100F30008145D7D200F00DF8D4D00120F3E76068E6
:100F400010F00C0FF1D0FFF79BFC801B4045F6D34F
:100F5000B9E73968C90849EAC1013960386800F061
:100F6000070048457047686AC0F340000028704792
:100F700016490A6802F00C00082814D10FF2540335
:100F8000C2F38340D203185C896A09D50FF2540377
:100F9000084A01F00F01595CB2FBF1F14843704778
:100FA0000B49484370470348704700000010024057
:100FB0000800002000127A000000424280044242F1
:100FC0000070004000200240B825000804100240D4
:100FD00000093D0002030405060708090A0B0C0D71
:100FE0000E0F10100102030405060708090A0B0C76
:100FF0000D0E0F102DE9FC410546DFF880612868D1
:10100000C10354D5B0690024C10009D4B06940F0CF
:101010008050B0610124B06900F0805000900098C9
:10102000DFF85C713968C80517D4386840F48070FF
:101030003860FFF725FC80463968C8050DD4FFF7F6
:101040001FFCA0EB08006528F6D3032093E0FFF710
:1010500017FCC01B40451AD3F7E7F06910F4407045
:101060001EBF696801F44071884215D0DFF8141181
:10107000F06901220A6020F4407000220A60F061E9
:10108000C00709D5FFF7FCFB074641F28938F06934
:10109000C0F340000028DAD0F169686821F440719B
:1010A0000143F1611CB1B06920F08050B061297832
:1010B000C80705D5F16AA868890840EA8101F1628C
:1010C0002878810605D5F16AE86821F0100101430E
:1010D000F1622868810305D53168286B21F480010D
:1010E000014331602878410605D5F16A286921F06D
:1010F00020010143F1622868010405D5F16A68699D
:1011000021F040010143F1622868810505D531686D
:10111000E86921F40001014331602878010605D512
:10112000B16AA86921F4F8710143B1622868C10469
:1011300005D5F16A286A21F480710143F1622868BB
:10114000410305D5F16A686A21F480610143F162C7
:101150002868010305D5F16AA86A21F400610143FA
:10116000F1622868C10205D5F16AE86A21F40051EC
:101170000143F1620020BDE8F68100000410024046
:10118000007000404004424210B508490A68044615
:101190004FF47A70B2FBF0F000F04DF800222146D7
:1011A0004FF0FF3000F020F8002010BD08000020B4
:1011B0000901002881B006D5294A00F00F0010442B
:1011C00000F8041C01E0274A115401B07047264A78
:1011D00013684FF6FF0100020B4000F4E060184373
:1011E000224908431060704738B51F4B1C68C4F390
:1011F0000223C3F10704052C28BF04241D1D072D5D
:1012000034BF0023DB1E012505FA04F4641E2140CF
:10121000994005FA03F35B1E1A401143BDE83440C0
:10122000C6E7012200F01F01114BFFE78A40400989
:1012300043F82020704710B5401EB0F1807F01D3E5
:10124000012010BD0B4C60600F214FF0FF30FFF705
:10125000AFFF0022A26007202060002010BD000028
:1012600018ED00E000E400E00CED00E00000FA05FD
:1012700000E100E010E000E02DE9F84F8246754EF5
:101280000020307070708346504600F0E9F8022567
:101290005FEA000803D000F0DFF8441C07E0504686
:1012A00000F0CEFA044600F0D7F80419641C9AF84E
:1012B00018010AF58C7950B3484600F0C1FA00F1E4
:1012C000030B0BEB04000830B4F5807F28BFC01C73
:1012D000BBF5807F28BFC01CB0F5807F0BD3C12138
:1012E000B170F570010E3171F071010C717108254A
:1012F000010AB17104E0D121B170F570307105259A
:1013000050A0711902780A70AD1C42784A70812091
:101310007055B4F5807F3CBF912070559AF8180144
:1013200018B9715D41F0400171556D1C0120705577
:101330006D1C6F1CB4F5807F0AD3200E7055200CF5
:10134000F0557F1C200AF0557F1CF4557F1C00E0EF
:1013500074553DA0F11902780A707F1C06F80780C9
:101360007F1CB8F1000F0BD1504600F069FA02461D
:101370005146F01900F080FA504600F061FAC719A2
:1013800000F06AF802460AF15001F01900F074FA10
:1013900000F062F8C7199AF81801002838D0781CB4
:1013A000BBF5807F10D34121F15507460120F05550
:1013B0007F1C4FEA1B60F0557F1C4FEA1B40F05525
:1013C0007F1C4FEA1B2003E05121F1550746012005
:1013D000F0557F1C1DA006F807B07F1CF11902789C
:1013E0000A707F1C0220F0557F1C19A0F1190278A9
:1013F0000A70BF1C42784A70484600F021FA024643
:101400004946F01900F038FA484600F019FAC719B1
:101410003246B9B2002000F01EFBB0F5104F08D1E3
:10142000BF1E380A3070777032460221002000F06B
:1014300012FBB0F5104F0CBF01200020BDE8F28F69
:101440000000000053700000550000005400000030
:10145000656E0000240000200AF1500000F0F0B991
:1014600010B504460B220FF2382100F017FB08B923
:10147000012010BD0C220FF2382100F00DF908B93F
:10148000022010BD07220FF2382100F005F908B93B
:10149000032010BD08220FF2342100F0FDF808B936
:1014A000042010BD04220FF2302100F0F5F808B935
:1014B000052010BD07220FF2282100F0EDF808B931
:1014C000062010BD1A220FF2242100F0E5F808B919
:1014D000072010BD0A220FF2302100F0DDF808B914
:1014E000082010BD07220FF22C2100F0D5F808B912
:1014F000092010BD07220FF2282100F0CDF808B90D
:101500000A2010BD06220FF2242100F0C5F808B908
:101510000B2010BD06220FF21C2100F0BDF808B907
:101520000C2010BD06220FF2142100F0B5F808B906
:101530000D2010BD06220FF20C2100F0ADF808B905
:101540000E2010BD05220FF2042100F0A5F808B905
:101550000F2010BD09220FF2FC1100F09DF808B910
:10156000102010BD05220FF2F81100F095F808B90F
:10157000112010BD07220FF2F01100F08DF808B90C
:10158000122010BD04220FF2EC1100F085F808B90A
:10159000132010BD04220FF2E41100F07DF808B909
:1015A000142010BD04220FF2DC1100F075F808B908
:1015B000152010BD05220FF2D41100F06DF808B906
:1015C000162010BD05220FF2CC1100F065F808B905
:1015D000172010BD08220FF2C41100F05DF808B901
:1015E000182010BD0A220FF2C01100F055F808B9FA
:1015F000192010BD09220FF2BC1100F04DF808B9F6
:101600001A2010BD0A220FF2B81100F045F808B9EF
:101610001B2010BD0B220FF2B41100F03DF808B9E9
:101620001C2010BD07220FF2B41100F035F808B9E4
:101630001D2010BD0B220FF2B01100F02DF808B9DB
:101640001E2010BD0B220FF2B01100F025F808B9D2
:101650001F2010BD0C220FF2B01100F01DF808B9C8
:10166000202010BD0C220FF2B01100F015F808B9BF
:10167000212010BD08220FF2B01100F00DF808B9BA
:10168000222010BD08220FF2AC1100F005F808B9B5
:10169000232010BD002010BD204600F0FFB900003F
:1016A000687474703A2F2F7777772E00000000004F
:1016B00068747470733A2F2F7777772E00000000CC
:1016C000687474703A2F2F00000000006874747002
:1016D000733A2F2F0000000074656C3A0000000080
:1016E0006D61696C746F3A00000000006674703AB6
:1016F0002F2F616E6F6E796D6F75733A616E6F6EBD
:10170000796D6F75734000006674703A2F2F6674A0
:10171000702E0000667470733A2F2F0000000000D6
:10172000736674703A2F2F0000000000736D623AE8
:101730002F2F00006E66733A2F2F00006674703AE8
:101740002F2F00006461763A2F2F00006E657773AB
:101750003A00000074656C6E65743A2F2F0000002B
:10176000696D61703A000000727473703A2F2F0037
:101770000000000075726E3A00000000706F703A51
:10178000000000007369703A000000007369707314
:101790003A000000746674703A000000627473705E
:1017A000703A2F2F0000000062746C326361703A4F
:1017B0002F2F00006274676F65703A2F2F000000B2
:1017C0007463706F6265783A2F2F000069726461EC
:1017D0006F6265783A2F2F000000000066696C6523
:1017E0003A2F2F000000000075726E3A6570633A60
:1017F00069643A000000000075726E3A6570633AE1
:10180000746167000000000075726E3A6570633A9B
:101810007061743A0000000075726E3A6570633A48
:101820007261773A0000000075726E3A6570633A33
:101830000000000075726E3A6E66633A00000000A8
:1018400000F10103810704D010F8011B89B1810761
:10185000FAD10268B2F10131914311F0803F04BF27
:1018600050F8042FF6E710F8011B11B110F8011B16
:10187000FBE7C01A7047000062B38B0708D0521E06
:1018800011F8013B00F8013B00F024808B07F6D1F2
:10189000830740F0208000BF103A07D330B4B1E88E
:1018A0003810103AA0E83810F9D230BC530724BFE2
:1018B000B1E80810A0E8081044BF51F8043B40F814
:1018C000043BD20724BF31F8022B20F8022B44BF7F
:1018D0000B7803707047121F17D35B0009D151F8C2
:1018E000043B20F8023B1B0C121F20F8023BF6D2EF
:1018F0000BE051F8043B00F8013B1B0A20F8023BC7
:101900001B0C121F00F8013BF3D238BF121D521EF0
:1019100024BF11F8013B00F8013BF8D870470000E4
:1019200038B5054600F087F9052400F09FF9641EDC
:10193000B0F5104F06D0002CF7D101E000F0B9F956
:10194000002032BD00F0BCF9B0F5104FF8D100F026
:10195000EDF9B0F5104FF3D12A460F21002000F029
:1019600053F8B0F5104FE9D1687AA97A41EA00211D
:101970004748018000F09DF9B0F5104FE0D10120FB
:1019800032BDF8B5434F444A0446386805259042B5
:101990000ED14FF6FF76B14210D100F076F901E09A
:1019A000A9B259B9B0F5104F0ED000F044F903E0D8
:1019B000A04201D10120F2BD0020F2BD00F056F995
:1019C000B0F5104F3544EBD100F07AF9B0F5104F77
:1019D000F2D1204600F0E5F9B0F5104FECD13C60B3
:1019E000E8E738B52B4C2C4D2168814206D100F038
:1019F00060F9B0F5104F05D1256001E0A94201D191
:101A0000012032BD002032BD70B500F019F80FDDA5
:101A10003246F621A0B200F0E0F900F016F802DD3F
:101A2000B0F5104FF4D0B0F5104F08D1290006D012
:101A30003246E9B2A0B2BDE8704000F0CEB970BD48
:101A40000D46F62D044616467047F63DF634F6363A
:101A5000ADB2F62D704770B5FFF7F2FF0FDD3246DD
:101A6000F621A0B200F0EEF9FFF7EFFF02DDB0F5CE
:101A7000104FF4D0B0F5104F08D1290006D03246EF
:101A8000E9B2A0B2BDE8704000F0DCB970BD000062
:101A90000C00002000000020EFBEADDE030000209F
:101AA00013F0030F09D0521E22BF13F8010B11F8D7
:101AB00001CBB0EB0C00F3D0704711F0030F14D141
:101AC000121F22BF53F8040B51F804CB6045F7D026
:101AD000121D0AD200BA9CFA8CFCB0EB0C0038BF85
:101AE0006FF0000088BF01207047521E22BF13F81C
:101AF000010B11F801CBB0EB0C00F6D0521C08BF63
:101B00001046704710B5024646F2633012F8013BAA
:101B1000434083EA0313DBB21C0284EA102080EA0C
:101B2000C30080EA1310491ECBB2002BEED180B265
:101B300010BD38B50D00044602D0FFF7E3FF20B911
:101B4000601910F8041D407808E005212046FFF7D1
:101B5000D9FF08B1122032BD6178A07840EA012097
:101B600032BD0EB4F0B5099C0A9D064600202080C7
:101B7000F107DFF86C040AD50178491E8941C90FC5
:101B8000017001212180017841F002012970007863
:101B9000010703D500F04BF800212954B00704D504
:101BA00000F045F89DF814102954700704D500F092
:101BB0003EF89DF815102954300704D500F037F889
:101BC0009DF816102954F00604D500F030F89DF861
:101BD00017102954B00604D500F029F89DF8181004
:101BE000295470060AD59DF81870208807993A463E
:101BF0002844FFF741FE2088C0192080300604D514
:101C000000F015F89DF820102954F0050CD5218816
:101C1000C9B22846FFF776FF21886854491C4A1C40
:101C200089B22280000A6854F0BC5DF810FB20885D
:101C3000411C2180704780B500F07DFA00F098FAD1
:101C4000DFF8A003002101600171017300F11001B0
:101C5000816000F01AF8B0F5104F06D1032000F0B3
:101C6000D4F9BDE8014000F0FEBA01BD80B52621DF
:101C70008DF800100120694600F037FB18B900F01C
:101C8000D2FA00B912E0112002BD80B50FF2F03097
:101C900000788DF800006946012000F026FB18B995
:101CA00000F0C1FA00B901E0112002BD4FF410406C
:101CB00002BD80B500F0D7FA00B9F7E7112002BDE8
:101CC00038B50FF2C031DFF81C5386B0D1E90023DC
:101CD00004A80024C0E90023A42068702C7004200C
:101CE000A870EC70072028710722A86804A9FFF7E4
:101CF000C3FD2C7303A8DFF8F0420294019083B077
:101D000000F034F940F2FF100EBCFFF72AFF00F09C
:101D100049F940B900F00AFB28B900F03FF910B9C1
:101D200000F04BF900E0112007B030BD1FB500F006
:101D300026F8032203E01FB500F021F801224A70C3
:101D400000F05DF983B000F051F90EBCFFF709FF18
:101D5000BDF80C002146C0B200F0C7FA60B900F02F
:101D6000E5FA48B92146052000F0CCFA20B9052152
:101D70002046FFF7DEFE00E0112004B010BDDFF8C2
:101D80006402DFF8644200210170E122A421417065
:101D9000002181700C21C1700221017181680A70DB
:101DA00070471FB5DFF83C12DFF83C4200220A7092
:101DB000030AA4224A7000228A700C22CA700222EE
:101DC0000A718A6813705070029400F004F983B0AD
:101DD00040F27F1000F0F6F8B7E7F8B50E4615466A
:101DE00000F0E6F8FFE70A7084B0B0224A7002946F
:101DF00000F0EFF883B00E73CDE9002340F29F109E
:101E0000D1E90223CDE902230EBCFFF7AAFE00F0C0
:101E1000C9F8A0B900F08AFA88B9771D2146F8B24E
:101E200000F070FA58B9F9B22046FFF782FE074673
:101E30003246611C2846FFF71FFD384600E011209E
:101E400005B0F0BD38B5134600F0A2F82971D622CE
:101E50006A7084B0020AAA700A46A8681946FFF799
:101E60000BFD00F091F883B000F086F80EBCFFF790
:101E700078FE00F097F800283BD100F057FA0028D0
:101E800037D100F08BF8054680B290BB207800F087
:101E9000C000C02826D104212046FFF74AFE1228A0
:101EA00025D0F2208DF80000022160788DF8010025
:101EB0006846FFF727FE8DF802006946000A8DF894
:101EC0000300042000F011FA80B900F02FFA68B97D
:101ED0006946052000F016FA40B905216846FFF76B
:101EE00028FE01E000F069F8054600E01125A8B2DF
:101EF00000E0112005B030BD38B5032884B013468A
:101F000003DC0A0018BF102A01D014202CE0354D44
:101F100000242C70E87020246C702971040AAC70C5
:101F2000102A314C09D1A8681946FFF7A5FC00F02A
:101F30002BF883B000F020F806E000F025F883B01D
:101F400000F014F840F23F100EBCFFF70AFE00F05C
:101F500029F840B900F0EAF928B900F01FF810B9E3
:101F600000F02BF800E0112005B030BD0ECD684622
:101F70000EC02968016070470ECD68460EC0296802
:101F8000016040F27F10704703A8029401907047EF
:101F9000144D154CE87000222A7070472146052028
:101FA00000F0B0B9BDF80C002146C0B200F09DB9F8
:101FB0000C490D4CC8700022704705212046B8E539
:101FC00040F21F10CDE90023D1E90223CDE902231D
:101FD0007047020A8A7003A80190D1E90023704774
:101FE00010000020440A0020540B0020CDE90023FB
:101FF000D0E90223CDE9022340F27F10704703A904
:1020000002940191D0E90023704730B585B000F00B
:1020100032F82546062DA8BF14201EDA012000F054
:10202000FFF8FFF74DFEFFF786FE00F020F89DF861
:10203000000000F0F00004438DF80040FFF77BFE45
:1020400000F00DF800F00FF80446032D02BFB4F5C0
:10205000104F042000F0E4F8204605B030BD01AA7E
:102060001021032048E76A4601210420EAE66A4677
:1020700001210420B1E6044601A8102100F092B924
:1020800052000000D27600008501010010B5FEB0BC
:1020900000F08CF9FEF7D0FB002000F09BF94948D6
:1020A000494C016841F400310160026802F40032D9
:1020B000009201220099016841F4802101603021E1
:1020C000006800F480200090009801910320002116
:1020D00004900391029201A92046FEF7D7FB4FF42A
:1020E0008060019000F07AF800F0B0F90128FBD18F
:1020F000012220212046FEF708FD0FF20C1090E887
:102100001C0006A91AA881E81C0007220FF208117A
:10211000FFF7C2FB2AA04CA902780A7006A800F0BB
:10212000D1F90128FAD101224FF480614FF090409B
:10213000FEF7EBFCFEE738B5244C254D2068A8429D
:1021400004BF2046FEF771F80120E0602560002002
:102150002061E0612062A06060611E4860602046EE
:10216000FEF712F818B1002000F060F9FEE731BD6B
:1021700080B51448184A86B0016841F40031016006
:102180004021006800F40030009000980191002088
:10219000032103900491029200F020F80022032111
:1021A0001720FFF721F81720FFF73BF88020019058
:1021B000012100200291039000F010F807B000BD4B
:1021C000000000001410024000040048540C0020DD
:1021D00000540040732160000000211001A94FF05D
:1021E0009040FEF753BB00F087B910B50446FEF7E8
:1021F00047FB206010BD10B5044640214FF09040D1
:10220000FEF77DFC207010BD687474703A2F2F7734
:1022100077772E000000000073742E636F6D00004E
:102220005B49087070473EB500200190009001A8FE
:10223000FFF7DBFF574D01230122AC212846FEF7B3
:1022400025F904466846FFF7D0FF00980199401A27
:10225000C82804D2002CEED103E011203EBD002C92
:10226000FBD100203EBD70B54A4D05F140042078F9
:10227000012801D1022070BD012121702120607050
:1022800000206060296844484A68024042F40052D5
:1022900042F0AC024A602820FFF7A5FF2868416899
:1022A00041F480414160FEF7EBFA064628688169F7
:1022B0008A060ED4FEF7E4FA801B0228F6D3606883
:1022C00040F020006060202161700020207011200B
:1022D00070BD2021C161314829684A6802404A60C6
:1022E000202060700020207070BD38B504460D4677
:1022F000FFF799FF20B900F012F8FDF7B1FF00B128
:10230000112032BD38B504460D46FFF78CFF20B9C9
:1023100000F005F8FEF703F800B1112032BD0120EE
:10232000009023462A46AC211A4870477CB5184EC7
:102330001B4C30780025401E032806D8DFE800F04B
:1023400002070D1CFFF76FFFA0B1102076BD5020D3
:10235000FFF749FF0EE0002CF7D06846FFF74BFF70
:102360009DF8000000B96D1C641EEDB2052DF2DB76
:10237000002CEAD0002076BD6846FFF73CFF9DF8B0
:102380000010012902D170780028FCD07570F1E7A7
:102390000E000020540C0020009800FC00E800FE15
:1023A000FFFF0F00002200F0B7B8000080B507481B
:1023B000016841F0100101600320FEF708FF0F20C3
:1023C000FEF7E2FE00F004F8002002BD002002400B
:1023D0007047000070B5040086B009D11848016844
:1023E00041F480210160006800F480200090009892
:1023F00000F010F8019501200290002103200490C4
:10240000039101A956F82400FEF740FA00F008F8FD
:1024100006B070BD0FF230000A4E30F8145070470D
:1024200056F8240000222946FEF76FBB0FF2180170
:10243000044B31F8101053F820000122FEF765BB61
:102440001410024004000020002000001FB50F21DE
:102450006846FFF765FA012832D19DF800309DF8F3
:10246000014024499DF80E20CA7344EA03249DF8D4
:1024700002300C808B709DF804409DF8033044EAD4
:1024800003248C809DF805309DF8064044EA03241F
:102490009DF807300B72CC809DF808309DF80A40FB
:1024A0004B729DF8093044EA03244C819DF80B30AF
:1024B0009DF80C4044EA03249DF80D308C818B7309
:1024C00004B010BD70B500F00EF80025012804D14D
:1024D0002046FEF7D1FE00F002F8284670BD054602
:1024E0007089FFF77EBA034E044670890021FFF71A
:1024F00048BA00001400002031B5FEF7C1F9009D74
:1025000015F1010F044618BF6D1CFEF7B9F9001B49
:10251000A842FAD331BD000000B500BF13009646B3
:102520009446103928BFA0E80C50FAD85FEA417CE5
:1025300028BF0CC048BF40F8042BC90728BF20F8AB
:10254000022B48BF00F8012B00BD000014480168B1
:1025500041F4700101601349086840F0010008600F
:102560004A68114802404A600B68104803400B60FB
:10257000086820F4802008604A6822F4FE024A605D
:10258000C86A00090001C8620A6B094802400A6370
:10259000002088604FF00060064908607047000026
:1025A00088ED00E0001002400CC07FF8FFFFF6FE4F
:1025B000CCFC00FF08ED00E000000000000000007F
:1025C000010203040607080919E050F8042BD30799
:1025D00044BFA9F101039A18091F0023042942F8F6
:1025E000043BF9D25FEA817C134604D54FF0000C1E
:1025F000A2F800C09B1CC90744BF0021197050F805
:10260000041B0029E1D1704710B450F8041B79B1C4
:102610000268436802440830DC0744BFA9F10104A2
:10262000E31852F8044B43F8044B091FF9D1ECE7C7
:1026300010BC704710B5074979441831064C7C44EA
:10264000163404E00A68081D114488470146A14277
:10265000F8D110BD2C0000004C0000004EF688514F
:10266000CEF20001086840F470000860BFF34F8F9D
:10267000BFF36F8F4FF00070E1EE100A704700005B
:1026800049FFFFFF900C0000140000200000000034
:1026900079FFFFFF14000000800000000000002010
:1026A0000000000000F00DF8002801D0FFF7C2FF85
:1026B000AFF300800020AFF30080FFF7E7FC00F0ED
:1026C00002F80120704700F001B8000007463846C4
:1026D00000F002F8FBE7000080B5AFF30080024A8B
:1026E00011001820ABBEFBE7260002007047FEE792
:1026F000FEE7FEE7FEE770477047704700F004B85A
:102700004020FEF709BA000002480168491C016038
:10271000704700BFA00C0020EFBEADDE00040048F3
:1027200000127A00ADDE0100010000000148804780
:10273000014800474D2500083D270008AFF3008001
:10274000FFF78CFFFFF7AEFFFFF7FEBFFFF7FEBFFF
:10275000FFF7FEBFFFF7FEBFFFF7FEBFFFF7FEBFAD
:10276000FFF7FEBFFFF7FEBFFFF7FEBFFFF7FEBF9D
:10277000FFF7FEBFFFF7FEBFFFF7FEBFFFF7FEBF8D
:10278000FFF7FEBFFFF7FEBFFFF7FEBFFFF7FEBF7D
:10279000FFF7FEBFFFF7FEBFFFF7FEBFFFF7FEBF6D
:1027A000FFF7FEBFFFF7FEBFFFF7FEBFFFF7FEBF5D
:1027B000FFF7FEBFFFF7FEBFFFF7FEBFFFF7FEBF4D
:1027C000FFF7FEBFFFF7FEBFFFF7FEBFFFF7FEBF3D
:1027D000FFF7FEBFFFF7FEBFFFF7FEBFFFF7FEBF2D
:1027E000FFF7FEBFFFF7FEBFFFF7FEBFFFF7FEBF1D
:1027F000FFF7FEBFFFF7FEBFFFF7FEBFFFF7FEBF0D
:0C280000FFF7FEBFFFF7FEBFFFF7FEBFB3
:040000050800273D8B
:00000001FF
