:020000040800F2
:10000000B01000201D2B0008DD2A0008DF2A0008A0
:10001000E12A0008E32A0008E52A000800000000A1
:10002000000000000000000000000000E72A0008B7
:10003000E92A000800000000EB2A0008ED2A000869
:10004000412B0008452B0008492B00084D2B0008C8
:10005000512B0008552B0008592B00085D2B000878
:10006000612B0008652B0008692B00086D2B000828
:10007000712B0008752B0008792B00087D2B0008D8
:10008000812B0008852B0008892B00088D2B000888
:10009000912B0008952B0008992B0008F12A0008E5
:1000A0009D2B0008A12B0008A52B0008A92B0008F8
:1000B000AD2B0008B12B0008B52B0008B92B0008A8
:1000C000BD2B0008C12B0008C52B0008C92B000858
:1000D000CD2B0008D12B0008D52B0008D92B000808
:1000E000DD2B0008E12B0008E52B0008E92B0008B8
:1000F000ED2B000800000000F12B0008F52B000894
:10010000F92B0008FD2B0008012C0008052C000825
:10011000092C00080D2C0008112C0008000000001C
:10012000152C0008F8B504000FD004F13C056878E0
:1001300020B900212970204600F0AAFC01F01AF82D
:100140000146DFF8FC03814201D20120F2BD2420E8
:100150006870DFF8F073206802685208520002608D
:10016000DFF8E403B1FBF0F2206843689B0942EA40
:100170008313436023681E6A6068B84206D34FF455
:10018000967042434FF47A70B2FBF0F2521CB609FB
:1001900042EA86121A622368DE69D4F804C0BC45BC
:1001A00009D24FEA4C00B1FBF0F1C1F30B00042877
:1001B00014D2042112E0A06820B90CEB4C00B1FB72
:1001C000F0F106E0192202FB0CF0B1FBF0F141F472
:1001D000804108050CBF012141F40041DFF86C03A8
:1001E00006400E43DE6121680A68E06922F0C00221
:1001F0000243206A02430A602168DFF854038A68D8
:10020000024020690243E06802438A602168CA68AC
:10021000A3696069120A034343EA0222CA602068A4
:10022000016841F0010101600020686020206870D1
:1002300000202063A870F2BD38B5040001D1012070
:1002400032BD04F13C052420687000F04DFA00F046
:100250005BFC0020686068702063A870287032BD65
:100260002DE9FC470446894692461E4600F0E2FF0F
:1002700004F13C0705467878202861D100F017FA90
:1002800000F0F0FA00285BD13878012858D001211D
:10029000397000F012FA2B462068DDF8288000F053
:1002A00042F942461020B870494600207860C4F8F0
:1002B00024A06685DFF89C02E062608D20852046E0
:1002C00000F019FA40B17868042802D10021397091
:1002D00032E00020387031E00090206800F012F920
:1002E000208D00282FD02A46414600F0C3FAF0B9ED
:1002F000606A411C616221680078086100F028F89A
:10030000206841694A0707D536B1616A4A1C6262B2
:100310000978016100F01CF82A464146204600F0A9
:1003200042FB0028DCD07868042807D102E0786816
:10033000042803D100F0CAF9012002E0032000E004
:100340000220BDE8F68700F0C1F900F0E6F8F8E712
:10035000608D411E6185208D411E218570472DE9EC
:10036000FC470646884691469A4600F063FF06F130
:100370003C0704467878202807D1009419230122ED
:100380004FF0021100F0C6F8002840F09580387850
:10039000012800F091800121397030680168CA0796
:1003A00001D400F0F9F8234630680A9D00F0C2F845
:1003B00078702A461020B870414600207860C6F850
:1003C0002490A6F82AA0DFF88C01F062708D3085A9
:1003D000304600F0D7F940B17868042802D10021F6
:1003E00039705BE00020387056E0308D08B900901D
:1003F00004E03168012805D100F0B0F8306800F061
:10040000C1F816E00228086806D120F48060086070
:10041000306800F0B0F804E040F48060086000212B
:100420000091306800F06EF803E000F057F800F03B
:100430004EF8308D002842D0042827D2012804D15C
:1004400000F040F80028F0D023E00228DFF808810F
:1004500000942B4609D100F05BF800281CD13068CD
:1004600000F095F800F041F8DFE700F051F80028BF
:1004700012D1306800F079F800F030F8002200F076
:1004800026F8009400F045F830B9E8E700F01AF8D3
:1004900030B17868202801D103200EE001200CE063
:1004A00000F023F8306841694A07C2D5716A4A1CD6
:1004B000726200690870BAE70220BDE8F68700F0B2
:1004C0002CF8FAE722462946304600F093BA308DE0
:1004D000411E3185708D411E71857047706A411CC7
:1004E000716231680A6902707047706A411C7162FA
:1004F00031680A690270308D411E3185708D411E50
:10050000718570474169009180690090009970473A
:1005100000224146304600F0BBB920207870002010
:10052000B87038707047016821F4006101602120C3
:1005300078707047016821F40061016022207047E3
:1005400080841E00A186010040420F000030FFFFA2
:10055000007CFFFF0000FFFF04000100086820F49A
:1005600080600860002100917047016821F480617B
:1005700001602B467047016841F400610160002072
:10058000009070474169009182690092009901686A
:1005900041F4007101607047026842F0010202609C
:1005A00070472DE9F84F0446884693469A4600F076
:1005B00041FE04F13C07054678780126202856D1F3
:1005C00000F075F800F04EF9002850D13878012875
:1005D0004DD03E7000F071F808F0FE0800F07EF893
:1005E000242078706FF4806900207860DFF8E800DC
:1005F000E06200F0C1F8009500F030F9002834D135
:100600002068C0F8108000F015FE054609E0BAF138
:10061000000F04D000F00EFE401B824501D2A02046
:100620007870206841698A0724D441694A0521D439
:100630007978A0291ED01AF1010FF2D0E7E7002047
:10064000009019232068416900910122806900907F
:100650002046009900954FF0021100F019F920B9D9
:10066000202078700020387002E0032000E0022093
:10067000BDE8F28F2021797041698A07026842F44F
:1006800000720260DBD42068C0F8149000F00FF80C
:1006900000F0E8F80028E8D13046461C5845A8D3B9
:1006A00020207870002038700120E1E700000095DC
:1006B000192301224FF00211704720680168CA0710
:1006C00003D4026842F001020260704720680168AA
:1006D00041F40071016070470000FFFF206801686D
:1006E00021F40061016070472068016849084900F1
:1006F000016020467047F8B504460D46E06A0428BC
:100700001CBFE16A01291EBFE06A604988421646A3
:100710001F4602D100F030F804E0206B122801D10E
:1007200000F08FF80097334600F099F810BB20696D
:10073000B0F5804F04D1216805F0FE050D610EE093
:10074000E809216800F0060040F0F00008613B462F
:1007500032464D4900F093F838B900F085F83B4631
:100760003246484900F08BF828B1206C042801D1AA
:100770000120F2BD0320F2BD2068016841F48071C0
:10078000016070472DE9F84304460D4600F05FF81C
:100790009146E06A04281CBFE16A01291EBFE06A95
:1007A0003A4988421E4602D1FFF7E6FF04E0206B7B
:1007B000112801D100F045F800964B4600F04FF8A3
:1007C00000283BD12069DFF8BC80B0F5804F05D10F
:1007D000216845F00105EDB20D6127E0EF092168C0
:1007E00007F0060747F0F000086133464A462649FD
:1007F00000F045F800281CD100F036F800F03CF875
:10080000B8B900904B462068416900918269009216
:1008100000220099016841F480710160009600F0A7
:100820001FF858B9206847F0F107076100F024F875
:1008300028B1206C042808BF012000D00320BDE8A7
:10084000F2832068036843F4807303607047206874
:10085000016841F4806101607047009653460022B0
:100860004FF00111204613E02068EDB2056170479A
:100870003246514620467CE033464A4641462046B1
:1008800036E0000002000100080001000000FFFF48
:100890002DE9F8430F46089C3D02064690469946CE
:1008A0002D0E3068012D0CBF40698069384080B240
:1008B000B9B288420CBF01200020404515D119F182
:1008C000010FEED0B9F1000F04D000F0B3FC001B13
:1008D0008145E6D200203063202106F13C004170C2
:1008E000002181700170032000E00020BDE8F28348
:1008F0002DE9FC410F463E02054614469846360E49
:100900002868012E18D14169394089B2BAB29142A2
:1009100018D041694A0517D5026842F40072026096
:100920006FF480602968486105F13C000422426050
:10093000002100F088F81AE08169394089B2BAB222
:100940009142E6D1002012E014F1010FD8D02CB171
:1009500000F070FCA0EB08008442D1D20020286394
:10096000202105F13C004170002101700320BDE809
:10097000F68170B505460C4616462868416908069A
:100980000FD4284600F066F808B1012070BD14F1BC
:10099000010FF2D024B100F04DFC801B8442ECD258
:1009A0001BE0002070BD70B505460C461646286851
:1009B000416948070FD4284600F04CF808B10120DF
:1009C00070BD14F1010FF2D024B100F033FC801B94
:1009D0008442ECD201E0002070BD05F13C00002211
:1009E000416841F0200141602A632021417002707A
:1009F000032070BD70B505460C461646286841694F
:100A00004A061ED44169CA0611D424B100F012FC72
:100A1000801B8442F2D205F13C002022416841F063
:100A200020014160427000210170032070BD6FF011
:100A30001001416105F13C000021416000F003F824
:100A400070BD002070BD296320214170002101701C
:100A50000120704701684A6953050DD56FF4806322
:100A60004B6100F13C0104224A6000220263202015
:100A700048700A700120704700207047402802BF6C
:100A80004C480178042902D14B480122027070477A
:100A900010B54A484A4C86B000F02DF8059900F090
:100AA0002AF812220599816841F4001181604FF4FF
:100AB0008071806800F40010059005980091002076
:100AC00000F013F801926946204600F0B9FB4FF49C
:100AD0000070009012210020019100F006F8694694
:100AE000204600F0ADFB06B010BD029003210420AB
:100AF000039104907047016841F0020101600268AF
:100B000002F002020592704710B52E482C4C016885
:100B100041F4001101604FF48071026822F4001268
:100B20000260204600F066FC2046BDE810404FF40D
:100B3000007100F05FBC00B593B001A8142100F073
:100B400001FD06A8342100F0FDFC022006900121E1
:100B500010200A9009910020022110900F914FF46B
:100B600000004FF400211290119106A800F030F817
:100B70001548016841F080510160006800F0805024
:100B8000009000981148016821F4C05141F40061BF
:100B900001604168CA06FCD40F20019003210020A7
:100BA0000291039004900590012101A800F003FA3E
:100BB00013B000BD0E0000200F0000201C380240C2
:100BC00000040240183802402438024000700040FF
:100BD0002DE9F8430446DFF828562078C10740F194
:100BE000298100F0E4F9082806D000F0E0F90C288B
:100BF0000AD1A868C10307D500F0D4F937D06068DE
:100C0000002826D10120AFE1606801280ED038B954
:100C1000296821F480312960286820F4802008E0C8
:100C20000528296807D141F480212960286840F40B
:100C30008030286006E021F4803129602A6822F49F
:100C400080222A60606868B100F0F4FA064600F07D
:100C5000A9F940F0EF8000F0EDFA801B6528F6D38B
:100C6000032081E100F0E6FA064600F09BF900F06F
:100C7000E18000F0DFFA801B6528F6D3F0E7E0683A
:100C800070B10121316000F0D5FA074600F085F916
:100C900040F0E88000F0CEFAC01B0228F6D9DFE76A
:100CA000306000F0C7FA074600F077F900F0E18005
:100CB00000F0C0FAC01B0228F6D9D1E7696821F418
:100CC0006041084368606868E16920F07F4040EA5D
:100CD00001606860206A00F058FA002892D1A86884
:100CE000226A520BC0F303100121521C9140DFF81D
:100CF0001825105CDFF80C25C903C14011600F20D6
:100D000000F024FC2078010740F1D1806069DFF811
:100D1000FC1470B301220A6000F08CFA0746686B7D
:100D2000C0F34000002840F0C28000F083FAC01BEE
:100D30000228F4D994E7A06970B10121316200F072
:100D400079FA074600F0D4F940F0DC8000F072FA3E
:100D5000C01B0228F6D983E7306200F06BFA074621
:100D600000F0C6F9CED000F065FAC01B0228F7D912
:100D700076E7086000F05EFA0746686BC0F3400053
:100D8000002800F0948000F055FAC01B0228F4D926
:100D900066E708B9686B09E00528686B06D140F47E
:100DA00080606863686B40F4807005E020F48070B8
:100DB0006863686B20F48060686341F28938A068DA
:100DC00070B100F037FA8146686B00F092F940F09C
:100DD000A18000F02FFAA0EB09004045F4D33FE7D3
:100DE00000F028FA8146686B00F083F900F09280E9
:100DF00000F020FAA0EB09004045F4D330E700F002
:100E000019FAC01B022840F2988029E700F012FA74
:100E1000001B022840F2A38022E700F0B5F8044648
:100E200000F0B6F800F09F8000F004FA001B0228E2
:100E3000F6D915E72078DFF8D863810719D500F0D7
:100E4000B6F8042808D000F0B2F80C287FF417AFE9
:100E5000A868C1033FF513AF00F09FF81CBFE0681E
:100E600001281FD16868216920F4F85040EA012068
:100E700068602078C10647D5A86810F00C0F7FF491
:100E80005AAF2868C0F3402010B1A06900284CD0A8
:100E9000206A696801F460418142BFF40FAF00F03D
:100EA00074F900287FF4AEAE00F060F817E7207800
:100EB000410734D5686A0027C10009D4686A40F048
:100EC000805068620127686A00F0805000900098A6
:100ED000DFF84083D8F80010C80516D4D8F8000011
:100EE00040F48070C8F8000000F0A4F98146D8F8FA
:100EF0000010C80509D400F09DF9A0EB0900652891
:100F0000F5D3ADE600F032F8FCE6A06801287FF4E6
:100F100040AF47E71FB1686A20F080506862606A9E
:100F200008B3A96801F00C010C293FF46BAE02284C
:100F30007FF473AF00F028F8074600F029F87FF43B
:100F40005EAFA968A06A21F47D010143E06A014314
:100F5000206B0143A960012000F017F8044600F05F
:100F600017F83FF453AF0020BDE8F2836968206AA8
:100F700021F46041014369606868E16920F07F40C5
:100F800040EA0160686070470020306600F052B9A6
:100F90002868C0F34060002870472868C0F340000C
:100FA000002870472868C0F3404000287047A868B0
:100FB00000F00C0070472DE9F843DFF85C6207464B
:100FC0003068894600F00100484502D200F095F8EB
:100FD00020D13878DFF82842810705D5A168B868A4
:100FE00021F0F0010143A1603878C1076CD5796820
:100FF000022903D12068C0F340400AE0032903D14D
:101000002068C0F3406004E00129206803D1C0F3E8
:10101000400018B960E000F06CF85DD0A06880086E
:1010200041EA8001A16041F2893800F003F90546E8
:10103000786802280BD1A06800F00C00082843D083
:1010400000F0F8F8401B4045F5D303203AE00328B0
:101050000AD1A06800F00C000C2835D000F0EAF8A6
:10106000401B4045F5D3F0E7012837D1A06800F0D8
:101070000C00042828D000F0DDF8401B4045F5D3D3
:10108000E3E73878410705D5A168F86821F4E06105
:101090000143A1603878010706D5A068396920F4BA
:1010A000605040EAC100A06000F038F8A168564ADC
:1010B000C1F30311515C534AC84010600F2000F087
:1010C00045FA0020BDE8F283306800F00100814558
:1010D000D7D200F012F8D4D00120F3E7A06810F0C6
:1010E0000C0FF1D000F0A6F8401B4045F6D3ACE75A
:1010F0002868C0F3402000287047B9F1010F03D1E0
:10110000316841F0040131603068400849EA40002C
:101110003060316801F001014945704730B5404900
:1011200040484A68404B02F00C04042C21D0082CA3
:1011300002D00C2C02D013E0184630BD3B4CC2F359
:101140008345C2F38152645D4968521CCD0303D5C7
:101150006343B3FBF2F030BD6043B0FBF2F030BD4F
:101160000868400B00F007000121401C01FA00F064
:10117000C00330BD2948234A01682D4B1068C1F3D4
:101180000221FFE7595CC840704778B5234B2249DC
:101190001C68002214F0F00F22D1DD691D4CEE0016
:1011A00003D5246804F4C0540FE0DD6945F0805590
:1011B000DD61DD6905F080550095009D2468DD69DD
:1011C00025F0805504F4C054DD61B4F5C05F08BF5C
:1011D000B0F5404F04D1086840F0040001220860D7
:1011E0000B685B0842EA43030B60086800F00100EB
:1011F000904201D0012072BD002072BD00000000AD
:101200000038024008000020CC2900088006474230
:101210000000474200700040003C02400838024095
:10122000043802400024F40000127A00C0290008AB
:10123000382B000801480068704700BFA80C002048
:101240002DE9F84F4FF0000EB34AB44BDFF8D082CF
:101250004FF00F0982460F4633E0B24DAA4514BF46
:10126000072506258D40254343F82C50C1431468BB
:1012700001EA040C7C68E50348BF40EA0C0CC2F8A4
:1012800000C0546801EA040C7C68A50348BF40EA2A
:101290000C0CC2F804C0946801EA040C7C68E502F6
:1012A00048BF40EA0C0CC2F808C0D46801EA040C3C
:1012B00079688C0248BF40EA0C0CC2F80CC00EF1F1
:1012C000010E396831FA0EF000F09280012000FA28
:1012D0000EFC1CEA0100F2D07C68022C18BF122C14
:1012E0004FEA8E0110D14FEADE040AEB840401F0CC
:1012F0001C05266A09FA05FB26EA0B06D7F810B08A
:101300000BFA05F5354325624FEA4E040325DAF85A
:10131000006097F804B0A540ED430BF0030B2E409E
:101320000BFA04FB4BEA0606CAF800607E68012E41
:1013300018BF022E03D0112E18BF122E17D1DAF8C3
:101340000860D7F80CB02E400BFA04FB4BEA0606F7
:10135000CAF80860DAF8046026EA0C0C7E68C6F366
:10136000001606FA0EF646EA0C06CAF80460DAF829
:101370000C603540BE6806FA04F42C43CAF80C40F1
:101380007C68E4009BD5D8F8004044F00104C8F81C
:1013900000404FEA9E0CD8F8005005F0010500957A
:1013A00001F00C01009C53F82C5009FA01F425EAD5
:1013B00004045D4DAA4508BF002518D05B4DAA4521
:1013C00008BF012513D05A4DAA4508BF02250ED0EB
:1013D000584DAA4508BF032509D0574DAA4508BF57
:1013E000042504D0554DAA457FF437AF052539E7CC
:1013F000BDE8F18F2DE9F84F89464FF0000A4649C4
:10140000494A464B4FF00F0805461DE0454FBD4287
:1014100014BF0727062707FA0CF7BE4212D153F86C
:10142000246026EA0E0643F82460C0430C6804409A
:101430000C604C6804404C608C6804408C60CC6844
:101440002040C8600AF1010A39FA0AF04DD00120A3
:1014500000FA0AFE1EEA0900F4D003264FEA4A0405
:1014600006FA04F42E68E44326402E604FEADA07B9
:1014700005EB87064FEA8A0C376A0CF01C0B08FA5A
:101480000BFB27EA0B0737620CF00C0CAE6826400A
:10149000AE606E6826EA0E066E6008FA0CFEEE6814
:1014A0003440EC6095424FEA9A0453F824600EEA07
:1014B000060608BF0027AED01C4FBD4208BF01275B
:1014C000A9D01B4FBD4208BF0227A4D0194FBD426F
:1014D00008BF03279FD0184FBD4208BF04279AD0EA
:1014E000164FBD4292D1052795E7BDE8F18F0069FF
:1014F000084018BF0120C0B2704781B002B909048A
:10150000816101B070470E4A136803421CBF10602E
:10151000FFF7B4BA70470000000401400800014022
:10152000203802400018024000000240000402403F
:1015300000080240000C024000100240001402406B
:1015400014040140002200F015B8000010B508494D
:101550000A6804464FF47A70B2FBF0F000F067F8C6
:10156000002221464FF0FF3000F03AF8002010BD75
:101570000800002000B500BF1300964694461039BD
:1015800028BFA0E80C50FAD85FEA417C28BF0CC005
:1015900048BF40F8042BC90728BF20F8022B48BFDA
:1015A00000F8012B00BD00000901002881B006D51C
:1015B000294A00F00F00104400F8041C01E0274AFB
:1015C000115401B07047264A13684FF6FF0100021C
:1015D0000B4000F4E0601843224908431060704754
:1015E00038B51F4B1C68C4F30223C3F10704052C54
:1015F00028BF04241D1D072D34BF0023DB1E012539
:1016000005FA04F4641E2140994005FA03F35B1EB9
:101610001A401143BDE83440C6E7012200F01F0123
:10162000114BFFE78A40400943F82020704710B56E
:10163000401EB0F1807F01D3012010BD0B4C6060D3
:101640000F214FF0FF30FFF7AFFF0022A26007200D
:101650002060002010BD000018ED00E000E400E074
:101660000CED00E00000FA0500E100E010E000E011
:101670002DE9F84F8246754E002030707070834619
:10168000504600F0E9F802255FEA000803D000F0B8
:10169000DFF8441C07E0504600F0CEFA044600F0A4
:1016A000D7F80419641C9AF818010AF58C7950B31C
:1016B000484600F0C1FA00F1030B0BEB04000830C0
:1016C000B4F5807F28BFC01CBBF5807F28BFC01C3D
:1016D000B0F5807F0BD3C121B170F570010E31716F
:1016E000F071010C71710825010AB17104E0D1217A
:1016F000B170F5703071052550A0711902780A702B
:10170000AD1C42784A7081207055B4F5807F3CBF93
:10171000912070559AF8180118B9715D41F0400197
:1017200071556D1C012070556D1C6F1CB4F5807FC8
:101730000AD3200E7055200CF0557F1C200AF0555E
:101740007F1CF4557F1C00E074553DA0F119027810
:101750000A707F1C06F807807F1CB8F1000F0BD1C0
:10176000504600F069FA02465146F01900F080FA3E
:10177000504600F061FAC71900F06AF802460AF113
:101780005001F01900F074FA00F062F8C7199AF8E5
:101790001801002838D0781CBBF5807F10D3412178
:1017A000F15507460120F0557F1C4FEA1B60F055AC
:1017B0007F1C4FEA1B40F0557F1C4FEA1B2003E0C3
:1017C0005121F15507460120F0557F1C1DA006F858
:1017D00007B07F1CF11902780A707F1C0220F055B7
:1017E0007F1C19A0F11902780A70BF1C42784A7058
:1017F000484600F021FA02464946F01900F038FA4E
:10180000484600F019FAC7193246B9B2002000F074
:101810001EFBB0F5104F08D1BF1E380A307077702C
:1018200032460221002000F012FBB0F5104F0CBF31
:1018300001200020BDE8F28F00000000537000007E
:101840005500000054000000656E000024000020D8
:101850000AF1500000F0F0B910B504460B220FF267
:10186000382100F017FB08B9012010BD0C220FF23F
:10187000382100F00DF908B9022010BD07220FF23F
:10188000382100F005F908B9032010BD08220FF235
:10189000342100F0FDF808B9042010BD04220FF235
:1018A000302100F0F5F808B9052010BD07220FF22D
:1018B000282100F0EDF808B9062010BD1A220FF219
:1018C000242100F0E5F808B9072010BD0A220FF224
:1018D000302100F0DDF808B9082010BD07220FF212
:1018E0002C2100F0D5F808B9092010BD07220FF20D
:1018F000282100F0CDF808B90A2010BD06220FF209
:10190000242100F0C5F808B90B2010BD06220FF203
:101910001C2100F0BDF808B90C2010BD06220FF202
:10192000142100F0B5F808B90D2010BD06220FF201
:101930000C2100F0ADF808B90E2010BD05220FF201
:10194000042100F0A5F808B90F2010BD09220FF2FC
:10195000FC1100F09DF808B9102010BD05220FF20F
:10196000F81100F095F808B9112010BD07220FF208
:10197000F01100F08DF808B9122010BD04220FF20A
:10198000EC1100F085F808B9132010BD04220FF205
:10199000E41100F07DF808B9142010BD04220FF204
:1019A000DC1100F075F808B9152010BD05220FF202
:1019B000D41100F06DF808B9162010BD05220FF201
:1019C000CC1100F065F808B9172010BD08220FF2FD
:1019D000C41100F05DF808B9182010BD0A220FF2FA
:1019E000C01100F055F808B9192010BD09220FF2F6
:1019F000BC1100F04DF808B91A2010BD0A220FF2F0
:101A0000B81100F045F808B91B2010BD0B220FF2E9
:101A1000B41100F03DF808B91C2010BD07220FF2E8
:101A2000B41100F035F808B91D2010BD0B220FF2DB
:101A3000B01100F02DF808B91E2010BD0B220FF2D6
:101A4000B01100F025F808B91F2010BD0C220FF2CC
:101A5000B01100F01DF808B9202010BD0C220FF2C3
:101A6000B01100F015F808B9212010BD08220FF2BE
:101A7000B01100F00DF808B9222010BD08220FF2B5
:101A8000AC1100F005F808B9232010BD002010BDEE
:101A9000204600F0FFB90000687474703A2F2F7769
:101AA00077772E000000000068747470733A2F2F4F
:101AB0007777772E00000000687474703A2F2F003B
:101AC0000000000068747470733A2F2F000000004B
:101AD00074656C3A000000006D61696C746F3A00C7
:101AE000000000006674703A2F2F616E6F6E796D82
:101AF0006F75733A616E6F6E796D6F75734000002C
:101B00006674703A2F2F6674702E000066747073BE
:101B10003A2F2F0000000000736674703A2F2F00D8
:101B200000000000736D623A2F2F00006E66733A5A
:101B30002F2F00006674703A2F2F00006461763AF0
:101B40002F2F00006E6577733A00000074656C6E8D
:101B500065743A2F2F000000696D61703A00000033
:101B6000727473703A2F2F000000000075726E3A85
:101B700000000000706F703A000000007369703A56
:101B800000000000736970733A000000746674709E
:101B90003A00000062747370703A2F2F000000004A
:101BA00062746C326361703A2F2F00006274676F49
:101BB00065703A2F2F0000007463706F6265783A89
:101BC0002F2F0000697264616F6265783A2F2F00D1
:101BD0000000000066696C653A2F2F0000000000CD
:101BE00075726E3A6570633A69643A0000000000ED
:101BF00075726E3A6570633A7461670000000000A8
:101C000075726E3A6570633A7061743A0000000054
:101C100075726E3A6570633A7261773A000000003F
:101C200075726E3A6570633A0000000075726E3A24
:101C30006E66633A0000000000F10103810704D0E2
:101C400010F8011B89B18107FAD10268B2F10131A4
:101C5000914311F0803F04BF50F8042FF6E710F8CD
:101C6000011B11B110F8011BFBE7C01A70470000FF
:101C700062B38B0708D0521E11F8013B00F8013BFC
:101C800000F024808B07F6D1830740F0208000BF4E
:101C9000103A07D330B4B1E83810103AA0E8381041
:101CA000F9D230BC530724BFB1E80810A0E80810EF
:101CB00044BF51F8043B40F8043BD20724BF31F83D
:101CC000022B20F8022B44BF0B7803707047121FC1
:101CD00017D35B0009D151F8043B20F8023B1B0CE1
:101CE000121F20F8023BF6D20BE051F8043B00F83B
:101CF000013B1B0A20F8023B1B0C121F00F8013BA2
:101D0000F3D238BF121D521E24BF11F8013B00F858
:101D1000013BF8D87047000038B5054600F087F958
:101D2000052400F09FF9641EB0F5104F06D0002C7A
:101D3000F7D101E000F0B9F9002032BD00F0BCF9A4
:101D4000B0F5104FF8D100F0EDF9B0F5104FF3D128
:101D50002A460F21002000F053F8B0F5104FE9D1CA
:101D6000687AA97A41EA00214748018000F09DF98C
:101D7000B0F5104FE0D1012032BDF8B5434F444AD1
:101D800004463868052590420ED14FF6FF76B142E1
:101D900010D100F076F901E0A9B259B9B0F5104FB1
:101DA0000ED000F044F903E0A04201D10120F2BDC1
:101DB0000020F2BD00F056F9B0F5104F3544EBD1DC
:101DC00000F07AF9B0F5104FF2D1204600F0E5F9B5
:101DD000B0F5104FECD13C60E8E738B52B4C2C4DFA
:101DE0002168814206D100F060F9B0F5104F05D1AD
:101DF000256001E0A94201D1012032BD002032BDA1
:101E000070B500F019F80FDD3246F621A0B200F0EF
:101E1000E0F900F016F802DDB0F5104FF4D0B0F59F
:101E2000104F08D1290006D03246E9B2A0B2BDE871
:101E3000704000F0CEB970BD0D46F62D0446164632
:101E40007047F63DF634F636ADB2F62D704770B5F4
:101E5000FFF7F2FF0FDD3246F621A0B200F0EEF9F7
:101E6000FFF7EFFF02DDB0F5104FF4D0B0F5104FE3
:101E700008D1290006D03246E9B2A0B2BDE87040D0
:101E800000F0DCB970BD00000C0000200000002054
:101E9000EFBEADDE0300002013F0030F09D0521E89
:101EA00022BF13F8010B11F801CBB0EB0C00F3D0FB
:101EB000704711F0030F14D1121F22BF53F8040B07
:101EC00051F804CB6045F7D0121D0AD200BA9CFA33
:101ED0008CFCB0EB0C0038BF6FF0000088BF012015
:101EE0007047521E22BF13F8010B11F801CBB0EB63
:101EF0000C00F6D0521C08BF1046704710B50246C1
:101F000046F2633012F8013B434083EA0313DBB22D
:101F10001C0284EA102080EAC30080EA1310491EE4
:101F2000CBB2002BEED180B210BD38B50D00044607
:101F300002D0FFF7E3FF20B9601910F8041D4078C4
:101F400008E005212046FFF7D9FF08B1122032BD75
:101F50006178A07840EA012032BD0EB4F0B5099C4A
:101F60000A9D064600202080F107DFF86C040AD5A0
:101F70000178491E8941C90F017001212180017832
:101F800041F0020129700078010703D500F04BF8F9
:101F900000212954B00704D500F045F89DF814102D
:101FA0002954700704D500F03EF89DF81510295407
:101FB000300704D500F037F89DF816102954F006C4
:101FC00004D500F030F89DF817102954B00604D558
:101FD00000F029F89DF81810295470060AD59DF8CC
:101FE0001870208807993A462844FFF741FE208858
:101FF0003F182780300604D500F015F89DF8201012
:102000002954F0050CD52188C9B22846FFF776FF80
:1020100021886854491C4A1C89B22280000A6854ED
:10202000F0BC5DF810FB2088411C2180704780B512
:1020300000F07DFA00F098FADFF8A00300210160BB
:102040000171017300F11001816000F01AF8B0F520
:10205000104F06D1032000F0D4F9BDE8014000F094
:1020600000BB01BD80B526218DF800100120694616
:1020700000F06EFB18B900F0D4FA00B912E011209C
:1020800002BD80B50FF2F03000788DF8000069468F
:10209000012000F05DFB18B900F0C3FA00B901E0BF
:1020A000112002BD4FF4104002BD80B500F0D9FAF6
:1020B00000B9F7E7112002BD38B50FF2C031DFF8E3
:1020C0001C5386B0D1E9002304A80024C0E90023F2
:1020D000A42068702C700420A870EC700720287170
:1020E0000722A86804A9FFF7C3FD2C7303A8DFF833
:1020F000F0420294019083B000F034F940F2FF10F6
:102100000EBCFFF72AFF00F049F940B900F042FB8E
:1021100028B900F03FF910B900F04BF900E01120A8
:1021200007B030BD1FB500F026F8032203E01FB54D
:1021300000F021F801224A7000F05DF983B000F050
:1021400051F90EBCFFF709FFBDF80C002146C0B2E3
:1021500000F0FEFA60B900F01DFB48B921460520E9
:1021600000F003FB20B905212046FFF7DEFE00E06A
:10217000112004B010BDDFF86402DFF864420021D2
:102180000170E122A4214170002181700C21C170F5
:102190000221017181680A7070471FB5DFF83C1297
:1021A000DFF83C4200220A70030AA4224A7000228F
:1021B0008A700C22CA7002220A718A6813705070E9
:1021C000029400F004F983B040F27F1000F0F6F8BA
:1021D000B7E7F8B50E46154600F0E6F8FFE70A70D7
:1021E00084B0B0224A70029400F0EFF883B00E730E
:1021F000CDE9002340F29F10D1E90223CDE902236B
:102200000EBCFFF7AAFE00F0C9F8A0B900F0C2FAB0
:1022100088B9771D2146F8B200F0A7FA58B9F9B28B
:102220002046FFF782FE07463246611C2846FFF72C
:102230001FFD384600E0112005B0F0BD38B513464B
:1022400000F0A2F82971D6226A7084B0020AAA703E
:102250000A46A8681946FFF70BFD00F091F883B015
:1022600000F086F80EBCFFF778FE00F097F8002823
:102270003BD100F08FFA002837D100F08BF80546EB
:1022800080B290BB207800F0C000C02826D1042185
:102290002046FFF74AFE122825D0F2208DF80000D4
:1022A000022160788DF801006846FFF727FE8DF85F
:1022B00002006946000A8DF80300042000F048FA85
:1022C00080B900F067FA68B96946052000F04DFA58
:1022D00040B905216846FFF728FE01E000F069F8E3
:1022E000054600E01125A8B200E0112005B030BD80
:1022F00038B5032884B0134603DC0A0018BF102A3F
:1023000001D014202CE0354D00242C70E8702024DE
:102310006C702971040AAC70102A314C09D1A8687C
:102320001946FFF7A5FC00F02BF883B000F020F869
:1023300006E000F025F883B000F014F840F23F10FA
:102340000EBCFFF70AFE00F029F840B900F022FAAF
:1023500028B900F01FF810B900F02BF800E01120A8
:1023600005B030BD0ECD68460EC0296801607047CB
:102370000ECD68460EC02968016040F27F1070479C
:1023800003A8029401907047144D154CE870002288
:102390002A7070472146052000F0E7B9BDF80C000F
:1023A0002146C0B200F0D4B90C490D4CC8700022CF
:1023B000704705212046B8E540F21F10CDE9002303
:1023C000D1E90223CDE902237047020A8A7003A8EB
:1023D0000190D1E90023704710000020440A00203A
:1023E000540B0020CDE90023D0E90223CDE90223DC
:1023F00040F27F10704703A902940191D0E90023B5
:10240000704730B585B000F032F82546062DA8BFDC
:1024100014201EDA012000F001F9FFF74DFEFFF74E
:1024200086FE00F020F89DF8000000F0F000044364
:102430008DF80040FFF77BFE00F00DF800F00FF87C
:102440000446032D02BFB4F5104F042000F0E6F857
:10245000204605B030BD01AA1021032048E76A4696
:1024600001210420EAE66A4601210420B1E604467F
:1024700001A81021FFF766B852000000D2760000D4
:102480008501010038B5FEB000F0BCF9FEF753FB42
:10249000002000F0CFF95448544D0168544C41F0ED
:1024A00001010160026802F001020092012200991C
:1024B000016841F0020101603021006800F0020073
:1024C0000090009801910320002104900391029252
:1024D00001A92846FEF7B4FE4FF48060019000F099
:1024E0006CF800F0E7F90128FBD1012220212846F1
:1024F000FFF703F80FF20C1090E82C0006A91AA8B9
:1025000081E82C0007220FF20C11FFF7C1FB35A068
:102510004CA902780A7006A800F008FA0128FAD13E
:1025200001224FF480612046FEF7E7FFFEE738B551
:10253000304D314C2868A04204BF2846FDF77CFE90
:102540004FF4804028612C600020E860A8612B488F
:1025500068600020A8602846FDF7E4FD18B100205F
:1025600000F091F9FEE731BD10B51F48244A204C18
:1025700086B0016841F0010101604021006800F06F
:102580000100009000980191002003210390049124
:10259000029200F012F8002203211720FFF720F822
:1025A0001720FFF73AF880200190012100200291C6
:1025B000039000F002F806B010BD01A92046FEF716
:1025C0003FBE00F0CDB910B50446FEF733FE2060E3
:1025D00010BD10B5044640210548FEF788FF207065
:1025E00010BD0000000000001C3802400004024042
:1025F00000000240540C002000540040801A0600E5
:1026000000002110687474703A2F2F7777772E00AE
:102610000000000073742E636F6D0000764908702F
:1026200070473EB500200190009001A8FFF7CBFF56
:10263000724D01230122AC212846FDF7B2FF04466A
:102640006846FFF7C0FF00980199401AC82804D2D5
:10265000002CEED103E011203EBD002CFBD1002068
:102660003EBD38B5654D05F13C04607820283AD16F
:10267000FEF7E0FD2178012901D1022032BD0122BF
:1026800022702121617001231021A170002161605D
:1026900069626985298529680A6842F480720A603E
:1026A000009000224FF00111284600F01EF808B1FA
:1026B000032032BD2968AC2008612820FFF781FF84
:1026C0000020009028684169009182690092009979
:1026D000016841F40071016000206060202060709A
:1026E0000020A0702070002032BD2DE9F8430F4675
:1026F000089E3D02814690461C462D0ED9F80000EA
:10270000012D1AD14069384080B2B9B288421AD03E
:102710000020404519D114F1010FEFD024B1FEF78C
:1027200089FD801B8442E9D209F13C0020214170DF
:10273000002181700170032008E08069384080B278
:10274000B9B28842E4D10120E3E70020BDE8F2837A
:1027500038B504460D46FFF764FF20B900F012F8C3
:10276000FDF77EFD00B1112032BD38B504460D469F
:10277000FFF757FF20B900F005F8FDF7F0FD00B1B5
:10278000112032BD0120009023462A46AC211B486F
:10279000704700007CB5184E194C30780025401E5B
:1027A000032806D8DFE800F002070D1CFFF739FF09
:1027B000A0B1102076BD5020FFF703FF0EE0002CE3
:1027C000F7D06846FFF705FF9DF8000000B96D1CC3
:1027D000641EEDB2052DF2DB002CEAD0002076BDA0
:1027E0006846FFF7F6FE9DF80010012902D17078C7
:1027F0000028FCD07570F1E70E000020540C00207A
:10280000FFFF0F0080B50948016841F00401016035
:10281000026842F0020202600320FEF7D4FE0F209D
:10282000FEF794FE00F004F8002002BD003C0240D8
:102830007047000070B5040086B009D11A480168DD
:1028400041F001010160006800F001000090009873
:1028500000F00DF801950120029000210220049063
:10286000039100F01BF800F008F806B070BD0FF2FD
:1028700040000E4E30F81450704756F824000022E5
:102880002946FEF73ABE0FF22801084B31F8101026
:1028900053F820000122FEF730BE029101A956F83C
:1028A0002400FEF7CDBC00001C38024004000020CC
:1028B000200000001FB50F216846FFF72DFA012800
:1028C00032D19DF800309DF8014024499DF80E203A
:1028D000CA7344EA03249DF802300C808B709DF883
:1028E00004409DF8033044EA03248C809DF80530B1
:1028F0009DF8064044EA03249DF807300B72CC8013
:102900009DF808309DF80A404B729DF8093044EA62
:1029100003244C819DF80B309DF80C4044EA0324BD
:102920009DF80D308C818B7304B010BD70B500F034
:102930000EF80025012804D12046FEF799FE00F08C
:1029400002F8284670BD05467089FFF746BA034E67
:10295000044670890021FFF710BA0000140000201F
:1029600011B581B0FEF766FC0446FEF763FC0199E1
:10297000001B8842F9D313BD0D49086840F48070EC
:1029800008608A680B4802408A600B680A48034066
:102990000B60086820F48020086000208A6822F418
:1029A0007D028A60C8604FF000600449086070478B
:1029B000003802400CC0FF88FEFFFEEE08ED00E08C
:1029C000030406080C10182030000000000000006E
:1029D00000000000010203040607080919E050F88E
:1029E000042BD30744BFA9F101039A18091F002340
:1029F000042942F8043BF9D25FEA817C134604D5EE
:102A00004FF0000CA2F800C09B1CC90744BF002176
:102A1000197050F8041B0029E1D1704710B450F828
:102A2000041B79B10268436802440830DC0744BFE4
:102A3000A9F10104E31852F8044B43F8044B091FB1
:102A4000F9D1ECE710BC704710B50749794418314B
:102A5000064C7C44163404E00A68081D114488477B
:102A60000146A142F8D110BD080000002800000076
:102A70006DFFFFFF980C0000140000200000000014
:102A80009DFFFFFF140000008000000000000020F8
:102A90000000000000F00DF8002801D0FFF7D4FF7F
:102AA000AFF300800020AFF30080FFF7EBFC00F0F5
:102AB00002F80120704700F001B8000007463846D0
:102AC00000F002F8FBE7000080B5AFF30080024A97
:102AD00011001820ABBEFBE7260002007047FEE79E
:102AE000FEE7FEE7FEE770477047704700F004B866
:102AF0004020FEF708BD000002480168491C016043
:102B0000704700BFA80C0020EFBEADDE0000024001
:102B100068FF1F00ADDE0100010000000148804792
:102B200001480047792900082D2B0008AFF30080E9
:102B3000AFF30080FFF7AEFF0000000001020304C6
:102B4000FFF7FEBFFFF7FEBFFFF7FEBFFFF7FEBFB9
:102B5000FFF7FEBFFFF7FEBFFFF7FEBFFFF7FEBFA9
:102B6000FFF7FEBFFFF7FEBFFFF7FEBFFFF7FEBF99
:102B7000FFF7FEBFFFF7FEBFFFF7FEBFFFF7FEBF89
:102B8000FFF7FEBFFFF7FEBFFFF7FEBFFFF7FEBF79
:102B9000FFF7FEBFFFF7FEBFFFF7FEBFFFF7FEBF69
:102BA000FFF7FEBFFFF7FEBFFFF7FEBFFFF7FEBF59
:102BB000FFF7FEBFFFF7FEBFFFF7FEBFFFF7FEBF49
:102BC000FFF7FEBFFFF7FEBFFFF7FEBFFFF7FEBF39
:102BD000FFF7FEBFFFF7FEBFFFF7FEBFFFF7FEBF29
:102BE000FFF7FEBFFFF7FEBFFFF7FEBFFFF7FEBF19
:102BF000FFF7FEBFFFF7FEBFFFF7FEBFFFF7FEBF09
:102C0000FFF7FEBFFFF7FEBFFFF7FEBFFFF7FEBFF8
:082C1000FFF7FEBFFFF7FEBF56
:0400000508002B2D97
:00000001FF
