:020000040800F2
:10000000B8100020152C0008E92B0008EB2B000885
:10001000ED2B0008EF2B0008F12B0008000000007A
:10002000000000000000000000000000F32B0008AA
:10003000F52B000800000000F72B0008F92B000842
:10004000392C00083D2C0008412C0008452C0008E4
:10005000492C00084D2C0008512C0008552C000894
:10006000592C00085D2C0008612C0008652C000844
:10007000692C00086D2C0008712C0008752C0008F4
:10008000792C00087D2C0008812C0008000000005D
:10009000000000000000000000000000FD2B000830
:1000A000852C0008892C00088D2C0008912C000854
:1000B000952C0008992C00089D2C0008A12C000804
:1000C000A52C0008A92C0008AD2C0008B12C0008B4
:1000D000B52C0008B92C0008BD2C00080000000059
:1000E000C12C0008C52C0008C92C00080000000025
:1000F000000000000000000000000000CD2C0008FF
:1001000000000000D12C0008D52C0008D92C0008D4
:1001100000000000000000000000000000000000DF
:10012000DD2C0008E12C0008E52C0008E92C000873
:10013000ED2C00080000000000000000000000009E
:10014000000000000000000000000000F12C00088A
:10015000F52C0008F92C0008FD2C0008012D0008E2
:10016000052D0008092D0008000000000000000017
:10017000000000000000000000000000000000007F
:10018000000000000D2D000800000000000000002D
:10019000112D0008F8B5040001D10120F2BD04F1D1
:1001A0003C05687820B900212970204600F090FCB9
:1001B00000F067F800F0BBFD0146DFF8E802DFF869
:1001C000E832B1FBF0F2206842606068984206D3E2
:1001D0004FF4967042434FF47A76B2FBF6F22768FA
:1001E000521C3A6266689E4208D27600B1FBF6F075
:1001F000C0F30B01042913D2042011E0A06820B938
:1002000006EB4606B1FBF6F005E019225643B1FBBA
:10021000F6F040F4804001050CBF012040F400409E
:100220002168C861E269206A02432068026021698E
:10023000E0680143206881606169A069014320682A
:10024000C1602068016841F0010101600020686020
:100250002020687000202063A870F2BD38B504002B
:1002600001D1012032BD04F13C0500F00AF820461E
:1002700000F072FC0020686068702063A87028702D
:1002800032BD242068702068016849084900016077
:1002900070472DE9FC4700F029F900F0F6F843D14A
:1002A00000F01CF900283FD1387801283CD000F03C
:1002B000DAF8212000F0C5F800F048FA40B178687B
:1002C000042802D1002139702AE00020387029E08A
:1002D00000F039F8308D002829D000F0F3F8C8B9C3
:1002E00000F0E4F800F0F6F8308D401E30853168FB
:1002F0004A69530706D580B220B1706A421C726207
:1003000000F018F800F0D9F80028E3D07868042845
:1003100008D102E07868042804D1306800F06DF953
:10032000012002E0032000E00220BDE8F68700F093
:10033000E3F8FAE700780861708D411E7185308D11
:10034000411E318570470090306841690091806995
:100350000090009970472DE9FC4700F0C7F800F0C5
:1003600094F863D100F0BAF800285FD138780128FA
:100370005CD000F078F8222000F063F800F02AFA50
:1003800040B17868042802D10021397046E000208D
:10039000387041E0308D08B9009004E031680128E0
:1003A00004D100F0C3F800F022F911E00228086837
:1003B00002D100F0DEF804E040F480600860002123
:1003C0000091FFF7C1FF03E000F0B7F800F07FF8FD
:1003D000308D00282DD0042818D2012804D100F037
:1003E000C3F80028F0D014E000F097F806D100F030
:1003F00023F8002810D100F0C7F8E5E700F01CF85A
:10040000002809D100F0D2F830B9F4E700F0ACF8D8
:1004100030B17868202801D1032008E0012006E0EF
:1004200000F092F8D4D500F072F8CFE70220BDE8D2
:10043000F68700F030F8FAE700224146304600F037
:1004400041BA78702A461020B87041460020786082
:10045000C6F82490A6F82AA0DFF8CC00F062708DD0
:100460003085304670470121397030680168CA070D
:1004700003D4026842F001020260234630680A9DFC
:10048000016821F400610160704706F13C070446F1
:10049000787820287047202078700020B870387055
:1004A0007047000040420F00A1860100706A411CA5
:1004B00071623168007808617047224629463046EB
:1004C00000F091BA22462946304600F072BA308DCB
:1004D000411E3185708D411E71857047009419232E
:1004E0000122DFF85412304600F0ECB90646884687
:1004F00091469A4600F05EBC3068016841F4007194
:100500000160202078700020B87038707047716AE0
:100510004A1C72620069087070470228DFF81C826A
:1005200000942B46704700000000FFFF086820F48D
:1005300080600860002100917047706A411C716200
:1005400031680A6902707047706A411C71623168D3
:100550000A690270308D411E3185708D411E718592
:10056000306841694A07704722462946304600F004
:1005700061BA20F4806008603068016841F400616D
:1005800001600020009070473068016841F40071FC
:100590000160706A411C716231680A690270308DB5
:1005A000411E3185708D411E71857047306801682C
:1005B00021F4806101602B46706A411C71623168D0
:1005C0000A6902700022308D411E3185708D411EF6
:1005D000718500944146304600F074B9009020685F
:1005E0004169009182690092002200997047306849
:1005F00041690091826900920099016841F400719B
:10060000016070472DE9FE4F04468B4691469A469D
:1006100000F0D0FB04F13C0705467878012620283D
:100620005DD1DFF81481009519230122414600F0C5
:10063000CFF8002853D13878012850D03E70206878
:100640000168CA0703D4026842F001020260CDF8D3
:1006500004900BF0FE0B00F073F8242078706FF418
:1006600080690020786000F05DF800F05FF8009588
:1006700000F0AAF8002830D12068C0F810B000F0CF
:1006800099FB05462168486949694008890A00F0D4
:10069000010001F001017A78084323D1A02A21D07A
:1006A000BAF1000F04D000F085FB401B8245E9D26F
:1006B000A0207870E6E71923FFF79FFF0020009045
:1006C000012200F0EBF80095414600F0FBF820B95C
:1006D000202078700020387002E0032000E0022023
:1006E000BDE8FE8F20207870206841698A07E2D437
:1006F000026842F40072026019232068C0F8149066
:1007000000950122414600F063F80028E5D130460B
:100710000199461C8842A8D32020787000203870A8
:100720000120DDE7DFF89001E06270472068016892
:1007300041F4807101607047020010000400010064
:100740002068016821F4006101607047F8B5044633
:100750000D46E06A04281EBF012857498842164604
:100760001F4602D1FFF7E2FF03E0206B122800F0E2
:100770008AF80097334600F028F810BB2069B0F5DE
:10078000804F04D1216805F0FE050D610EE0E809F7
:10079000216800F0060040F0F00008613B46324658
:1007A000474900F086F838B900F074F83B46324605
:1007B000424900F07EF828B1206C042801D10120C4
:1007C000F2BD0320F2BD0096534600224FF0011106
:1007D000204677E02DE9F84304460D46E06A21689B
:1007E00091460A6842F480620A6004281EBF01280C
:1007F000314988421E4602D1FFF798FF03E0206B83
:10080000112800F040F800964B46FFF7DEFF002865
:1008100036D12069DFF8A480B0F5804F05D121687A
:1008200045F00105EDB20D6122E0EF09216807F006
:10083000060747F0F000086133464A46204900F0B9
:1008400038F8002817D100F025F800F02FF890B9FB
:1008500000904B46FFF7C3FE016841F480710160D0
:100860000096FFF7B3FF58B9206847F0F10707611A
:1008700000F01CF828B1206C042808BF012000D02B
:100880000320BDE8F28304D12068036843F4807339
:10089000036070472068EDB20561704720684169C8
:1008A00000918069009020460099704733464A467F
:1008B000414620463CE000000000FFFF020001002E
:1008C000080001002DE9F8430F46089C3D0206464A
:1008D000904699462D0E3068012D1ED14069384052
:1008E00080B2B9B288421ED0002040451DD119F116
:1008F000010FF0D0B9F1000F04D000F05BFA001B3B
:100900008145E8D200203063202106F13C0041708F
:10091000002181700170032008E08069384080B2B6
:10092000B9B28842E0D10120DFE70020BDE8F283C0
:100930002DE9FC410F463E02054614469846360E08
:100940002868012E18D14169394089B2BAB2914262
:1009500018D041694A0517D5026842F40072026056
:100960006FF480602968486105F13C000422426010
:10097000002100F088F81AE08169394089B2BAB2E2
:100980009142E6D1002012E014F1010FD8D02CB131
:1009900000F010FAA0EB08008442D1D200202863B6
:1009A000202105F13C004170002101700320BDE8C9
:1009B000F68170B505460C4616462868416908065A
:1009C0000FD4284600F066F808B1012070BD14F17C
:1009D000010FF2D024B100F0EDF9801B8442ECD27B
:1009E0001BE0002070BD70B505460C461646286811
:1009F000416948070FD4284600F04CF808B101209F
:100A000070BD14F1010FF2D024B100F0D3F9801BB6
:100A10008442ECD201E0002070BD05F13C000022D0
:100A2000416841F0200141602A6320214170027039
:100A3000032070BD70B505460C461646286841690E
:100A40004A061ED44169CA0611D424B100F0B2F995
:100A5000801B8442F2D205F13C002022416841F023
:100A600020014160427000210170032070BD6FF0D1
:100A70001001416105F13C000021416000F003F8E4
:100A800070BD002070BD29632021417000210170DC
:100A90000120704701684A6953050DD56FF48063E2
:100AA0004B6100F13C0104224A60002202632020D5
:100AB00048700A700120704700207047402802BF2C
:100AC00051480178042902D1504801220270704730
:100AD00010B586B0002000904D4C4E48016841F0A2
:100AE00002010160026802F00202009200220099F5
:100AF0000092036843F002030360016801F0020101
:100B00000091009900921222016941F400110161E3
:100B10004FF48071006900F400100090009801917A
:100B2000002000F013F8029201A9204600F048F9D5
:100B30004FF40070019012210020029100F006F89D
:100B400001A9204600F03CF906B010BD0390032136
:100B5000042004910590704710B52F482C4C016873
:100B600041F4001101604FF48071026822F4001218
:100B70000260204600F0EEF92046BDE810404FF438
:100B8000007100F0E7B980B592B0002000902348D2
:100B9000016841F0805101600021006800F0805040
:100BA000009000981E4800910221026822F4404201
:100BB00042F4004202600122006800F440400090CC
:100BC0000098069110200A900C9100200D901021A1
:100BD0004FF4A8700F900E910720042111900992F4
:100BE000109106A800F056FA0F2102200191029000
:100BF00000214FF4805003910490059101A8022137
:100C000000F010F813B000BD1A0000201B000020F7
:100C10000004024030380240203802404038024090
:100C2000007000402DE9F84304000F4677D0454E90
:100C3000306800F00F00B84202D200F072F86ED1B6
:100C40002068414D810712D5400703D5A86840F4BC
:100C5000E050A8602178080703D5A86840F46040F8
:100C6000A860A968A06821F0F0010143A96020787C
:100C7000C1074CD56068012802D129688A0305E0C4
:100C8000022818BF032803D129688A0103D446E04B
:100C90002A68910743D5A968890840EA8100A860BD
:100CA00041F2893900F086F88046A868616800F052
:100CB0000C00B0EB810F2AD000F07CF8A0EB08000C
:100CC0004845F2D3032020E02078410705D5A968E4
:100CD000E06821F4E0510143A9602078010706D5BE
:100CE000A868216920F4604040EAC100A86000F0D3
:100CF00035F8AA681549C2F30312895C144AC84042
:100D000010600F2000F03EFB0020BDE8F283306849
:100D100000F00F008742D7D200F003F8D4D00120B2
:100D2000F3E73770316801F00F01B94270470848A6
:100D3000084A006813680849C3F38222FFE7895C08
:100D4000C8407047003C024000380240942A000826
:100D50001400002008380240302C000818B5124C4E
:100D6000606800F00C00042802D0082802D019E0C6
:100D70000E4812BD00232268206841022068C0F39B
:100D800088104CBF09490A4902F03F02A1FB00014B
:100D900000F018FB2168C1F30141491C4900B0FB78
:100DA000F1F012BD024812BD0438024000127A0070
:100DB0000024F40001484068704700BF0400002090
:100DC0002DE9F84F4FF0000EA94AAA4BDFF8A88290
:100DD0004FF00F0906468A460121DAF8004001FA71
:100DE0000EF10C408C4240F0AD80DAF80450022D38
:100DF00018BF122D4FEA8E0012D14FEADE0506EB26
:100E0000850C00F01C05DCF8207009FA05FB27EAC8
:100E10000B07DAF810B00BFA05F53D43CCF820507B
:100E20004FEA4E0C032537689AF804B005FA0CF522
:100E3000ED430BF0030B2F400BFA0CFB4BEA0707BB
:100E40003760DAF80470012F18BF022F03D0112F7A
:100E500018BF122F13D1B768DAF80CB02F400BFA75
:100E60000CFB4BEA0707B760776827EA0101DAF85D
:100E70000470C7F3001707FA0EF739437160F16881
:100E80000D40DAF8081001FA0CF12943F160DAF8A4
:100E90000410C90056D50025009500F00C00D8F8C4
:100EA000001041F48041C8F8001009FA00F7D8F8A2
:100EB000005005F48045009500994FEA9E0153F8D3
:100EC000215025EA07076D4DAE4208BF002513D01B
:100ED0006B4DAE4208BF01250ED06A4DAE4208BF31
:100EE000022509D0684DAE4208BF032504D0674DE6
:100EF000AE420CBF0425072505FA00F0384343F83D
:100F00002100E0431168DAF804500140ED0348BFC6
:100F1000214311605168DAF804500140AD0348BF25
:100F2000214351609168DAF804500140ED0248BF56
:100F300021439160D1680140DAF80400800248BF83
:100F40002143D1600EF1010EBEF10F0F7FF644AFC9
:100F5000BDE8F18F2DE9F84F82460F460026444840
:100F60004649444A00970F234FF00108009C08FAB5
:100F700006FE0EEA040CF44561D10327740007FA5B
:100F800004F4DAF80070E4432740CAF80070F70868
:100F90000AEB8709B700D9F8205007F01C0B03FAB9
:100FA0000BFB25EA0B05C9F8205007F00C07DAF80F
:100FB00008502540CAF80850DAF8045025EA0E0512
:100FC000CAF804504FEA960EDAF80C502C40CAF8D2
:100FD0000C4003FA07F452F82E5004EA05098A453A
:100FE00008BF002513D0264DAA4508BF01250ED005
:100FF000244DAA4508BF022509D0234DAA4508BFA4
:10100000032504D0214DAA450CBF0425072505FA68
:1010100007F7B94513D152F82E7027EA040442F8B5
:101020002E406FEA0C040768274007604768274096
:101030004760876827408760C7683C40C460761C6B
:101040000F2E93D9BDE8F18F0069084018BF012029
:10105000C0B2704781B002B90904816101B0704724
:101060000B4A136803421CBF1060FFF727BD70478F
:10107000003C014008380140443802400000024072
:101080000004024000080240000C02400010024030
:10109000143C01402DE9F843040017D02078B54EE8
:1010A000C10741D5B06800F00C00042807D0B06833
:1010B00000F00C0008280BD17068410208D5316897
:1010C000880331D56068002840F0B68001204FE1E8
:1010D0006068B0F5803F06D0B0F5A02F316807D129
:1010E00041F480213160306840F48030306006E0A7
:1010F00021F480313160326822F4802232606068ED
:1011000068B1FFF757FE05463168880300F1948007
:10111000FFF750FE401B6528F6D3032028E1FFF7B8
:1011200049FE05463068810340F18680FFF742FEA4
:10113000401B6528F6D3F0E7FFF73CFE401B022872
:1011400040F2A780E9E7E06870B101213960FFF75C
:1011500031FE05463068810700F1CB80FFF72AFE9B
:10116000401B0228F6D9D8E73860FFF723FE054672
:101170003068810763D5FFF71DFE401B0228F7D9B1
:10118000CBE70860FFF716FE0546706F810775D53F
:10119000FFF710FE401B0228F7D9BEE70528306F85
:1011A00006D140F004003067306F40F0010005E0E8
:1011B000400840003067306F20F00400306741F293
:1011C0008938A06868B1FFF7F5FD8146306F810767
:1011D00000F19C80FFF7EEFDA0EB09004045F5D340
:1011E0009BE7FFF7E7FD8146306F810740F18E8076
:1011F000FFF7E0FDA0EB09004045F5D38DE7FFF7D1
:10120000D9FD401B022840F2968086E7FFF7D2FD09
:10121000001B022840F2A7807FE700203866FFF716
:10122000C9FD04463068810140F1A180FFF7C2FD8D
:10123000001B0228F6D970E720784F4F81071BD595
:10124000B06810F00C0F09D0B06800F00C0008284E
:101250007FF479AF706841023FF575AF3168880758
:1012600003D5E06801287FF431AF3168206921F0AF
:10127000F80141EAC0013160217808070DD56069A5
:101280003E4900283FF47DAF01220A60FFF792FD3E
:101290000546706F81077FF54FAF217848073AD533
:1012A000306C0025C1000AD400950125306C40F057
:1012B00080503064306C00F0805000900098DFF86F
:1012C000C080D8F80010C8051BD4D8F8000040F43E
:1012D0008070C8F80000FFF76DFD8146D8F8001057
:1012E000C8050ED4FFF766FDA0EB09000228F5D96A
:1012F00013E73068216920F0F80040EAC10030604F
:10130000BAE7A06801287FF449AF4DE71DB1306C02
:1013100020F080503064A06948B3B16801F00C013E
:1013200008293FF4D3AE02287FF477AF0020386657
:10133000FFF740FD0546306881013FF560AFE16988
:10134000206AA26A0143606A520841EA8011521E73
:10135000E06A41EA024141EA0061716001213966B7
:10136000FFF728FD0446306881017FF54FAF00206C
:10137000BDE8F2830038024000004742800E474239
:101380000070004038B50D4D0D4A297804464FF4E1
:101390007A70B0FBF1F11068B0FBF1F000F06DF97C
:1013A00050B9102C08D2002221464FF0FF3000F037
:1013B0003DF9AC60002032BD012032BD04000020A8
:1013C00014000020B3BBD9B1B2F5803F7DD2022A10
:1013D0001ED98C46B1FBF2F102FB11C31B0443EA98
:1013E0001043B3FBF2FC02FB1C3380B240EA034320
:1013F000B3FBF2F002FB103240EA0C4000237047CE
:10140000022A05D98446B0FBF2F002FB10C27047F5
:101410004AB105D100F0010249085FEA3000704787
:1014200000220023704700F049B90B0002000021A0
:1014300000207047904271EB030CF6D3B3F5803F68
:101440002FD2F0B5B3FA83F7B1FA81F4A7F10F0EFA
:101450003D1B5340CEF1200602FA0EF2F3415340F9
:10146000B5F10F0746D80F3C2C444140C4F120068B
:10147000A040F1414140B1FBF3F603FB1611A2FB82
:101480000645001BA94102D2761E8018594180EA08
:10149000010221FA0EF362FA0EF200215A403046A0
:1014A000F0BD30B4B1FBF3FC03FB1C11A2FB0C45F7
:1014B000001BA94103D2ACF1010C8018594130BC8A
:1014C00002460B46604600217047B2F1807F65D32B
:1014D000F0B5B2FA82F7B1FA81F4C7F10F063D1BFD
:1014E00022FA06F307F1110EF24120355A40B5F108
:1014F0000F07B8D94140C4F12006A040F141414056
:10150000B1FBF3FC03FB1C11A2FB0C45001BA94122
:1015100003D2BCF1010C801859410F2F12D30F3F99
:10152000C90341EA5041B1FBF3F603FB1611A2FBDC
:101530000645D4EBC030A94102D2761E801859412D
:1015400046EACC3C07B34140C7F12006B840F14120
:101550004140B1FBF3F603FB1611A2FB0645001B4D
:10156000A94102D2761E8018594180EA010221FA6F
:101570000EF3C7F1200462FA0EF20CFA07F05A409B
:101580002CFA04F13043F0BD80EA010221FA0EF397
:10159000002162FA0EF260465A40F0BD8C46B1FB63
:1015A000F2F102FB11C31B0243EA1063B3FBF2FC2E
:1015B00002FB1C331B024CEA002043EA1063B3FB1E
:1015C000F2FC02FB1C331B024CEA002043EA1063CE
:1015D000B3FBF2FC02FB1C331B024CEA002043EA83
:1015E0001063B3FBF2FC02FB1C324CEA0020002328
:1015F000704700000901002881B006D5294A00F093
:101600000F00104400F8041C01E0274A115401B0F7
:101610007047264A13684FF6FF0100020B4000F4A2
:10162000E0601843224908431060704738B51F4BEB
:101630001C68C4F30223C3F10704052C28BF04244B
:101640001D1D072D34BF0023DB1E012505FA04F400
:10165000641E2140994005FA03F35B1E1A401143B2
:10166000BDE83440C6E7012200F01F01114BFFE73F
:101670008A40400943F82020704710B5401EB0F161
:10168000807F01D3012010BD0B4C60600F214FF013
:10169000FF30FFF7AFFF0022A2600720206000208C
:1016A00010BD000018ED00E000E400E00CED00E0EB
:1016B0000000FA0500E100E010E000E070470000E3
:1016C0002DE9F84F8246754E0020307070708346C9
:1016D000504600F0E9F802255FEA000803D000F068
:1016E000DFF8441C07E0504600F0CEFA044600F054
:1016F000D7F80419641C9AF818010AF58C7950B3CC
:10170000484600F0C1FA00F1030B0BEB040008306F
:10171000B4F5807F28BFC01CBBF5807F28BFC01CEC
:10172000B0F5807F0BD3C121B170F570010E31711E
:10173000F071010C71710825010AB17104E0D12129
:10174000B170F5703071052550A0711902780A70DA
:10175000AD1C42784A7081207055B4F5807F3CBF43
:10176000912070559AF8180118B9715D41F0400147
:1017700071556D1C012070556D1C6F1CB4F5807F78
:101780000AD3200E7055200CF0557F1C200AF0550E
:101790007F1CF4557F1C00E074553DA0F1190278C0
:1017A0000A707F1C06F807807F1CB8F1000F0BD170
:1017B000504600F069FA02465146F01900F080FAEE
:1017C000504600F061FAC71900F06AF802460AF1C3
:1017D0005001F01900F074FA00F062F8C7199AF895
:1017E0001801002838D0781CBBF5807F10D3412128
:1017F000F15507460120F0557F1C4FEA1B60F0555C
:101800007F1C4FEA1B40F0557F1C4FEA1B2003E072
:101810005121F15507460120F0557F1C1DA006F807
:1018200007B07F1CF11902780A707F1C0220F05566
:101830007F1C19A0F11902780A70BF1C42784A7007
:10184000484600F021FA02464946F01900F038FAFD
:10185000484600F019FAC7193246B9B2002000F024
:101860001EFBB0F5104F08D1BF1E380A30707770DC
:1018700032460221002000F012FBB0F5104F0CBFE1
:1018800001200020BDE8F28F00000000537000002E
:101890005500000054000000656E0000300000207C
:1018A0000AF1500000F0F0B910B504460B220FF217
:1018B000382100F017FB08B9012010BD0C220FF2EF
:1018C000382100F00DF908B9022010BD07220FF2EF
:1018D000382100F005F908B9032010BD08220FF2E5
:1018E000342100F0FDF808B9042010BD04220FF2E5
:1018F000302100F0F5F808B9052010BD07220FF2DD
:10190000282100F0EDF808B9062010BD1A220FF2C8
:10191000242100F0E5F808B9072010BD0A220FF2D3
:10192000302100F0DDF808B9082010BD07220FF2C1
:101930002C2100F0D5F808B9092010BD07220FF2BC
:10194000282100F0CDF808B90A2010BD06220FF2B8
:10195000242100F0C5F808B90B2010BD06220FF2B3
:101960001C2100F0BDF808B90C2010BD06220FF2B2
:10197000142100F0B5F808B90D2010BD06220FF2B1
:101980000C2100F0ADF808B90E2010BD05220FF2B1
:10199000042100F0A5F808B90F2010BD09220FF2AC
:1019A000FC1100F09DF808B9102010BD05220FF2BF
:1019B000F81100F095F808B9112010BD07220FF2B8
:1019C000F01100F08DF808B9122010BD04220FF2BA
:1019D000EC1100F085F808B9132010BD04220FF2B5
:1019E000E41100F07DF808B9142010BD04220FF2B4
:1019F000DC1100F075F808B9152010BD05220FF2B2
:101A0000D41100F06DF808B9162010BD05220FF2B0
:101A1000CC1100F065F808B9172010BD08220FF2AC
:101A2000C41100F05DF808B9182010BD0A220FF2A9
:101A3000C01100F055F808B9192010BD09220FF2A5
:101A4000BC1100F04DF808B91A2010BD0A220FF29F
:101A5000B81100F045F808B91B2010BD0B220FF299
:101A6000B41100F03DF808B91C2010BD07220FF298
:101A7000B41100F035F808B91D2010BD0B220FF28B
:101A8000B01100F02DF808B91E2010BD0B220FF286
:101A9000B01100F025F808B91F2010BD0C220FF27C
:101AA000B01100F01DF808B9202010BD0C220FF273
:101AB000B01100F015F808B9212010BD08220FF26E
:101AC000B01100F00DF808B9222010BD08220FF265
:101AD000AC1100F005F808B9232010BD002010BD9E
:101AE000204600F0FFB90000687474703A2F2F7719
:101AF00077772E000000000068747470733A2F2FFF
:101B00007777772E00000000687474703A2F2F00EA
:101B10000000000068747470733A2F2F00000000FA
:101B200074656C3A000000006D61696C746F3A0076
:101B3000000000006674703A2F2F616E6F6E796D31
:101B40006F75733A616E6F6E796D6F7573400000DB
:101B50006674703A2F2F6674702E0000667470736E
:101B60003A2F2F0000000000736674703A2F2F0088
:101B700000000000736D623A2F2F00006E66733A0A
:101B80002F2F00006674703A2F2F00006461763AA0
:101B90002F2F00006E6577733A00000074656C6E3D
:101BA00065743A2F2F000000696D61703A000000E3
:101BB000727473703A2F2F000000000075726E3A35
:101BC00000000000706F703A000000007369703A06
:101BD00000000000736970733A000000746674704E
:101BE0003A00000062747370703A2F2F00000000FA
:101BF00062746C326361703A2F2F00006274676FF9
:101C000065703A2F2F0000007463706F6265783A38
:101C10002F2F0000697264616F6265783A2F2F0080
:101C20000000000066696C653A2F2F00000000007C
:101C300075726E3A6570633A69643A00000000009C
:101C400075726E3A6570633A746167000000000057
:101C500075726E3A6570633A7061743A0000000004
:101C600075726E3A6570633A7261773A00000000EF
:101C700075726E3A6570633A0000000075726E3AD4
:101C80006E66633A0000000000F10103810704D092
:101C900010F8011B89B18107FAD10268B2F1013154
:101CA000914311F0803F04BF50F8042FF6E710F87D
:101CB000011B11B110F8011BFBE7C01A70470000AF
:101CC00062B38B0708D0521E11F8013B00F8013BAC
:101CD00000F024808B07F6D1830740F0208000BFFE
:101CE000103A07D330B4B1E83810103AA0E83810F1
:101CF000F9D230BC530724BFB1E80810A0E808109F
:101D000044BF51F8043B40F8043BD20724BF31F8EC
:101D1000022B20F8022B44BF0B7803707047121F70
:101D200017D35B0009D151F8043B20F8023B1B0C90
:101D3000121F20F8023BF6D20BE051F8043B00F8EA
:101D4000013B1B0A20F8023B1B0C121F00F8013B51
:101D5000F3D238BF121D521E24BF11F8013B00F808
:101D6000013BF8D87047000038B5054600F087F908
:101D7000052400F09FF9641EB0F5104F06D0002C2A
:101D8000F7D101E000F0B9F9002032BD00F0BCF954
:101D9000B0F5104FF8D100F0EDF9B0F5104FF3D1D8
:101DA0002A460F21002000F053F8B0F5104FE9D17A
:101DB000687AA97A41EA00214748018000F09DF93C
:101DC000B0F5104FE0D1012032BDF8B5434F444A81
:101DD00004463868052590420ED14FF6FF76B14291
:101DE00010D100F076F901E0A9B259B9B0F5104F61
:101DF0000ED000F044F903E0A04201D10120F2BD71
:101E00000020F2BD00F056F9B0F5104F3544EBD18B
:101E100000F07AF9B0F5104FF2D1204600F0E5F964
:101E2000B0F5104FECD13C60E8E738B52B4C2C4DA9
:101E30002168814206D100F060F9B0F5104F05D15C
:101E4000256001E0A94201D1012032BD002032BD50
:101E500070B500F019F80FDD3246F621A0B200F09F
:101E6000E0F900F016F802DDB0F5104FF4D0B0F54F
:101E7000104F08D1290006D03246E9B2A0B2BDE821
:101E8000704000F0CEB970BD0D46F62D04461646E2
:101E90007047F63DF634F636ADB2F62D704770B5A4
:101EA000FFF7F2FF0FDD3246F621A0B200F0EEF9A7
:101EB000FFF7EFFF02DDB0F5104FF4D0B0F5104F93
:101EC00008D1290006D03246E9B2A0B2BDE8704080
:101ED00000F0DCB970BD00001800002000000020F8
:101EE000EFBEADDE0300002013F0030F09D0521E39
:101EF00022BF13F8010B11F801CBB0EB0C00F3D0AB
:101F0000704711F0030F14D1121F22BF53F8040BB6
:101F100051F804CB6045F7D0121D0AD200BA9CFAE2
:101F20008CFCB0EB0C0038BF6FF0000088BF0120C4
:101F30007047521E22BF13F8010B11F801CBB0EB12
:101F40000C00F6D0521C08BF1046704710B5024670
:101F500046F2633012F8013B434083EA0313DBB2DD
:101F60001C0284EA102080EAC30080EA1310491E94
:101F7000CBB2002BEED180B210BD38B50D000446B7
:101F800002D0FFF7E3FF20B9601910F8041D407874
:101F900008E005212046FFF7D9FF08B1122032BD25
:101FA0006178A07840EA012032BD0EB4F0B5099CFA
:101FB0000A9D064600202080F107DFF86C040AD550
:101FC0000178491E8941C90F0170012121800178E2
:101FD00041F0020129700078010703D500F04BF8A9
:101FE00000212954B00704D500F045F89DF81410DD
:101FF0002954700704D500F03EF89DF815102954B7
:10200000300704D500F037F89DF816102954F00673
:1020100004D500F030F89DF817102954B00604D507
:1020200000F029F89DF81810295470060AD59DF87B
:102030001870208807993A462844FFF741FE208807
:10204000C0192080300604D500F015F89DF8201046
:102050002954F0050CD52188C9B22846FFF776FF30
:1020600021886854491C4A1C89B22280000A68549D
:10207000F0BC5DF810FB2088411C2180704780B5C2
:1020800000F07DFA00F09BFADFF8A0030021016068
:102090000171017300F11001816000F01AF8B0F5D0
:1020A000104F06D1032000F0D4F9BDE8014000F044
:1020B00008BB01BD80B526218DF8001001206946BE
:1020C00000F080FB18B900F0DCFA00B912E0112032
:1020D00002BD80B50FF2F03000788DF8000069463F
:1020E000012000F06FFB18B900F0CBFA00B901E055
:1020F000112002BD4FF4104002BD80B500F0E1FA9E
:1021000000B9F7E7112002BD38B50FF2C031DFF892
:102110001C5386B0D1E9002304A80024C0E90023A1
:10212000A42068702C700420A870EC70072028711F
:102130000722A86804A9FFF7C3FD2C7303A8DFF8E2
:10214000F0420294019083B000F034F940F2FF10A5
:102150000EBCFFF72AFF00F049F940B900F054FB2C
:1021600028B900F03FF910B900F04BF900E0112058
:1021700007B030BD1FB500F026F8032203E01FB5FD
:1021800000F021F801224A7000F05DF983B000F000
:1021900051F90EBCFFF709FFBDF80C002146C0B293
:1021A00000F010FB60B900F02FFB48B92146052074
:1021B00000F015FB20B905212046FFF7DEFE00E008
:1021C000112004B010BDDFF86402DFF86442002182
:1021D0000170E122A4214170002181700C21C170A5
:1021E0000221017181680A7070471FB5DFF83C1247
:1021F000DFF83C4200220A70030AA4224A7000223F
:102200008A700C22CA7002220A718A681370507098
:10221000029400F004F983B040F27F1000F0F6F869
:10222000B7E7F8B50E46154600F0E6F8FFE70A7086
:1022300084B0B0224A70029400F0EFF883B00E73BD
:10224000CDE9002340F29F10D1E90223CDE902231A
:102250000EBCFFF7AAFE00F0C9F8A0B900F0D4FA4E
:1022600088B9771D2146F8B200F0B9FA58B9F9B229
:102270002046FFF782FE07463246611C2846FFF7DC
:102280001FFD384600E0112005B0F0BD38B51346FB
:1022900000F0A2F82971D6226A7084B0020AAA70EE
:1022A0000A46A8681946FFF70BFD00F091F883B0C5
:1022B00000F086F80EBCFFF778FE00F097F80028D3
:1022C0003BD100F0A1FA002837D100F08BF8054689
:1022D00080B290BB207800F0C000C02826D1042135
:1022E0002046FFF74AFE122825D0F2208DF8000084
:1022F000022160788DF801006846FFF727FE8DF80F
:1023000002006946000A8DF80300042000F05AFA22
:1023100080B900F079FA68B96946052000F05FFAE3
:1023200040B905216846FFF728FE01E000F069F892
:10233000054600E01125A8B200E0112005B030BD2F
:1023400038B5032884B0134603DC0A0018BF102AEE
:1023500001D014202CE0354D00242C70E87020248E
:102360006C702971040AAC70102A314C09D1A8682C
:102370001946FFF7A5FC00F02BF883B000F020F819
:1023800006E000F025F883B000F014F840F23F10AA
:102390000EBCFFF70AFE00F029F840B900F034FA4D
:1023A00028B900F01FF810B900F02BF800E0112058
:1023B00005B030BD0ECD68460EC02968016070477B
:1023C0000ECD68460EC02968016040F27F1070474C
:1023D00003A8029401907047144D154CE870002238
:1023E0002A7070472146052000F0F9B9BDF80C00AD
:1023F0002146C0B200F0E6B90C490D4CC87000226D
:10240000704705212046B8E540F21F10CDE90023B2
:10241000D1E90223CDE902237047020A8A7003A89A
:102420000190D1E9002370471C000020500A0020D1
:10243000600B0020CDE90023D0E90223CDE902237F
:1024400040F27F10704703A902940191D0E9002364
:10245000704730B585B000F032F82546062DA8BF8C
:1024600014201EDA012000F009F9FFF74DFEFFF7F6
:1024700086FE00F020F89DF8000000F0F000044314
:102480008DF80040FFF77BFE00F00DF800F00FF82C
:102490000446032D02BFB4F5104F042000F0EEF8FF
:1024A000204605B030BD01AA1021032048E76A4646
:1024B00001210420EAE66A4601210420B1E604462F
:1024C00001A8102100F0DAB952000000D276000015
:1024D0008501010038B5FEB000F0D4F9FEF753FBDA
:1024E000002000F0EBF900200090574D00F092F82A
:1024F000026802F00102009200220099009230214D
:10250000036843F0020303600122006800F0020048
:102510000090009801910220002104900391029202
:1025200001A92846FEF74CFC4FF48060019000F0B2
:102530006DF800F003FA0128FBD101222021284682
:10254000FEF788FD0FF21C1090E82C0006A91AA8CF
:1025500081E82C0007220FF21C11FFF7C1FB39A004
:102560004CA902780A7006A800F024FA0128FAD1D2
:1025700001224FF480612046FEF76CFDFEE738B57E
:10258000324C334D2068A84204BF2046FDF766FE5A
:102590004FF480402061256000206061E06120628E
:1025A000E060A0612B4860600020A0602046FDF73D
:1025B000F1FD18B1002000F0AAF9FEE731BD10B519
:1025C00086B000200090244A00F024F840210068E2
:1025D00000F0010000900098019100200321039079
:1025E0000491029200F012F8002203211720FFF755
:1025F0001DF81720FFF737F88020019001210020F7
:102600000291039000F002F806B010BD01A9204627
:10261000FEF7D6BB1148124C016841F00101016080
:10262000704700F0E1B910B50446FEF7C3FB206027
:1026300010BD10B5044640210948FEF705FD207085
:1026400010BD00000000000000040240600C0020EB
:1026500000540040801A060000002110303802406B
:1026600000000240687474703A2F2F7777772E003D
:102670000000000073742E636F6D00007B490870CA
:1026800070473EB500200190009001A8FFF7CBFFF6
:10269000774D01230122AC212846FDF7B3FF044604
:1026A0006846FFF7C0FF00980199401AC82804D275
:1026B000002CEED103E011203EBD002CFBD1002008
:1026C0003EBD38B56A4D05F13C046078202841D103
:1026D000FEF770FB2178012901D1022032BD0122D1
:1026E0002968227001230A6822F400620A6021210D
:1026F00061701021A170002161606962698529857E
:102700005C49E96229680A6842F480720A600090B4
:1027100000224FF00111284600F01EF808B10320F6
:1027200032BD2968AC2008612820FFF77AFF00201D
:1027300000902868416900918269009200990168BF
:1027400041F4007101600020606020206070002072
:10275000A0702070002032BD2DE9F8430F46089C80
:102760003D020646904699462D0E3068012D1ED139
:102770004069384080B2B9B288421ED0002040453E
:102780001DD119F1010FF0D0B9F1000F04D0FEF7FF
:1027900011FB001B8145E8D200203063202106F1A7
:1027A0003C004170002181700170032008E08069C5
:1027B000384080B2B9B28842E0D10120DFE7002082
:1027C000BDE8F28338B504460D46FFF75AFF20B93D
:1027D00000F012F8FDF75DFD00B1112032BD38B5F3
:1027E00004460D46FFF74DFF20B900F005F8FDF750
:1027F000B2FD00B1112032BD0120009023462A46CF
:10280000AC211B48704700007CB5184E1A4C30783C
:102810000025401E032806D8DFE800F002070D1C43
:10282000FFF72FFFA0B1102076BD5020FFF7F9FE73
:102830000EE0002CF7D06846FFF7FBFE9DF8000085
:1028400000B96D1C641EEDB2052DF2DB002CEAD040
:10285000002076BD6846FFF7ECFE9DF800100129C8
:1028600002D170780028FCD07570F1E71A000020C2
:10287000600C00200000FFFFFFFF0F00002200F0AF
:10288000C7B8000080B50B48016841F400710160D1
:10289000026842F480620260016841F48071016064
:1028A0000320FEF7B6FE0F20FEF76CFD00F004F8E3
:1028B000002002BD003C02407047000070B586B0A9
:1028C000044600200090DFF86860DFF868000168C7
:1028D00041F001010160002100F024F80FF25800DE
:1028E00030F81450019501200290039102200490C9
:1028F00001A956F82400FEF763FA00F002F806B0CA
:1029000070BD56F8240000222946FEF7A3BB0FF243
:102910002801DFF81C3031F8101053F82000012294
:10292000FEF798BB006800F0010000900098704727
:102930001000002030380240200000001FB50F2199
:102940006846FFF711FA012832D19DF800309DF852
:10295000014024499DF80E20CA7344EA03249DF8DF
:1029600002300C808B709DF804409DF8033044EADF
:1029700003248C809DF805309DF8064044EA03242A
:102980009DF807300B72CC809DF808309DF80A4006
:102990004B729DF8093044EA03244C819DF80B30BA
:1029A0009DF80C4044EA03249DF80D308C818B7314
:1029B00004B010BD70B500F00EF80025012804D158
:1029C0002046FEF77DFE00F002F8284670BD054661
:1029D0007089FFF72ABA034E044670890021FFF779
:1029E000F4B900002000002038B50446FEF7E2F9F3
:1029F00014F1010F054602D0044801786418FEF76F
:102A0000D9F9401BA042FAD331BD00BF0400002019
:102A100000B500BF130096469446103928BFA0E8C1
:102A20000C50FAD85FEA417C28BF0CC048BF40F880
:102A3000042BC90728BF20F8022B48BF00F8012B40
:102A400000BD00000E48016841F4700101600022E1
:102A50000C49086840F0010008608A600A480A686A
:102A600002400A60002209484860086820F480207B
:102A70000860CA604FF000600549086070470000B8
:102A800088ED00E000380240FFFFF6FE1030002421
:102A900008ED00E000000000000000000102030457
:102AA0000607080919E050F8042BD30744BFA9F121
:102AB00001039A18091F0023042942F8043BF9D2A4
:102AC0005FEA817C134604D54FF0000CA2F800C0E9
:102AD0009B1CC90744BF0021197050F8041B002932
:102AE000E1D1704710B450F8041B79B10268436813
:102AF00002440830DC0744BFA9F10104E31852F88E
:102B0000044B43F8044B091FF9D1ECE710BC7047A4
:102B100010B5074979441831064C7C44163404E05A
:102B20000A68081D114488470146A142F8D110BD2A
:102B30002C0000004C0000004EF68851CEF200013F
:102B4000086840F470000860BFF34F8FBFF36F8FC9
:102B50004FF00070E1EE100A7047000049FFFFFFE0
:102B6000940C0000200000200000000079FFFFFF0F
:102B700020000000540000000000002000000000C1
:102B800000F00DF8002801D0FFF7C2FFAFF300807E
:102B90000020AFF30080FFF79DFC00F002F8012059
:102BA000704700F001B800000746384600F002F810
:102BB000FBE7000080B5AFF30080024A1100182047
:102BC000ABBEFBE726000200EFBEADDE0100000059
:102BD0000000000010000000000002400024F4008B
:102BE000ADDE0100010000007047FEE7FEE7FEE7F2
:102BF000FEE770477047704700F004B84020FEF7CA
:102C00002FBA000002484168027889184160704775
:102C1000040000200148804701480047452A000879
:102C2000252C0008AFF30080FFF786FFFFF7A8FF11
:102C30000000000001020304FFF7FEBFFFF7FEBF24
:102C4000FFF7FEBFFFF7FEBFFFF7FEBFFFF7FEBFB8
:102C5000FFF7FEBFFFF7FEBFFFF7FEBFFFF7FEBFA8
:102C6000FFF7FEBFFFF7FEBFFFF7FEBFFFF7FEBF98
:102C7000FFF7FEBFFFF7FEBFFFF7FEBFFFF7FEBF88
:102C8000FFF7FEBFFFF7FEBFFFF7FEBFFFF7FEBF78
:102C9000FFF7FEBFFFF7FEBFFFF7FEBFFFF7FEBF68
:102CA000FFF7FEBFFFF7FEBFFFF7FEBFFFF7FEBF58
:102CB000FFF7FEBFFFF7FEBFFFF7FEBFFFF7FEBF48
:102CC000FFF7FEBFFFF7FEBFFFF7FEBFFFF7FEBF38
:102CD000FFF7FEBFFFF7FEBFFFF7FEBFFFF7FEBF28
:102CE000FFF7FEBFFFF7FEBFFFF7FEBFFFF7FEBF18
:102CF000FFF7FEBFFFF7FEBFFFF7FEBFFFF7FEBF08
:102D0000FFF7FEBFFFF7FEBFFFF7FEBFFFF7FEBFF7
:042D1000FFF7FEBF0C
:0400000508002C259E
:00000001FF
